:020000040800F2
:10000000D007002091010008A50D0008A5080008F0
:10001000A10D0008690700080B140008000000008B
:100020000000000000000000000000005D1100085A
:100030006D070008000000003B1100087112000865
:10004000AB010008AB010008AB010008AB010008E0
:10005000AB010008AB010008AB010008AB010008D0
:10006000AB010008AB010008AB010008AB010008C0
:10007000AB010008AB010008AB010008AB010008B0
:10008000AB010008AB010008AB010008AB010008A0
:10009000AB010008AB010008AB010008AB01000890
:1000A000AB010008AB010008AB010008AB01000880
:1000B000D5120008AB010008AB010008AB01000835
:1000C000AB010008AB010008AB010008AB01000860
:1000D000AB01000825130008AB010008AB010008C4
:1000E000AB010008AB010008AB01000800F002F80A
:1000F00000F03FF80AA090E8000C82448344AAF183
:100100000107DA4501D100F034F8AFF2090EBAE880
:100110000F0013F0010F18BFFB1A43F0010318473B
:10012000986E0000B86E0000103A24BF78C878C1FD
:10013000FAD8520724BF30C830C144BF04680C60ED
:10014000704700000023002400250026103A28BF35
:1001500078C1FBD8520728BF30C148BF0B60704739
:10016000642900F06780002070471FB51FBD10B5DF
:1001700010BD00F0CBFA1146FFF7F7FF03F05AF875
:1001800000F0E9FA03B4FFF7F2FF03BC01F0C3F992
:100190000948804709480047FEE7FEE7FEE7FEE71B
:1001A000FEE7FEE7FEE7FEE7FEE7FEE70448054957
:1001B000054A064B7047000075120008ED00000864
:1001C000D0010020D0070020D0030020D003002061
:1001D000704710B54C1084EA530404D54042C1F175
:1001E000000138BF491E1B4204D55242C3F100032F
:1001F00038BF5B1E00F02EF914F0804F04D040424F
:10020000C1F1000138BF491E14F0004F04D0524222
:10021000C3F1000338BF5B1E10BD00000FB40449DA
:1002200010B503AA029800F0F1F910BC5DF814FBB8
:10023000900000202DE9F041064600241068752941
:10024000314616A510D0AFF30080002802DA4042F4
:1002500013A507E031688A0701D512A502E0490716
:1002600004D511A5012401E0AFF3008000210A228A
:1002700006F1240709E0B0FBF2FCB0FBF2F302FB4D
:100280001C00303078541846491C0028F3D123460E
:100290002A463046BDE8F04100F05EB9000000009B
:1002A0002D0000002B000000200000002DE9F05F71
:1002B000894604464FF0000ADFF824B1FB44C0F839
:1002C00020A02046E168884700287DD0252806D058
:1002D000D4E901219047206A401C2062F1E7002503
:1002E0005F462046E16888472028064607DB312E16
:1002F00005D2B81910F8200C08B10543F1E7A8079A
:1003000001D525F00405C4F81CA00027C4F818A0E6
:100310002A2E09D0304601F0F7F838B304EB8708ED
:10032000303EC8F8186019E059F8041B204604EB69
:1003300087029161E1688847012F064618D1E0697C
:10034000002820DA25F020051DE0D8F8180000EB81
:10035000800006EB40003038C8F818002046E168FD
:100360008847064601F0D0F80028EED1012F0AD0C8
:100370002E2E08D12046E16888477F1C0646022FB2
:1003800045F02005C4DBA069002803DA404245F0AF
:100390000105A061E80701D025F01005A6B1A6F17E
:1003A0004100192802D8203645F400654A463146F6
:1003B000204625604D46FFF7D3FE60B1012807D0E7
:1003C000ED1D25F0070000E007E000F1080978E7DF
:1003D00005F1040975E730467AE7206ABDE8F09F29
:1003E000A66B000040EA010310B59B070FD1042A59
:1003F0000DD310C808C9121F9C42F8D020BA19BAF0
:10040000884201D9012010BD4FF0FF3010BD1AB154
:10041000D30703D0521C07E0002010BD10F8013BA9
:1004200011F8014B1B1B07D110F8013B11F8014BD0
:100430001B1B01D1921EF1D1184610BD02F0FF0323
:1004400043EA032242EA024200F0F4B870477047E0
:100450007047704753EA020C00F069802DE9F04BB9
:100460004FF00006002B1FBFB3FA83F503FA05F423
:1004700024FA05F65E4012BF1643B2FA82F502FA7C
:1004800005F4C5F120051EBF22FA05FC44EA0C0460
:10049000203556EA044C4FEA144418BF641C4FF050
:1004A00000084FF00009904271EB030C39D300298A
:1004B00019BFB1FA81F701FA07F6B0FA80F700FA2E
:1004C00007F6C7F120071EBF20FA07FC46EA0C0614
:1004D0002037B6FBF4FCA7EB0507103F07F01F0B16
:1004E000CBF120060CFA0BFB2CFA06F644BFB34600
:1004F0000026202FA4BF5E464FF0000B5BEA060CDF
:1005000008BF4FF0010B19EB0B09ABFB027C48EB6A
:100510000608C01B06FB02CC0BFB03CC71EB0C01E5
:10052000C1E70B46024641464846BDE8F08B13B58D
:100530004FF000004FF00001AFF30080BDE81C4019
:10054000704710B500F096F8006810BD10B504466D
:1005500000F090F8046010BD2DE9F0470D46994673
:100560009246044600F124080168880604D5E06933
:1005700021F01001216000E00120A84201DD471BAD
:1005800000E00027A1697A1902EB0900081AA061AE
:100590002078C00602D42046AFF30080002608E091
:1005A000D4E901211AF806009047206A401C761C05
:1005B00020624E45F4DB2078C0060AD52046AFF312
:1005C000008006E0D4E9012130209047206A401CD9
:1005D0002062381EA7F10107F4DC07E0D4E901210D
:1005E00018F805009047206A401C2062281EA5F1DB
:1005F0000105F3DC2046AFF300802078000602D529
:100600000220BDE8F0870120FBE70000074B70B532
:100610000D467B4400F037F80446284600F046F8C3
:1006200010B14FF0FF3070BD204670BDB322000006
:100630004FF000020429C0F0128010F0030C00F00B
:100640003B80CCF1040CBCF1020F18BF00F8012B69
:10065000A8BF20F8022BA1EB0C0100F02DB85FEA37
:10066000C17C24BF00F8012B00F8012B48BF00F823
:10067000012B7047004870477001002001694A1C37
:1006800002610878704700B58FB0CDE901310021D3
:10069000059105497944CDE9031011466846FFF7F5
:1006A00005FE0FB000BD0000E5FFFFFF007B00F07E
:1006B000800070474FF0000200B5134694469646FE
:1006C000203922BFA0E80C50A0E80C50B1F1200165
:1006D000BFF4F7AF090728BFA0E80C5048BF0CC013
:1006E0005DF804EB890028BF40F8042B08BF704771
:1006F00048BF20F8022B11F0804F18BF00F8012BE3
:100700007047000000487047700100207546FFF7F1
:10071000F9FFAE4605006946534620F007008546BE
:1007200018B020B5FFF742FDBDE820404FF00006AD
:100730004FF000074FF000084FF0000B21F00701C9
:10074000AC46ACE8C009ACE8C009ACE8C009ACE80C
:10075000C0098D46704710B50446AFF300802046AF
:10076000BDE81040FFF70EBD00BFFEE770472DE962
:10077000F041024600250026002000230024002727
:1007800091F803C00CF00F0591F803C00CF0100CA9
:10079000BCF1000F03D091F802C04CEA050591F8B6
:1007A00000C0BCF1000F31D0146800202BE04FF0E6
:1007B000010C0CFA00F3B1F800C00CEA03069E42EB
:1007C00020D183004FF00F0C0CFA03F7BC4305FA5D
:1007D00003FC4CEA040491F803C0BCF1280F06D1D5
:1007E0004FF0010C0CFA00FCC2F814C00AE091F8BA
:1007F00003C0BCF1480F05D14FF0010C0CFA00FC0E
:10080000C2F810C0401C0828D1D31460B1F800C051
:10081000BCF1FF0F34DD546800202EE000F1080C1D
:100820004FF0010808FA0CF3B1F800C00CEA030617
:100830009E4221D183004FF00F0C0CFA03F7BC430A
:1008400005FA03FC4CEA040491F803C0BCF1280F3C
:1008500005D100F1080C08FA0CF8C2F8148091F8E0
:1008600003C0BCF1480F07D100F1080C4FF001089C
:1008700008FA0CF8C2F81080401C0828CED3546047
:10088000BDE8F0810246002093680B400BB10120C7
:1008900000E000207047016170470AB1016100E08B
:1008A0004161704700BFFEE710B500200E490860A7
:1008B0000E48006820F0F0000C4908600846006807
:1008C00040F03000086000200949C1F8A40100F0A0
:1008D00011F801200449086000F00CF800200449D8
:1008E000C1F8A00110BD0000A0812142040C01400C
:1008F0000080214210B5022001F0E6F910BD000091
:1009000008B50121082000F019FC4FF44070ADF843
:10091000000010208DF8030003208DF802006946C6
:100920000448FFF724FF4FF440710248FFF7B3FF7C
:1009300008BD0000000C014010B500200E49086001
:100940000E48006820F0F0000C4908600846006876
:1009500040F03000086001200949C1F8A401FFF708
:10096000C9FF012004490860FFF7C4FF00200449C3
:10097000C1F8A00110BD0000A0812142040C01407B
:100980000080214270B5054600241648006820F01A
:10099000F000144908600846006840F080000860D4
:1009A000002614E0002010490860FFF7A3FF012093
:1009B0000E49C1F8A0016006040E0B487C3800689F
:1009C00008B1601CC4B2FFF795FF701CC6B2082EB8
:1009D000E8DB15B9FFF7B0FF01E0FFF765FF204640
:1009E00070BD0000040C0140A08121420080214222
:1009F00070B504461248006820F0F0001049086005
:100A00000846006840F03000086000200D4908608A
:100A1000002512E0E0090B49091D08606006040E7C
:100A200001200949C1F8A001FFF764FF0020054932
:100A30000860FFF75FFF681CC5B2082DEADB70BDD8
:100A4000040C0140A08121420080214210B50E48D3
:100A5000006820F0F0000C4908600846006840F08B
:100A6000300008600120094908600949C1F8A00167
:100A7000FFF740FF002005490860FFF73BFF00201B
:100A80000349C1F8A00110BD040C0140A48121421A
:100A90000080214210B50E48006820F0F0000C499B
:100AA00008600846006840F03000086000200949EE
:100AB00008600949C1F8A401FFF71CFF012005499E
:100AC00008600549C1F8A401FFF714FF10BD00003C
:100AD000040C0140A08121420080214210B5002475
:100AE0001448006820F0F0001249086008460068C9
:100AF00040F08000086001200F490860FFF7FAFE0F
:100B000001200E49C1F8A001FFF7F4FE07E0601CC8
:100B1000C4B2FA2C03DDFFF7BDFF012010BD06486B
:100B2000803800680028F2D10349091F086000BF1F
:100B3000F4E70000040C0140A4812142008021421E
:100B400010B5FFF7DDFE80216B2000F0D7F86420A0
:100B500001F094F800216B2000F0D0F8032000F0A1
:100B60008BF8002000F080F8322000F0AAF8002175
:100B7000382000F0C3F800216A2000F0BFF80021FF
:100B8000232000F0BBF88021372000F0B7F8752053
:100B900000F013F80446682C0BD101216B2000F003
:100BA000ADF800216C2000F0A9F8322000F089F89F
:100BB00001E0012010BD0020FCE770B50446FFF7FE
:100BC00045FFD020FFF714FFFFF788FF2046FFF70F
:100BD0000FFFFFF783FFFFF739FFD120FFF708FF73
:100BE000FFF77CFF0020FFF7CDFE0546FFF752FF21
:100BF000284670BD2DE9F04106460F4614461D46B5
:100C0000FFF724FF002141EA4601C8B2FFF7F0FEDA
:100C1000FFF764FF20B1FFF73DFF0120BDE8F08141
:100C20003846FFF7E5FEFFF759FFFFF70FFF0121F9
:100C300001EB4601C8B2FFF7DBFEFFF74FFF0DE007
:100C4000012C04D10020FFF79DFE287003E0012055
:100C5000FFF798FE2870601EC4B26D1C002CEFD107
:100C6000FFF718FF0020D9E710B50446E006010E93
:100C70001C2000F043F810BD10B50446E006010E3C
:100C80001B2000F03BF810BD70B504460025BC2CBD
:100C900001DB012510E0622C01DB02250CE02A2C8F
:100CA00001DB032508E0142C01DB042504E00A2CF9
:100CB00001DB052500E0062529461A2000F01EF874
:100CC00070BD70B50446B4F57A7F01DD4FF47A74D7
:100CD000042C00DA04244FF47A7090FBF4F0401EE8
:100CE000C5B22946192000F009F80546264604EB4E
:100CF000D671C1F34F00FFF7C7FF70BD70B5054651
:100D00000C46FFF7A3FED020FFF772FEFFF7E6FECA
:100D100018B1FFF7BFFE012070BD2846FFF768FE3F
:100D2000FFF7DCFE2046FFF763FEFFF7D7FE18B1A2
:100D3000FFF7B0FE0120EFE7FFF7ACFE0020EBE786
:100D40002DE9F04105460E4617469846FFF77EFE10
:100D5000002141EA4501C8B2FFF74AFEFFF7BEFE97
:100D600020B1FFF797FE0120BDE8F0813046FFF784
:100D70003FFEFFF7B3FE00240CE018F80400FFF775
:100D800037FEFFF7ABFE18B1FFF784FE0120EBE75B
:100D9000601CC4B2BC42F0DBFFF77CFE0020E3E73E
:100DA00000BFFEE7704770B500240EE0002120462A
:100DB00000F0EFF8002504E0002000F0AEF9681C18
:100DC000C5B2802DF8DB601CC4B2082CEEDB70BD10
:100DD00008B50121042000F0B1F914208DF80300BA
:100DE00003208DF802004FF48050ADF800006946F2
:100DF0000A48FFF7BCFC4FF40070ADF800006946EC
:100E00000648FFF7B4FC012211030448FFF745FD33
:100E1000012251020148FFF740FD08BD00080140D2
:100E200070B50546002415E08020204100EA050247
:100E30004FF400710E48FFF730FD012211030C48FA
:100E4000FFF72BFD00224FF480510948FFF725FDE5
:100E5000601CC4B2082CE7DB012211030448FFF731
:100E60001CFD00224FF480510148FFF716FD70BDB4
:100E70000008014010B5012251020A48FFF70DFD9C
:100E8000012211030748FFF708FD00224FF400710B
:100E90000448FFF702FD00224FF480510148FFF79C
:100EA000FCFC10BD0008014010B500224FF4007199
:100EB0000648FFF7F2FC012211030448FFF7EDFC9E
:100EC000012251020148FFF7E8FC10BD0008014073
:100ED00070B5002406E0002500E06D1CB5F57A7FB2
:100EE000FBD3641CB4F57A7FF5D3FFF771FFAE2016
:100EF00000F003F9D52000F000F9802000F0FDF8A3
:100F0000A82000F0FAF83F2000F0F7F8D32000F016
:100F1000F4F8002000F0F1F8402000F0EEF8A120F5
:100F200000F0EBF8C82000F0E8F8DA2000F0E5F86F
:100F3000122000F0E2F8812000F0DFF8CF2000F06E
:100F4000DCF8D92000F0D9F8F12000F0D6F8DB2049
:100F500000F0D3F8302000F0D0F8A42000F0CDF855
:100F6000A62000F0CAF88D2000F0C7F8142000F089
:100F7000C4F8AF2000F0C1F8FFF715FF70BD10B541
:100F80000246012000E050430B1EA1F10101FAD1FD
:100F900010BD70B505460C4645F0B00000F0ADF848
:100FA000102141EA141000F0A8F804F00F0000F03E
:100FB000A4F870BD2DE9F04105460E461746721E95
:100FC000D206110E6A1E5206100EFFF7E2FF002431
:100FD00009E0A7F12001134A02EB0111085D00F0BE
:100FE0009CF8601CC4B2082CF3DB721ED206110EF2
:100FF0006A1E012303EB4202D0B2FFF7CAFF0024AE
:101000000BE0A7F12001074A02EB011204F10801ED
:10101000505C00F082F8601CC4B2082CF1DBBDE823
:10102000F0810000766800082DE9F04780460E4602
:1010300017461D46002415E0281B411E0A20FFF715
:101040009EFFB7FBF0F00A21B0FBF1F201FB1200AA
:1010500000F130093019C1B24A464046FFF7AAFFF5
:10106000601CC4B2AC42E7DBBDE8F0872DE9F04775
:101070008146884615461E46002D06DB2B2241463A
:101080004846FFF797FF2F4605E02D224146484688
:10109000FFF790FF6F42002417E0301B411E0A202B
:1010A000FFF76DFFB7FBF0F00A21B0FBF1F201FB97
:1010B000120000F1300A08EB0400401CC1B2524695
:1010C0004846FFF777FF601CC4B2B442E5DBBDE8D9
:1010D000F0872DE9F04107460E461546002407E04B
:1010E0002A5D3019C1B23846FFF764FF601CC4B2F4
:1010F000285D0028F4D1BDE8F08110B50446FFF763
:10110000B9FE7820FFF78CFE0020FFF789FE20460D
:10111000FFF786FEFFF7C8FE10BD10B50446FFF7C7
:10112000A9FE7820FFF77CFE4020FFF779FE2046DD
:10113000FFF776FEFFF7B8FE10BD704729B1064AEB
:1011400092690243044B9A6104E0034A9269824324
:10115000014B9A617047000000100240704710B5C3
:1011600000F002F810BD00000CB5002001900090C6
:101170003348006840F480303149086000BF30488F
:10118000006800F4003000900198401C0190009825
:1011900018B90198B0F5A06FF1D12948006800F4A2
:1011A000003010B10120009001E000200090009874
:1011B000012843D12348006840F01000214908600D
:1011C0000846006820F0030008600846006840F008
:1011D000020008601A48406819494860084640689B
:1011E00048600846406840F48060486008464068AF
:1011F00020F47C1048600846406840F4E8104860DD
:101200000846006840F08070086000BF0C48006825
:1012100000F000700028F9D00948406820F0030071
:10122000074948600846406840F00200486000BF37
:101230000348406800F00C000828F9D10CBD0000FC
:101240000010024000200240042808D14FF0E021A5
:10125000096941F004014FF0E022116107E04FF00D
:10126000E021096921F004014FF0E022116170478B
:101270007047000010B51348006840F001001149A4
:10128000086008464068104908400E494860084612
:1012900000680E4908400B4908600846006820F4C1
:1012A000802008600846406820F4FE0048604FF443
:1012B0001F008860FFF753FF4FF00060044908608B
:1012C00010BD0000001002400000FFF8FFFFF6FE16
:1012D00008ED00E010B50121880700F012F80128A0
:1012E00008D105480068401C0349086001218807AF
:1012F00000F004F810BD000088000020CA430282FC
:10130000704730B50246002000230024158A05EA04
:101310000103958905EA010413B10CB1012000E035
:10132000002030BD10B540F225511D4800F03EF8B8
:1013300010B31B4800F064F8C4B21A48008800F4E7
:101340000040C8B91748008800F4804060B10A2CFA
:1013500003D000201349088020E01248008840F4A0
:1013600000401049088019E00D2C06D10D48008876
:1013700040F480400B49088010E00A480088C0F320
:101380000D0009490C5407480088401C0549088095
:1013900008460088C72801DD0020088010BD000035
:1013A0000038014094000020A800002070B50246DB
:1013B000002400230025002040F66A16B14200D127
:1013C00000BFC1F3421501F01F03012606FA03F323
:1013D000012D02D19689334006E0022D02D1168AF2
:1013E000334001E0968A33400C12012606FA04F4D9
:1013F0001688344013B10CB1012000E0002070BD0C
:1014000001468888C0F30800704700BFFEE7490026
:1014100050EAC12018BF04204A0D18BF40F0010057
:1014200040F2FF72B2EB515F08BF40F002000128AA
:1014300008BF052070472DE9F0414F1E00EBC701A2
:101440000446D1E9000115461E4637F006020DD0CC
:101450002A46334603F0F0FC7F1E04EBC703D3E9B2
:10146000002303F0E1FA37F00602F1D1022F25D074
:10147000042F13D0062F18BFBDE8F0812A4633464B
:1014800003F0DAFCD4E90A2303F0CEFA2A46334605
:1014900003F0D2FCD4E9082303F0C6FA2A46334607
:1014A00003F0CAFCD4E9062303F0BEFA2A46334609
:1014B00003F0C2FCD4E9042303F0B6FA2A4633460B
:1014C00003F0BAFCD4E9022303F0AEFA2A4633460D
:1014D00003F0B2FCD4E90023BDE8F04103F0A4BA64
:1014E000012204F05EBB03F09FBA002213461046AF
:1014F000114603F049BB0000024A0020110704F026
:1015000050BB000001FDFFFF30380A2801D2012046
:1015100070470020704700BF704700002DE9FE4F64
:1015200006460F460025684601F0DCF9002442E03B
:1015300056F8240057F82410A0EB010ABAF1000F66
:1015400001DB514601E0CAF10001084604F01AF936
:1015500083464FF08F4103F0E3FF80465DF824009F
:10156000002104F09FF816D05DF82410404603F0E7
:10157000D7FF82464FF07E5104F06CFA814629F085
:10158000004A0F48416A504604F028FA12D201205E
:10159000A04005430EE00A48C169404604F01EF928
:1015A00005D30748016A404604F018FA02D2012028
:1015B000A0400543641C032CBADB2846BDE8FE8F1F
:1015C000585C00082DE9F04D8D4F21F0004A86B09F
:1015D00005460C46BA452ADBAAEB070028430AD089
:1015E0008848824501DC1AD1CDB106B02846BDE855
:1015F000F04DFFF775BF844A844B284603F01CFC6E
:1016000007460E46824A834B2846214603F014FCC7
:1016100006B03A463346BDE8F04D03F005BA012066
:10162000FEF794FF06B0BDE8F04DFFF75EBF7A48C5
:10163000824542DABAF1795F0BDA2846FFF7E7FE16
:10164000042808BFFFF758FF284606B02146BDE82A
:10165000F08D2A460B46104603F0EEFB8346024609
:101660006E480E460B4606217844FFF7E4FE5A46C4
:10167000334603F0E1FB804669488A465A463346C2
:1016800004217844FFF7D7FE5A46334603F0D4FBD3
:1016900000223B4603F0C8F902460B46404651463D
:1016A00003F072FA2A46234603F0C6FB06B02A4628
:1016B0002346BDE8F04D03F0B7B9284624F00041B9
:1016C00000223D463B4603F0B5FC4FF0FF3204F0EC
:1016D00068FA0646024653480F460B4606217844F0
:1016E000FFF7A9FE32463B4603F0A6FBCDE9000119
:1016F0004D4832463B4604217844FFF79CFE324673
:101700003B4603F099FB00222B4603F08DF98346FC
:1017100002913046394603F02FF9804643480D4682
:10172000504517DCDDE900015A46029B03F02CFA14
:1017300042462B4603F080FB42462B4603F074F9E9
:10174000012204F02EFA304A304B03F065FD304A96
:10175000304B4CE04FF0000A52460B46404603F037
:1017600063F9CDE9031052462B461046194603F0A3
:1017700063FB32463B4603F05DFCDDE9033203F0D8
:1017800003FA06460F46DDE900015A46029B03F0C4
:10179000FBF98346009101223046394604F001FAF4
:1017A000194A1A4B03F046FC06460F4601224046F2
:1017B000294604F0F6F95A46009B03F03DFB3246F9
:1017C0003B4603F029FD06460F46012250462946B6
:1017D00004F0E7F90E4DDFF858802A46434603F03F
:1017E00029FC32463B4603F025FC2A46434603F0DB
:1017F00021FC002CD8BF81F0004106B0BDE8F08D7F
:101800000000F03F0000F07F075C143326A6913CF7
:10181000182D4454FB21F93F0000E03F0C58000014
:101820002258000096570000AC5700003333EF3FBA
:10183000FB21E93F2DE9F84F04460D4621F0004019
:1018400000917349814211DC7249884201DC06D162
:101850002CB120462946BDE8F84FFFF741BE6E483F
:10186000002DCCBF6D496E49BDE8F88F6D498142AE
:1018700011DD6D498142D8BF4FF0FF366DDD204646
:101880002946FFF7C4FD042808BFFFF735FE2046B0
:101890002946BDE8F88F6549654F25F0004581422E
:1018A00033DD6449814219DD002632464FF0804322
:1018B0002046294603F0B8F880468A460122204691
:1018C000294604F06EF900223B4603F0A5FC42468F
:1018D000534603F059F904460D463EE00126002226
:1018E000BA463B462046294603F09EF880460F46FE
:1018F000002253462046294603F08EFC42463B46D2
:1019000003F042F904460D4627E04B4981421BDDB6
:10191000DFF828A10226002253462046294603F07C
:101920008BFA00223B4603F07FF880460F460022E8
:1019300053462046294603F06FFC42463B4603F0DF
:1019400023F904460D4608E0032622462B460020D4
:101950003B4903F019F904460D4622462B46104632
:10196000194603F069FA8B46824602460B4603F09D
:1019700063FA07460246334888460B4606217844F8
:10198000FFF759FD52465B4603F056FA82462E4851
:101990008B463A46434605217844FFF74CFD3A46CC
:1019A000434603F049FA02460B46002E504659467C
:1019B0000CDA03F039F822462B4603F03DFA01B069
:1019C00022462B46BDE8F04F03F034BB03F02CF861
:1019D00022462B4603F030FA1C4A7A4402EBC60337
:1019E000D3E9002303F018FC22462B4603F014FC35
:1019F000174A7A4402EBC603D3E9002303F01AFB2B
:101A0000009A002AB8BF81F00041BDE8F88F0000BD
:101A1000000010440000F07F182D4454FB21F93FD2
:101A2000FB21F9BF0000DC3F0000203E0000F33F37
:101A30000000F03F0000E63F008003400000F83F58
:101A40000000F0BFAE5500006C5500000A550000C4
:101A5000D25400002DE9F04D9446CCF1000423F05F
:101A600000464CEA0404524F46EAD4749A4688462B
:101A700021F00042BC4206D8454240EA050442EA51
:101A8000D474BC4204D9BDE8F04D6246FFF72BBDCB
:101A9000AAF14055A5F17F6555EA0C040BD002244C
:101AA00004EAAA74434DDFF810E144EAD87452EA1C
:101AB000000B04D00CE0BDE8F04DFFF7BBBE002CDE
:101AC00014BF012CBDE8F08D022C30D0032C32D095
:101AD00056EA0C0B0AD0BE4220D1BA4209D126F0F8
:101AE000804622F080423346114617E000291ADB77
:101AF00025E0DFF8C8B0FB44002C04BFDBE900019F
:101B0000BDE8F08D012C02BFDBE9000181F000414E
:101B1000BDE8F08D022C0AD0032C0CD0BA4212D1B1
:101B2000B8F1000F0BDA23482549BDE8F08D2846AF
:101B30002449BDE8F08D28467146BDE8F08D1D486A
:101B40002149BDE8F08D921B12153C2AC4BF1948EB
:101B50001D490EDCBAF1000FBEBF12F13C0F002090
:101B6000014606DB624603F00FF821F00041FFF763
:101B700061FE002C08BFBDE8F08D012C04BF81F090
:101B80000041BDE8F08D114A114B022C07D003F043
:101B900043FB2A46BDE8F04D0A4B03F03DBB03F082
:101BA0003BFB2A46BDE8F04D064B03F043BA00006C
:101BB0000000F07F182D4454FB2109C0665400003A
:101BC000FB21F9BFFB210940FB21F93F075C1433DE
:101BD00026A6A13C2DE9F0410446E07800F0C006BD
:101BE000E07800F03F05607800F0010098B1EF1058
:101BF0002846E91705EB5171C910A5EBC101491C35
:101C000001F0FF080B48006820B10A48414602680D
:101C10003846904700BF607800F0080030B10548B2
:101C2000406818B1B011034A516888470020BDE8E8
:101C3000F08100009800002010B56FF00400FFF75D
:101C400003FB0A4800680A49B0FBF1F00949087033
:101C50000846007800EB4001C1EBC0104FF6FF7161
:101C600001EAC0000449088010BD00003C000020CB
:101C700000127A008C0000208E0000200146114ADC
:101C800012884A434FF0E0235A6100229A611A46B3
:101C9000126942F001021A6100BF4FF0E0221069A0
:101CA00000F001021AB100F48032002AF5D04FF0A2
:101CB000E022126922F001024FF0E0231A610022B3
:101CC0009A6170478E0000200146114A12784A43FB
:101CD0004FF0E0235A6100229A611A46126942F0DD
:101CE00001021A6100BF4FF0E022106900F001020A
:101CF0001AB100F48032002AF5D04FF0E0221269C8
:101D000022F001024FF0E0231A6100229A6170472D
:101D10008C00002038B5044664B120208DF8000006
:101D200028208DF8010030208DF8020038208DF831
:101D3000030004E0A32204216846FEF77FFB6A4605
:101D4000042140F69E2002F045FD02F02FF938BD37
:101D50003EB5044602208DF80000CA208DF801002F
:101D6000E3208DF8020009208DF803006A46042163
:101D7000682002F02FFDA3208DF8000004F0400041
:101D800048B1C0208DF80100C8208DF80200C220A3
:101D90008DF8030006E0A3208DF801008DF8020005
:101DA0008DF8030004F4C07048B1C4208DF804001D
:101DB000CC208DF80500C6208DF8060006E0A32093
:101DC0008DF804008DF805008DF80600A3208DF82D
:101DD00007008DF808008DF809006A460A2140F6D0
:101DE000A72002F0F7FC04F0030018B120208DF8C2
:101DF000000002E0D8208DF800006A46012140F67C
:101E0000B62002F0E7FC04F0200018B1012000F039
:101E1000ADF802E0002000F0A9F804F4C07008B3A7
:101E200004F4807060B1B2208DF800008B208DF832
:101E30000100B6208DF802009B208DF803000BE016
:101E4000B0208DF8000080208DF80100B4208DF8BE
:101E5000020090208DF803006A46042140F6A2207B
:101E600002F0B8FC04F0010020B3F8208DF8000067
:101E70006A4601214FF40B6002F0ACFCFA21072006
:101E800000F02CFC072000F0F3FB012000F013FC15
:101E9000642000F0F3FC4FF4FA7000F002FDC8215A
:101EA000304800F0A3FB282000F0BCFB0A2000F023
:101EB000CCFB08E0D8208DF800006A4601214FF4E1
:101EC0000B6002F087FC04F0020018B1D9208DF8F5
:101ED000000002E0D8208DF800006A46012140F29F
:101EE0003D7002F077FC04F0040018B1012000F00E
:101EF00069F802E0002000F065F804F0100018B165
:101F00000120FFF707FF02E00020FFF703FF44F086
:101F100008001549488102F049F8002012498873E9
:101F200004F0400018B10846807B801D887304F4DB
:101F3000C07020B10C48807B801D0B49887304F071
:101F4000140020B10848807B10300749887304F0E2
:101F5000030020B10448807B001D034988730020E2
:101F60003EBD000009E3CA02980000203EB50446C9
:101F70006CB10EA1D1E900208968CDE90020029161
:101F80006A4609214FF4976002F024FC3EBD0AA284
:101F9000D2E900109268CDE9010200916A46092158
:101FA0004FF4976002F016FCF0E70000B8AAB38D7A
:101FB000B4980D355D000000B8AAAAAAB088C3C5C0
:101FC000C700000038B5044664B1C0208DF8000099
:101FD000C2208DF80100C4208DF80200C6208DF8C3
:101FE000030004E08B2204216846FEF727FA6A46C4
:101FF000042140F6982002F0EDFB01F0D7FF38BD38
:1020000010B5C8234FF48062024940F6F63001F063
:1020100061FE10BD805C00082DE9F04F8DB00746D1
:10202000884615469946DDE9166B0024002030806D
:102030006B49887B5A4605A901F018FF18B1601E4C
:102040000DB0BDE8F08F6648807A00F014000028DB
:1020500067D09DF8140000069DF8151040EA014075
:102060009DF8161040EA01209DF8171008432860DB
:102070009DF8180000069DF8191040EA01409DF8EF
:102080001A1040EA01209DF81B10084368609DF873
:102090001C0000069DF81D1040EA01409DF81E102E
:1020A00040EA01209DF81F100843A8609DF8200019
:1020B00000069DF8211040EA01409DF8221040EAF8
:1020C00001209DF823100843E86004F11000C4B219
:1020D000286800140190686800140290A868001431
:1020E0000390E8680014049001984043029901FBB2
:1020F0000100039901FB0100049901FB010ABAF1F7
:10210000706F02DBBAF1885F05DD01F04FFF002040
:102110003080401E94E7B6F9000040F480703080B3
:1021200000BF2F48807A00F0400020B305A9601C52
:10213000085C095D40EA012000B2A8F8000005A98A
:10214000E01C095C05AAA01C105C41EA002000B25A
:10215000A8F8020005A9601D095C201D105C41EA79
:10216000002000B2A8F80400A01DC4B2B6F9000017
:1021700040F0080030801A48408900F4C07008B36D
:1021800005A9601C085C095D40EA012000B23880A6
:1021900005A9E01C095C05AAA01C105C41EA00200E
:1021A00000B2788005A9601D095C201D105C41EA21
:1021B000002000B2B880A01DC4B2B6F9000040F003
:1021C000700030800648807A00F0030018B105A93D
:1021D0000819FFF7FFFC484601F00EFA00202FE730
:1021E0009800002070B588B0064601A801F0C6FB33
:1021F000BDF804000021C90341EA5045C403444826
:10220000007A00F0030056F8200005904048007A5C
:1022100000F0040010B10598404205903C48007A57
:10222000C0F3C10056F8200006903948007A00F04B
:10223000200010B10698404206903548007AC0F35D
:10224000811056F8200007903148008900F4807012
:1022500010B10798404207900598C117A0FB0423CE
:1022600001FB043100FB0510810041EA92700590EA
:102270000698C117A0FB042301FB043100FB0510E5
:10228000810041EA927006900798C117A0FB0423D1
:1022900001FB043100FB0510810041EA92700790B8
:1022A0000598000E8DF808000598000C8DF80900BF
:1022B0000598000A8DF80A000598C0B28DF80B0049
:1022C0000698000E8DF80C000698000C8DF80D0095
:1022D0000698000A8DF80E000698C0B28DF80F001F
:1022E0000798000E8DF810000798000C8DF811006B
:1022F0000798000A8DF812000798C0B28DF81300F5
:1023000002AA0C214FF4257002F064FA08B070BDE7
:102310009800002030B585B0044616A207CA02AB6B
:1023200007C3C82C03DD4FF0FF3005B030BDC82017
:1023300090FBF4F0401E85B2280A8DF80000E8B248
:102340008DF801006A46022140F2162002F042FA9E
:1023500010B14FF0FF30E8E702AA0C2140F6C1208F
:1023600002F038FA10B14FF0FF30DEE70448848104
:102370000020DAE7FEF2ABC4AAF1DFDFBBAFDFDF9C
:10238000980000201FB504464848007A00F003007A
:1023900054F8200001904548007A00F0040010B184
:1023A0000198404201904148007AC0F3C10054F8BE
:1023B000200002903D48007A00F0200010B1029801
:1023C000404202903948007AC0F3811054F820004E
:1023D00003903648008900F4807010B103984042A1
:1023E00003903349019880FB0101800F40EA81008E
:1023F00001902F49029880FB0110820042EA9170FF
:1024000002902B49039880FB0110820042EA9170F0
:1024100003900198000E8DF800000198000C8DF8D3
:1024200001000198000A8DF802000198C0B28DF8F1
:1024300003006A4604214FF4747002F0CBF918B11E
:102440004FF0FF3004B010BD0298000E8DF8000070
:102450000298000C8DF801000298000A8DF8020025
:102460000298C0B28DF803006A4604214FF47570DB
:1024700002F0B0F910B14FF0FF30E3E70398000E1F
:102480008DF800000398000C8DF801000398000AF5
:102490008DF802000398C0B28DF803006A4604214B
:1024A0004FF4767002F096F9CCE700009800002017
:1024B00009E3CA0210B586B0044647A0006803903D
:1024C00046A00068029046A00068019045A0006800
:1024D000009004F0030003A9085C8DF8140003A821
:1024E000C4F3C101405C8DF8150003A8C4F3811149
:1024F000405C8DF8160004F0030002A9085C8DF81A
:10250000100002A8C4F3C101405C8DF8110002A8BC
:10251000C4F38111405C8DF8120005AA032140F23A
:10252000264002F057F918B14FF0FF3006B010BD49
:1025300004AA032140F22A4002F04CF910B14FF0F6
:10254000FF30F3E7019805900098049004F0040030
:1025500058B19DF8140040F001008DF814009DF86A
:10256000100040F001008DF8100004F0200058B178
:102570009DF8150040F001008DF815009DF8110040
:1025800040F001008DF8110004F4807058B19DF8FE
:10259000160040F001008DF816009DF8120040F082
:1025A00001008DF8120005AA03214FF4886002F0A3
:1025B00011F910B14FF0FF30B8E704AA032140F23F
:1025C000314002F007F910B14FF0FF30AEE7064896
:1025D00004810020AAE700004CCD6C000CC92C003F
:1025E000365676002646660098000020F8B5054667
:1025F0000E464FF47A7095FBF0F000FB06F4200EC7
:102600008DF80000200C8DF80100200A8DF80200E2
:10261000E0B28DF803006A4604214FF4AE7002F078
:10262000D9F8F8BD38B50446052094FBF0F084B223
:1026300020128DF80000E0B28DF801006A460221F8
:102640004FF4AD7002F0C6F838BD38B50446052029
:1026500094FBF0F084B220128DF80000E0B28DF807
:1026600001006A4602214FF4AC7002F0B3F838BDA5
:1026700038B504460020009004F0010020B19DF818
:10268000000040F03000009004F0020020B19DF8FE
:10269000000040F00C00009004F0040020B19DF810
:1026A000000040F0030000906A4601214FF4A4703E
:1026B00002F090F838BD38B50446012C01DA012447
:1026C00002E0042C00DD0424601EC0B200906A46C3
:1026D000012140F24F1002F07DF838BD2DE9FC4792
:1026E00006460F4606F0070010B1B7F5C86F03DDC8
:1026F0004FF0FF30BDE8FC87384603F05BF88146B9
:10270000594902F00DFF8046684601F011F99DF825
:102710000000022806D0042816D0082826D0102849
:1027200048D135E04FF08D41404603F08BF88146AB
:1027300003F008F884B24D49404603F083F881461F
:1027400003F000F885B238E04FF08C41404603F0CA
:1027500079F8814602F0F6FF84B24549404603F01D
:1027600071F8814602F0EEFF85B226E04FF08B4112
:10277000404603F067F8814602F0E4FF84B23D4929
:10278000404603F05FF8814602F0DCFF85B214E0BA
:102790004FF08A41404603F055F8814602F0D2FFDF
:1027A00084B23549404603F04DF8814602F0CAFF35
:1027B00085B202E04FF0FF309CE700BF20128DF899
:1027C0000400E0B28DF8050028128DF80600E8B28A
:1027D0008DF8070006F00100A0B101AA02214FF414
:1027E000EA7001F0F7FF10B14FF0FF3082E70DF112
:1027F000060202214FF4927001F0ECFF10B14FF08D
:10280000FF3077E706F00200A0B101AA02214FF4E1
:10281000EC7001F0DFFF10B14FF0FF306AE70DF10F
:10282000060202214FF4947001F0D4FF10B14FF072
:10283000FF305FE706F00400A0B101AA02214FF4C7
:10284000EE7001F0C7FF10B14FF0FF3052E70DF10D
:10285000060202214FF4967001F0BCFF10B14FF058
:10286000FF3047E7002045E70000484300004046AE
:102870000000C045000040450000C04438B5044693
:10288000052094FBF0F085B228128DF80000E8B224
:102890008DF801006A4602214FF4EF7001F09AFFB3
:1028A00038BD38B50446052094FBF0F085B22812F7
:1028B0008DF80000E8B28DF801006A4602214FF45D
:1028C000ED7001F087FF38BD00BF054A128802F0A5
:1028D0004002002AF9D0C2B2014B1B1D1A8070477A
:1028E000003801407CB5054628494968087801ABA5
:1028F00004220D21FEF77EF908B107207CBD9DF86A
:102900000700C0F301109DF8041001F0E00140EA57
:10291000E1008DF800009DF80700C0F381009DF8EC
:10292000051001F0E00140EAE1008DF801009DF89A
:10293000070000F003009DF8061001F0E00140EAF6
:10294000E1008DF8020000241CE01DF8040018B915
:10295000002045F8240013E00D4845F8240006E067
:1029600055F824000B4902F06DFF45F824001DF8CE
:102970000400401EC0B20DF804000028F0D100BFD2
:10298000601CC4B2032CE0DB0020B7E7500000203D
:102990007B14AE3E1D5A843F70B5ADE05BA20121B1
:1029A0000846FEF796FB5BA201210220FEF791FB91
:1029B0005AA201210320FEF78CFB5A495A480068AD
:1029C00002F040FF0546574902F0AAFD044602F016
:1029D0009DFE56490860032308460721026801202E
:1029E000FEF744FB2E220B210120FEF7E3FA4D49AE
:1029F0004D48006802F026FF044602F087FE4C496D
:102A00000860084600684FF47A7190FBF1F201FB10
:102A1000120047490860012308460C210268184645
:102A2000FEF702FB3F494348006802F00BFF0546F2
:102A30003C4902F075FD044602F068FE3B4908601F
:102A400004230846072102680220FEF70FFB2E220E
:102A50000C210220FEF7AEFA32493648006802F037
:102A6000F1FE044602F052FE314908600846006853
:102A70004FF47A7190FBF1F201FB12002C490860CF
:102A8000012308460D2102680220FEF7CDFA2549F0
:102A90002948006802F0D6FE0546224902F040FDB2
:102AA000044602F033FE214908600423084607214A
:102AB00002680320FEF7DAFA2E220C210320FEF72B
:102AC00079FA18491C48006802F0BCFE044602F07E
:102AD0001DFE17490860084600684FF47A7190FBA4
:102AE000F1F201FB120012490860012308460D2192
:102AF00002680320FEF798FA0F4A0E490A4800F0D0
:102B0000B5FD00287FF44AAF70BD000070697463A2
:102B1000683A0000726F6C6C203A000079616C6C4E
:102B2000203A0000000020410C000020000000209E
:102B300004000020100000201400002010B51248EE
:102B400001681248006802F085FF11490860002101
:102B50000F48006802F042FE05D80E490C48006894
:102B600002F03CFF0BD90C490948006802F036FF1F
:102B700007D80A490648006802F030FE01D8012053
:102B800010BD4FF0FF30FBE72000002024000020A4
:102B900030000020000034C3000034430000B44380
:102BA0002DE9F04F87B005460C46914601208DF87F
:102BB000100000208DF81100FE4A1268917CFD4A39
:102BC0005268107804AB0222FEF7BAF820B14FF039
:102BD000FF3007B0BDE8F08FC820FFF74FF80020A6
:102BE0008DF81000F34A1268D17BF24A52681078CF
:102BF00004AB0122FEF7A4F810B14FF0FF30E8E774
:102C0000EC4A12685179EB4A5268107804AB012201
:102C1000FEF796F810B14FF0FF30DAE7E54A126898
:102C2000917CE44A5268107804AB0122FEF788F8E0
:102C300010B14FF0FF30CCE7DE4A1268D17DDD4A9B
:102C40005268107804AB0122FEF77AF810B14FF009
:102C5000FF30BEE7D74A12681179D64A5268107819
:102C600004AB0122FEF76CF810B14FF0FF30B0E773
:102C70000C208DF81000CF4A12681179CD4A5268A5
:102C8000107804AB0122FEF75BF810B14FF0FF3073
:102C90009FE70F20FEF7F2FFC648806A407A8DF862
:102CA0001000C44A12689178C24A5268107804AB86
:102CB0000122FEF745F810B14FF0FF3089E7BD481B
:102CC000806A007A8DF81000BA4A12685178B94AC1
:102CD0005268107804AB0122FEF732F810B14FF0C1
:102CE000FF3076E7B9F1000F07D0B248806A807AEA
:102CF00040F0E0008DF8100004E0AE48806A807A71
:102D00008DF81000AB4A12689179AA4A526810787F
:102D100004AB0122FEF714F810B14FF0FF3058E772
:102D2000B9F1000F07D0A348806AC07A40F0E000F4
:102D30008DF8100003E0A048C07A8DF810009D4A7D
:102D40001268D1799B4A5268107804AB0122FDF7D2
:102D5000F7FF10B14FF0FF303BE7B9F1000F02D0A1
:102D6000C820FEF78BFF40208DF81000914A1268B2
:102D70001179904A5268107804AB0122FDF7E0FF08
:102D800010B14FF0FF3024E778208DF81000894A09
:102D900012685179874A5268107804AB0122FDF716
:102DA000CFFF10B14FF0FF3013E783498889FEF75A
:102DB00065FF00208DF810007E4A126851797D4A27
:102DC0005268107804AB0122FDF7BAFF10B14FF042
:102DD000FF30FEE6774A1268917A764A5268107898
:102DE00004AB0222FDF706FF10B14FF0FF30F0E612
:102DF0009DF811009DF8101040EA012B0C209BFB60
:102E0000F0F0C6B20020A86068602860A060606032
:102E10002060824665E0674A1268D17A654A526846
:102E2000107804AB0C22FDF7E5FE10B14FF0FF3037
:102E3000CFE69DF811009DF8101040EA012000B285
:102E4000ADF808009DF813009DF8121040EA01202B
:102E500000B2ADF80A009DF815009DF8141040EA84
:102E6000012000B2ADF80C00BDF90810206808443C
:102E70002060BDF90A10606808446060BDF90C105C
:102E8000A0680844A0609DF817009DF8161040EA5D
:102E9000012000B2ADF800009DF819009DF818104F
:102EA00040EA012000B2ADF802009DF81B009DF839
:102EB0001A1040EA012000B2ADF80400BDF900107C
:102EC000286808442860BDF90210686808446860F2
:102ED000BDF90410A8680844A8600AF1010000F0D8
:102EE000FF0AB24597DB3448D0F800C02868C11704
:102EF000090441EA10410704624600233846FDF701
:102F000068F932460023CDE90201FDF762F9286035
:102F10002948D0F800C06868C117090441EA104187
:102F20000704624600233846FDF753F93246002372
:102F3000CDE90201FDF74DF968601F48D0F800C0E7
:102F4000A868C117090441EA10410704624600233A
:102F50003846FDF73EF932460023CDE90201FDF780
:102F600038F9A8601448D0F804C02168C8170004D4
:102F700040EA11480F046246002338464146FDF7F7
:102F800028F932460023CDE90201FDF722F920603D
:102F90000948D0F804C06068C117090441EA10412B
:102FA0000704624600233846FDF713F93246002332
:102FB00004E0000050000020585C0008CDE9020148
:102FC000FDF707F960601148D0F804C0A068C11788
:102FD000090441EA10410704624600233846FDF720
:102FE000F8F832460023CDE90201FDF7F2F8A060BF
:102FF000A068002804DDA068A0F58030A06003E090
:10300000A06800F58030A0600020E2E5585C000870
:103010002DE9FC5F06460F4600253D4949680878C2
:1030200001AB03220D21FDF7E5FD10B10720BDE83E
:10303000FC9F9DF8040000F01F008DF804009DF82F
:10304000050000F01F008DF805009DF8060000F057
:103050001F008DF80600002456E056F8240057F8AB
:103060002410A0EB010BBBF1000F01DB594601E07E
:10307000CBF10001084602F085FB4FF08F41009034
:1030800002F04EFA814601A8005D68B32149086844
:1030900002F090FB834659461F4802F041FA8046F1
:1030A00004E01E49404602F0CDFB804601A8005DC9
:1030B000401EC0B201A908550028F2D14146484639
:1030C00002F02EFA83464FF07E5102F0C3FC824696
:1030D0002AF0004B0F488169584602F07FFC12D25B
:1030E0000120A04005430EE00A480169484602F06D
:1030F00075FB05D307484169484602F06FFC02D2D0
:103100000120A0400543641C032CA6DB28468EE763
:1031100050000020585C000800B04C4554E3853F47
:1031200010B50446204600F00FF80346E01C00F0FE
:103130000BF843EAC00083B2A01D00F005F843EA93
:10314000801083B2184610BD014691F90020002A74
:1031500001DD00201EE091F90020002A01DA0420A0
:1031600018E091F90120002A01DD012012E091F917
:103170000120002A01DA05200CE091F90220002A42
:1031800001DD022006E091F90220002A01DA062082
:1031900000E007207047000008B501210420FDF77A
:1031A000CDFF48208DF803000320ADF800008DF816
:1031B000020069460848FDF7DAFA48208DF8030056
:1031C0001020ADF8000003208DF802006946024887
:1031D000FDF7CDFA08BD00000008014010B500243D
:1031E00001211348FDF74EFB68B91420FEF746FD98
:1031F00000BF01210E48FDF745FB0028F9D014203F
:10320000FEF73CFD012402210948FDF73BFB68B9AC
:103210001420FEF733FD00BF02210548FDF732FB05
:103220000028F9D01420FEF729FD0224204610BD05
:1032300000080140FDF74CFEFEF7FEFCFFF7ACFF77
:10324000FDF77EFC0AE000F023FB04460223224641
:1032500001210846FDF7E8FE04B903E000F018FB81
:103260000028F0D100BF1AE0C6A201210420FDF71A
:1032700030FF0123C548082102680420FDF7D4FE71
:10328000FFF7ACFF0546012D05D1C0480068401C82
:10329000BE49086002E0022D00D101E000BFE3E773
:1032A00000BFFDF780FD6CE1B848006806287CD2BD
:1032B000DFE800F07B031F23D1FE19E0FFF76CFB72
:1032C0004FF07E51B248006802F088FA0BD8B1493D
:1032D000AF48006802F082FB05D8AFA2042108467F
:1032E000FDF7F7FE04E0AFA204210846FDF7F1FE6A
:1032F000E4E701E0FFF750FBFCE7ABE0AC48006817
:10330000AC490860FFF748FBAB49AC48006802F0E5
:1033100099F8A7490860FFF711FCA9490860084619
:10332000006801282FD1A2480168A248006802F075
:1033300055FB0DD29E4801689E48006802F08AFB4A
:103340000546A0480168284602F07CF89D490860BF
:10335000974801689748006802F040FA44D29448C0
:103360000168994802F076FB0646924801683046AB
:1033700002F068F8054693480168284602F062F8B2
:103380009049086030E08A4801688A48006802F085
:1033900025FA0FD2874801688548006802F05AFB79
:1033A000054688480168284600E0E9E002F047FB4E
:1033B000844908607E4801687E48006802F00EFB80
:1033C00012D27C480168804802F044FB06467848E7
:1033D0000168304602F036F805467A48016828460A
:1033E00002F02DFB774908607648006801F0FEFF87
:1033F0000546764A764B01F01FFD074601F0E2FADA
:103400007449086074A201210420FDF762FE71482E
:10341000006802F097F9054603232A460521042097
:10342000FDF702FE2E2208210420FDF7C3FD6C49A2
:103430006848006802F006FA064602F067F964215F
:1034400090FBF1F201FB120502232A460921042018
:10345000FDF7EAFD52E78BE05548006855490860E2
:10346000FFF79AFA54495F48006801F0EBFF5049B2
:103470000860FFF763FB52490860084600680128AE
:1034800031D14B4801684B48006802F0A7FA0DD2D1
:10349000474801684748006802F0DCFA0546494899
:1034A0000168284601F0CEFF46490860404800E028
:1034B0005FE001683F48006802F090F942D23C4862
:1034C0000168414802F0C6FA06463A4801683046AB
:1034D00001F0B8FF05463B480168284601F0B2FFFD
:1034E000384908602EE0324801683248006802F02E
:1034F00075F90DD22F4801682D48006802F0AAFA2C
:10350000054630480168284602F099FA2D490860BE
:10351000274801682748006802F060FA12D225485F
:103520000168294802F096FA0646214801683046AB
:1035300001F088FF054623480168284602F07FFA1B
:103540002049086020491F48006801F0E9FF05464E
:1035500002F0DCF82449086024A201210420FDF7D0
:10356000B8FD07232048062102680420FDF75CFD12
:1035700072E700201F49086001E0FFF70DFAFCE741
:1035800000BF91E66D6F64653A00000008000020FE
:103590000C000020000080BF70696E6768656E6770
:1035A00000000000627570696E6768656E670000F4
:1035B00024000020200000200000344310000020E0
:1035C00034000020280000200000B44325AFCE3195
:1035D000207BAD3F180000206469733A00000000B2
:1035E0000000C842140000201C0000207175616EAC
:1035F0003A000000880000207047000070B50446C3
:10360000002624F00104184890F8240008B1002096
:1036100070BD1548807A10B94FF0FF30F8E71248B6
:10362000057C807A2040104908740846007CA0423E
:1036300002D04FF0FF3600E0002614B90A48007DA2
:1036400018B1012001F050F902E0002001F04CF91E
:103650003CB100F0ABFC20B1034805744FF0FF30E3
:10366000D6E73046D4E70000500000202DE9F04FA7
:1036700099B004460D4616464FF07E574FF00008AD
:103680004FF000094FF0000A12A813A918AB0EAAB8
:10369000CDE9001014A916A8FEF7BEFC18B1012050
:1036A00019B0BDE8F08FBDF84C0000F48070002820
:1036B0007ED00E9802F066F883464FF09D4101F0EF
:1036C0002FFF07460F9802F05DF883464FF09D41AB
:1036D00001F026FF8046109802F054F883464FF020
:1036E0009D4101F01DFF8146119802F04BF8834681
:1036F0004FF09D4101F014FF824639464FF0804063
:1037000002F0A0F84946059002F09CF84146079067
:103710004FF0404002F096F85146059002F092F8C2
:103720000690079901F08EFE834601F05FFECDE919
:103730000801FDF747FF4FF06632544BCDE90A010F
:1037400001F07AFBCDE90C0101F03CF9206049461B
:103750004FF0804002F076F84946029002F072F88D
:10376000414604904FF0404002F06CF84146029010
:1037700002F068F80390049902F06CF983464FF068
:103780007E5101F05FFE059001F030FECDE90801A9
:1037900039464FF0804002F055F84146039002F060
:1037A00051F8494604904FF0804002F04BF800E099
:1037B00068E05146039002F045F88346049901F011
:1037C00041FE059001F012FECDE90601DDE9082376
:1037D000FEF740F94FF066322C4BCDE90A0101F0BB
:1037E0002BFBCDE90C0101F0EDF828605146504665
:1037F00002F028F849460490484602F023F8414672
:103800000390404602F01EF839460190384602F017
:1038100019F80090019901F015FE0290039902F049
:1038200019F98346049902F015F9059001F0DEFDBF
:10383000CDE908015146384602F004F849460490A3
:10384000404601F0FFFF0390049901F0FBFD4FF0AB
:103850008041059001F0F6FF834601F0C7FDCDE9F8
:103860000601DDE90823FEF7F5F84FF06632074B55
:10387000CDE90A0101F0E0FACDE90C0101F0A2F86E
:10388000306001E002200BE7002009E766A64C400B
:1038900070B50024FDF734F800F024F9002840D179
:1038A000782000F02FFFC4B20CB1012070BD782049
:1038B000FFF7A4FEC4B20CB10220F7E7642000F0C9
:1038C000D3FEC4B20CB10320F0E7FEF799FBC4B2FB
:1038D0000CB10420EAE71548FFF722FC0546FEF785
:1038E000E9FDC4B20CB10520E0E740F27310FEF729
:1038F0002FFAC4B20CB10620D8E76420FEF70AFD07
:10390000C4B20CB10720D1E700F0A4FF04460CB10B
:103910000820CBE7012000F0A3FDC4B21CB10920B0
:10392000C4E70A20C2E70020C0E700007C000020B6
:1039300001461148407A30B1012807D0022808D04A
:1039400003280CD108E0022008700BE00420087066
:1039500008E00820087005E01020087002E04FF031
:10396000FF30704700BF0448C07C18B1087840069B
:10397000000E08700020F4E75000002001461348B4
:10398000407A30B1012808D002280AD0032810D18B
:103990000BE04FF4804008800EE041F69C700880F8
:1039A0000AE04FF48050088006E04FF40060088081
:1039B00002E04FF0FF30704700BF0448C07C10B1F8
:1039C0000888401008800020F5E700005000002023
:1039D00001460248007C087000207047500000201B
:1039E00001460F48007A30B1012807D0022809D0DB
:1039F00003280FD10AE0FA2008800EE04FF4FA7095
:103A000008800AE04FF47A70088006E04FF4FA600C
:103A1000088002E00020088000BF00BF002070473F
:103A20005000002001460E48007A30B1012807D02E
:103A3000022808D003280CD108E00A4808600BE0EF
:103A40000948086008E00948086005E0084808607F
:103A500002E04FF0FF30704700BF0020FBE700009E
:103A60005000002000000343000083423333034230
:103A70003333834101461248C07A082817D2DFE861
:103A800000F01704070A0D101318BC20088013E07B
:103A90006220088010E02A2008800DE014200880B1
:103AA0000AE00A20088007E00520088004E000BF43
:103AB00000BF0020088000BF00BF0020704700004A
:103AC000500000200146064890F8240010B14FF045
:103AD000FF3070470248C08908800020F9E70000E5
:103AE000500000201CB580208DF80000654A126847
:103AF000917C644A526810786B460122FDF720F9E8
:103B000010B14FF0FF301CBD6420FEF7B7F8002065
:103B10008DF800005B4A1268917C5A4A526810780E
:103B20006B460122FDF70CF910B14FF0FF30EAE7C8
:103B3000544A1268917D534A526810786B460622A7
:103B4000FDF758F810B14FF0FF30DCE79DF80500A5
:103B5000C007400F9DF8031001F0010140EA410049
:103B60009DF8011001F0010140EA010494B1012C1B
:103B700003D101214348C17431E0022C03D100215B
:103B80004048C1742BE021463FA0FCF747FB4FF0B3
:103B9000FF30B8E73B4A1268D1783A4A5268107849
:103BA0006B460122FDF726F810B14FF0FF30AAE76F
:103BB0009DF8000000F00F042CB93D48FCF72EFBE7
:103BC0004FF0FF309FE7042C06D13AA0FCF726FB0C
:103BD00001212C48C17402E000212A48C174FF2150
:103BE00028488172FF2027490872FF212548417229
:103BF000C1724FF6FF71C181FF21017481740121EF
:103C0000017380F82210002180F82310417501759E
:103C10001630016041608160163880F8241080F809
:103C20002510C1844FF4FA6000F062FC10B14FF02F
:103C3000FF3068E7022000F02BFB10B14FF0FF309F
:103C400061E72A2000F0CEFC10B14FF0FF305AE7B8
:103C5000322000F009FD10B14FF0FF3053E7002093
:103C6000FFF7CCFC10B14FF0FF304CE7002000F024
:103C700051FB10B14FF0FF3045E7002000F042FD4E
:103C8000002040E750000020556E737570706F7211
:103C900074656420736F6674776172652070726FEB
:103CA00064756374207265762025642E0A00000016
:103CB000686F000848616C662073656E736974698B
:103CC00076697479207061727420666F756E642EE7
:103CD0000A0000002DE9F04385B005460E469046E7
:103CE0009946294890F8250020B14FF0FF3005B0E3
:103CF000BDE8F08316B94FF0FF30F8E7002423E069
:103D0000281B102801DD102000E0281B87B2321983
:103D10003946204600F05EFD10B14FF0FF30E6E777
:103D200001AA3946204600F001F910B14FF0FF30EA
:103D3000DDE730193A4601A9FCF754FB10B16FF0EA
:103D40000100D4E7E01984B2AC42D9DB4FEA282065
:103D50008DF8000008F0FF008DF801000A4A126893
:103D6000917E094A526810786B460222FCF7E8FF00
:103D700010B14FF0FF30BAE70121034880F8251059
:103D8000A0F826900020B2E75000002038B5044685
:103D9000282C02DD4FF0FF3038BDDCB9002000F0E8
:103DA000EBFB00208DF8000007208DF801002E4A63
:103DB0001268917C2C4A526810786B460222FCF7FC
:103DC000BFFF10B14FF0FF30E6E700212648017534
:103DD0000020E1E7012000F0CFFB20208DF800005B
:103DE000012C06D100208DF80100052000F0FAFB1F
:103DF00017E0052C06DC01208DF80100052000F0FD
:103E0000F1FB0EE0142C06DC02208DF801000A20E4
:103E100000F0E8FB05E003208DF80100142000F01D
:103E2000E1FB9DF80100072101EB8010C0B28DF885
:103E300001000D4A1268917C0B4A526810786B465B
:103E40000222FCF77DFF10B14FF0FF30A4E70821FC
:103E50000548817200210173012101750020FFF7DF
:103E6000CDFB002098E7000050000020F8B5044684
:103E70000F4616462C4890F8240010B94FF0FF303A
:103E8000F8BD2948807A10B94FF0FF30F8E7264A8C
:103E90001268917A244A526810786B460222FCF725
:103EA000A9FE10B14FF0FF30EAE79DF801009DF840
:103EB000001040EA0125A54203DA00203070401EC0
:103EC000DEE7194840684088B5EB600F17DD164AF9
:103ED0001268517C144A526810786B460122FCF734
:103EE00089FE10B14FF0FF30CAE79DF8000000F0E6
:103EF000100020B100F05AF86FF00100C0E7E2B204
:103F0000094B1B68D97A084B5B6818783B46FCF76D
:103F100071FE10B14FF0FF30B2E795FBF4F0401E98
:103F200030700020ACE7000050000020F8B50446D7
:103F30000D46164616B94FF0FF30F8BD1A48807A84
:103F400010B94FF0FF30F8E720128DF80000E0B212
:103F50008DF801009DF801002844134949684989FA
:103F6000884202DD4FF0FF30E7E70F4A1268117E0A
:103F70000D4A526810786B460222FCF7E1FE10B140
:103F80004FF0FF30D9E7EAB2074B1B68597D064B6B
:103F90005B6818783346FCF72DFE10B14FF0FF3008
:103FA000CBE70020C9E700005000002008B57048AA
:103FB000807A10B94FF0FF3008BD002000906C4AA5
:103FC0001268D17B6A4A526810786B460122FCF76E
:103FD000B7FE10B14FF0FF30EEE7654A1268517935
:103FE000634A526810786B460122FCF7A9FE10B1B3
:103FF0004FF0FF30E0E75E4A126811795C4A526880
:1040000010786B460122FCF79BFE10B14FF0FF3099
:10401000D2E7574890F82400002853D00C20009095
:10402000534A12681179524A526810786B4601223D
:10403000FCF786FE10B14FF0FF30BDE73220FDF7F0
:104040001DFEC02000904A48807A00F0010020B197
:104050009DF8000040F020000090454A1268117958
:10406000434A526810786B460122FCF769FE10B192
:104070004FF0FF30A0E73E48407C10B10220009096
:1040800001E0002000903A4A1268D17B384A526819
:1040900010786B460122FCF753FE10B14FF0FF3051
:1040A0008AE700200090324A12685179304A5268FB
:1040B00010786B460122FCF743FE002855D04FF0E4
:1040C000FF3079E704200090294A12681179284AC4
:1040D000526810786B460122FCF732FE10B14FF0A7
:1040E000FF3069E72248807C20B92148807A00F0BF
:1040F000010010B94020009001E0602000901C4AAF
:10410000126811791A4A526810786B460122FCF73E
:1041100017FE10B14FF0FF304EE73220FDF7AEFD35
:104120001348407C10B10120009001E00020009075
:104130000F4A1268D17B0E4A526810786B460122F2
:10414000FCF7FEFD10B14FF0FF3035E7084A12686A
:104150005179074A52681078054B10330122FCF759
:10416000EFFD10B14FF0FF3026E7002024E70000FC
:10417000500000202DE9F04F8DB083460F460220FD
:104180000C90424890F8240020B1002000F068F91B
:10419000012600E0002603A8FFF722FC05A8FFF790
:1041A000C7FB01A8FFF766FC02A8FFF78BFC3748A6
:1041B00090F80AA004A8FFF70BFC002407E00022F7
:1041C00039465846FEF7ECFC00B902E0641C022CAC
:1041D000F5DB00BF022C01D1002528E0002407E018
:1041E000012206A909A8FEF7DBFC00B902E0641C65
:1041F000022CF5DB00BF022C01D1002517E006A937
:104200003846FDF78BF900F0FF0809A95846FEF77C
:10421000FFFE00F0FF090025B9F1000F01D145F0C4
:104220000105B8F1000F01D145F0020500BFFF20E4
:1042300016490872FF2115484172C1724FF6FF718D
:10424000C181FF218172017401210173BDF80C004D
:1042500000F04EF99DF8140000F01AF8BDF80400C3
:1042600000F0C0F9BDF8080000F0FEF9504600F07B
:1042700049FA9DF81000FFF7C1F916B1012000F0CE
:10428000EFF828460DB0BDE8F08F00005000002088
:1042900038B504461E48807A10B94FF0FF3038BD5B
:1042A000022C06D0042C07D0082C08D0102C0CD1DE
:1042B00008E0002000900BE00820009008E01020AB
:1042C000009005E01820009002E04FF0FF30E6E794
:1042D00000BF0F48407A9DF80010B0EBE10F01D10C
:1042E0000020DCE70A4A1268D179094A526810783E
:1042F0006B460122FCF724FD10B14FF0FF30CEE7F2
:104300009DF80000C110024841720020C7E700007C
:104310005000002038B504465048807CA04201D1AE
:10432000002038BD002C46D04C4A126811794B4A07
:10433000526810786B460122FCF75CFC10B14FF01C
:10434000FF30EEE79DF8000020F020000090434A87
:1043500012681179414A526810786B460122FCF7C5
:10436000EFFC10B14FF0FF30DBE70320FDF786FCD8
:1043700002200090394890F8220020B19DF80000FA
:1043800040F080000090354890F8230020B19DF85F
:10439000000040F030000090304A1268117D2F4A32
:1043A000526810786B460122FCF7CAFC002851D0F5
:1043B0004FF0FF30B5E7294A12681179274A526851
:1043C00010786B460122FCF715FC10B14FF0FF305E
:1043D000A7E72248807A00F0010028B19DF800008C
:1043E00040F02000009004E09DF8000020F0200044
:1043F00000901A4A12681179184A526810786B4670
:104400000122FCF79DFC10B14FF0FF3089E703203B
:10441000FDF734FC114890F8220010B18020009084
:1044200001E0002000900D4890F8230020B19DF895
:10443000000040F030000090084A1268117D074AE1
:10444000526810786B460122FCF77AFC10B14FF0ED
:10445000FF3066E701488474002062E750000020C6
:1044600038B50446214890F82400A04201D100202C
:1044700038BD24B31D4890F8250010B94FF0FF3027
:10448000F6E7002000F030FA0020FFF743FF17495D
:10449000C88C00F0E9F800200090144949680878B9
:1044A0006B4601222321FCF74BFC01210F4880F8C9
:1044B0002410012000F018FAFFF778FD13E0002027
:1044C00000F012FA0948007C009008494968087811
:1044D0006B4601222321FCF733FC0021034880F8BE
:1044E0002410FFF763FD0020C2E700005000002009
:1044F00038B504461F48807A10B94FF0FF3038BDF8
:10450000FA2C09D0B4F5FA7F09D0B4F57A7F09D036
:10451000B4F5FA6F0CD108E0002000900BE0082001
:10452000009008E01020009005E01820009002E0C4
:104530004FF0FF30E3E700BF0E48007A9DF800100F
:10454000B0EBE10F01D10020D9E70A4A1268917956
:10455000084A526810786B460122FCF7F1FB10B153
:104560004FF0FF30CBE79DF80000C0100149087202
:104570000020C4E75000002038B50446184890F8E1
:104580002300A04201D1002038BD14B1302000909A
:1045900001E0002000901248807C20B19DF80000CE
:1045A00040F0020000900E4890F8220020B19DF8E3
:1045B000000040F080000090094A1268117D084A0E
:1045C000526810786B460122FCF7BAFB10B14FF02D
:1045D000FF30D9E7024880F823400020D4E70000EC
:1045E0005000002038B504461E48807A10B94FF0BC
:1045F000FF3038BDBC2C02DB0120009015E0622C9E
:1046000002DB0220009010E02A2C02DB0320009045
:104610000BE0142C02DB0420009006E00A2C02DBE5
:104620000520009001E0062000900E48C07A9DF819
:104630000010884201D10020DBE70A4A1268917815
:10464000084A526810786B460122FCF779FB10B1DA
:104650004FF0FF30CDE79DF800100248C1720020F6
:10466000C7E700005000002038B504462448807A8F
:1046700010B94FF0FF3038BD214890F8240010B138
:104680004FF0FF30F7E71E48007D50B134B1282CC1
:1046900004DCE0B2FFF77AFB0020ECE70020FFF734
:1046A00075FB042C01DA042404E0B4F57A7F01DD03
:1046B0004FF47A744FF47A7090FBF4F0401EC0B25D
:1046C00000900F4A126851780D4A526810786B4674
:1046D0000122FCF735FB10B14FF0FF30CBE79DF81E
:1046E0000000401C4FF47A7191FBF0F081B2044855
:1046F000C1810146C9894810FFF774FF0020BAE75D
:104700005000002038B5044604F0700010B10120BC
:10471000009005E014B10020009001E040200090DE
:104720002B4A1268917C2A4A526810786B46012203
:10473000FCF706FB20B1002125488172481E38BDD8
:104740009DF8000020F040012148017300200090F6
:1047500004F0400020B99DF8000040F004000090F3
:1047600004F0200020B99DF8000040F00200009005
:1047700004F0100020B99DF8000040F00100009006
:1047800004F0080020B99DF8000040F038000090C7
:104790000F4A1268D17C0E4A526810786B4601228B
:1047A000FCF7CEFA20B1002109488172481EC6E705
:1047B00024B1082C02D00020FFF7DEFE04488472EA
:1047C000002101753220FDF759FA0020B7E70000FB
:1047D00050000020F8B504460D46164616B94FF0B5
:1047E000FF30F8BD1A48807A10B94FF0FF30F8E773
:1047F00020128DF80000E0B28DF801009DF8010054
:104800002844134949684989884202DD4FF0FF3046
:10481000E7E70F4A1268117E0D4A526810786B461E
:104820000222FCF78DFA10B14FF0FF30D9E7EAB25F
:10483000074B1B68597D064B5B6818783346FCF7BD
:104840007FFA10B14FF0FF30CBE70020C9E700003E
:104850005000002070B588B002A905A8FFF78AFCB7
:104860000446032C3ED101A8FFF7DCF8059800F0C0
:1048700089FF0646019900F0E5FF054600F046FF76
:104880000590069800F07EFF0646019900F0DAFFD9
:10489000054600F03BFF0690079800F073FF0646C0
:1048A000019900F0CFFF054600F030FF079005A802
:1048B000FDF768FD6846FFF761F8BDF80010029843
:1048C00048430290BDF80010039848430390BDF898
:1048D000001004984843049002A8FDF783FC0020D0
:1048E00008B070BD0120FBE738B50446214890F8B8
:1048F0002400C0B114B10220009001E0002000901B
:104900001C4A1268D17B1B4A526810786B46012200
:10491000FCF716FA10B14FF0FF3038BD9DF80010CB
:104920001448417423E01348807A10B94FF0FF30E7
:10493000F3E724B10F48407C08B10020EDE714B143
:104940000120009001E0002000900A4A1268D17B0B
:10495000084A526810786B460122FCF7F1F910B151
:104960004FF0FF30D9E79DF8001002484174002055
:10497000D3E70000500000202DE9F04106460F4625
:1049800000F064FB041E0D4618BF0120284320F0F0
:104990000040C0F17F6000F1E040C00F0ED0301C3D
:1049A00018BF0120384320F00040C0F17F6000F1C3
:1049B000E040C00F04BF0120FBF7C8FD2046294698
:1049C000BDE8F08121F00042A2F16052B2F5801FF3
:1049D00001F0004328BFD2F17F6C0BD95FEA001CC5
:1049E00043EAC20242EB507018BF704728BF20F064
:1049F00001007047B2F5801FBCBF184670474FEAF0
:104A0000410C1CF5001F02D2084600F0E2BF70B551
:104A100000F0BCFA00000089FFF7F6BF4FF000403D
:104A2000A0F580007047000010B591EA030F48BF61
:104A300083F0004300F1F883841A71EB030C05D274
:104A4000121943EB0C03001B61EB0C01DFF824E1AE
:104A50004FEA1154A4EB135C1EEA430F18BF9EEA01
:104A6000445F73D023EA0E03DCF1200E21EA0451E7
:104A700043F4801332D322FA0CFE10EB0E0023FA1B
:104A80000CFE41EB0E01CCF1200E03FA0EFE10EBF2
:104A90000E0051F10001B1F5801FCCF1200E32D291
:104AA00001EB045112FA0EF2BDE8104058BF7047F6
:104AB000401C38BF5FEA420218BF7047002814BF8D
:104AC00020F0010041F100014FEA410313F5001FFE
:104AD00038BF7047A1F1C04100F0A6BA012A43EBEC
:104AE0000302ACF1200CDCF11F0E32BF4FF0000EC0
:104AF00023FA0CF310EB030041EB0451B4EB115F0C
:104B0000D0D0A1EB045101F5801149085FEA3000D3
:104B100001EB04510ED350F1000038BF12FA0EFE23
:104B200008D1BDE81040C9E7401C38BF5FEA420227
:104B3000CAD1C3E7BDE810404FEA410313F5001F97
:104B400038BF7047A1F1C04100F06EBA9EEA445FE1
:104B500008D011EA5E0FBDE8104004BF01F000412B
:104B600000207047BDE8104070B500F00FFA00BF9C
:104B700064FBBE3E0000E0FF02494FF0000000F081
:104B8000DEBF00BF0000F87F2DE9C04130B4DFF880
:104B9000A0C23CEA111418BF3CEA131400F0EC80E8
:104BA00081EA03051CEA111444EAD57418BF1CEA13
:104BB000131500F0C780A4EB05044FF0004545EA4B
:104BC000C12145EAC32341EA505143EA525304F15B
:104BD0007F74994204F500344FEAC0204FEAC222A4
:104BE00008BF904200F09C804FEA13650FF2401618
:104BF000765D4FEA134506FB05F7C7F1807706FBA4
:104C000007F74FEAD737A7FB03687642C8F5803825
:104C1000A7FB06CE38BFA8F1010807FB08E64FF056
:104C2000000EA6FB028CE6FB03CEDCF1000CCEF1FD
:104C3000004E38BFAEF1010EA6FB0C584FF0000736
:104C40004FF00005E6FB0E87A1FB08C6A0FB07CED0
:104C500016EB0E0645F10005E1FB076515F1E04E88
:104C60007EBFA4F580345FEA46066D4116F18007E9
:104C700045F100054FEA17274FEA066647EA056740
:104C8000A6F1DE46B6F1805F4FEA15251FD93846FA
:104C900024F0010C05EBC471BCF1FE6F01EB0C11AB
:104CA00002D8F0BCBDE8008124425CBF01F5801E43
:104CB0009EEAC47F02D4F0BCBDE80081244238D40F
:104CC000F0BCA1F1C041BDE8004100F0ADB94FEA30
:104CD000D22242EA43524FEAD323A7FB02864FEA8D
:104CE000D02040EA415007FB03661EEA0E0F4FEA50
:104CF000D12105FB026658BFA6EB0056B6EB005665
:104D00004FEA520E4EEAC37E18EB0E0E56EB530ED0
:104D1000BDD518EB02085E417F1C55F10005B6E7D2
:104D20004FF480154FF000074FF000064FF00008D9
:104D3000ADE7F0BC4FF0000001F1C04101F00041CF
:104D4000BDE8008111EA0C1F0CEA131500D00CE03D
:104D500013EA0C1F00F025804FF00000F0BC81EA40
:104D6000030101F00041BDE80081F0BCBDE8004155
:104D700081EA030100F058B9F0BCBDE8004170B50C
:104D800000F004F9097EFC3E00F007B881EA030157
:104D90004FF0000001F00041704781EA030100F08C
:104DA00043B9F0BCBDE800414FF000002149704715
:104DB000FFFDFBF9F7F5F4F2F0EEEDEBE9E8E6E4E0
:104DC000E3E1E0DEDDDBDAD8D7D5D4D3D1D0CFCD67
:104DD000CCCBCAC8C7C6C5C4C2C1C0BFBEBDBCBBA0
:104DE000BAB9B8B7B6B5B4B3B2B1B0AFAEADACAB9B
:104DF000AAA9A8A8A7A6A5A4A3A3A2A1A09F9F9E75
:104E00009D9C9C9B9A999998979796959594939326
:104E1000929191908F8F8E8E8D8C8C8B8B8A8989BD
:104E20008888878786858584848383828281818040
:104E30000000FF070000F87FDFF848C170B51CEAEA
:104E4000111E1EBF1CEA13159EEA0C0F95EA0C0FEB
:104E500000F06F8081EA030423EA4C134EEAD47E0B
:104E600021EA4C1141F4801143F48013AE44A1FBBC
:104E7000024CA0FB0365AEF17F7E361955EB0C05A5
:104E8000A1FB034C4CF10003A0FB021C16EB0C062B
:104E9000654153F10003094218BF46F0010613F4BF
:104EA000007F0BD14FEA03314FEA0530340341EA6A
:104EB000155140EA16506FF003020AE04FEAC32191
:104EC0004FEAC520F40241EA555140EA56506FF0CE
:104ED000020202EB2E4201EB025585EACE710AD0A6
:104EE0005FEA440C18BF24F0004450F1000041F187
:104EF000000120EAD47040F2FE7C624500D270BD11
:104F0000A84214BF4FF080444FF04044002E08BF29
:104F10000024BEF1806FA8BFA1F1C041BDE8704080
:104F200080F282804FF0000001F1C04101F00041A9
:104F300070479EEA0C0F0CEA131518BF95EA0C0F88
:104F400006D04FF0000081EA030E0EF0004170BD64
:104F500000F01CF88900013E00F007B800F009B825
:104F60004FEA430C5FEA5C5C08D081EA030100F081
:104F70005BB84FEA410C5FEA5C5CF6D14FF0000091
:104F8000014970470000FF070000F87F0EF1020E94
:104F90002EF0030E5EF8046B364205D4012A43EB73
:104FA000030515F5001F12D8012841EB010C1CF573
:104FB000001F0CD80ED14FEAD17C15F5001F0CEB69
:104FC0004C0C0CF1020C08BF4CEBD37C04E04FF00E
:104FD000080C01E04FEAD37C0CEB4C0526FA05F6F1
:104FE00006F00706B6F1040C06D20EEB860CBDE8FF
:104FF00070404CF0010C6047DFE80CF0090B020236
:105000004FF000414FF00000A1F5002170BD19469E
:105010001046012851EB010418BFD4F5001484BFD9
:10502000002001F0004170BD0808A0F500114FEA12
:105030003101704791EA030F10B581F000413FF54F
:10504000FBAC83F0004300F0EFB800002DE9F04125
:1050500001F5801CBCF5001FC0F2C3804FEA115C53
:1050600021EA0C510CF1FD0C41F480115FEA5C0C5B
:105070000CF5C07C01D3400049413DA4890241EABE
:10508000905187028E0E0A0CA45D04FB04F602FB0D
:1050900006F6C6F14046A4FB0662F60D46EA422635
:1050A00006FB06F4A4FB01235242C3F1404338BF80
:1050B0005B1EA6FB02420024E6FB0324D20B42EA5D
:1050C0004446A6FB0623A1FB02E2A3FB07E4A418C7
:1050D0004FF0000252F10002E3FB01426442C2F1D0
:1050E000404E38BFAEF1010EA6FB04234FF0000284
:1050F000E6FB0E32A2FB03464FF00004B61954F152
:105100000004E2FB0264A1FB06E6A4FB07E816EB41
:1051100008064FF0000858F10008E4FB01687642E9
:10512000C8F1405838BFA8F10108A2FB06E4A3FB70
:1051300008E52D194FF0000454F10004E2FB085477
:10514000A1FB05E6A7FB04E818EB06084FF00006F4
:1051500056F10006E1FB048618F1200556F1000621
:10516000A809A8F11B08B10908F03F08B8F10A0F17
:1051700040EA86601CD901EB0C51BDE8F08100BF0C
:10518000FCF5EEE8E2DDD8D3CFCBC7C3C0BDB9B6DE
:10519000B4B1AEACA9A7A5A3A19F9D9B9A989695E3
:1051A0009392908F8D8C8B8988878685848382816A
:1051B000A0FB006800FB01F208EB4208B8EB87286F
:1051C00007D5341858EB0104D5D5401C51F1000126
:1051D000D1E7341A78EB0104CDD4401E71F10001FF
:1051E000C9E75FEA4C0C5FEA9C5C0DD105D34FF038
:1051F000000001F00041BDE8F081BDE8F04170B56C
:10520000FFF7C4FE6DDBFFBEBDE8F0414FF00000CC
:10521000004970470000F87F10B591EA030F48BFBE
:1052200083F000433FF508AC841A71EB030C07D2FE
:1052300012198CF0004C43EB0C03001B61EB0C01CA
:10524000DFF8A4E14FEA1154A4EB135C1EEA430F0C
:1052500018BF9EEA445F00F0B08023EA6E0352421A
:1052600021EA0451C3EB6E0338BF5B1EDCF1200E54
:1052700025D322FA0CFE10EB0E0043FA0CFE41EB94
:105280000E01CCF1200E03FA0EFE10EB0E0051F1D0
:105290000001CCF1200E29D412FA0EF201EB0451D8
:1052A000BDE8104058BF7047401C1CBFB2F1004F12
:1052B000704700280CBF491C20F00100704712EB1A
:1052C000020E43EB030218BF4FF0010E4EEA4202FA
:1052D000ACF1200CDCF11E0E54D943FA0CFE10EB9D
:1052E0000E0051F1FF31CCF11E0ED5D50EF1010E9D
:1052F00012FA0EFE404141EB010101EB445C5FEA12
:105300005C5C10D910EBDE7001EB045138BFBEF1CC
:10531000004FBDE8104018BF704700280CBF491C63
:1053200020F00100704730D24FEAD42C11F5001163
:1053300024F400641BD0B1FA81F20B3AA41AA41E23
:10534000D2F12003914030FA03F31943904001EB6E
:10535000CC71002C01EB0451BDE81040A8BF704790
:1053600001F1C0414FF0000001F000417047B0FA78
:1053700080F310FA03F100D110BDE41A173C480580
:10538000C90AE4E701EB045110BD491001EB0451D7
:10539000BDE810404FEA300002E04FF000017047D6
:1053A0004A0008BF0042F8D0B2F5001F28BF70477E
:1053B00001F000414FF0000070479EEA445F07D0C3
:1053C00011EA5E0FBDE8104004BF002100207047C5
:1053D000BDE8104070B5FFF7D9FD00BF40DFF63ED5
:1053E00083F00041104670470000E0FF43004FEAA1
:1053F000D30C4FEA3C0C43401FBF40070CF16051F7
:1054000013F0FE4F70471CF0006F03D100200CF02A
:10541000004170470CF0004343EA507010B540EA79
:10542000CC0000F090FA00BF000000924FEA0001AB
:10543000FFF7FABD4FF000414FF00000A1F5002149
:105440007047000090EA010F48BF81F0004100F171
:105450000883421A3CBF801A89184FEAD0524FF095
:105460007F4C1CEA410FA2EBD15318BF9CEA026F9C
:1054700000F03B804FF0004C4CEA00204CEA012148
:1054800021FA03FC10EB0C0C1ED202F1FF325FEA92
:105490001C2040EBC25038BF70471CF07F0F4FEA12
:1054A000400C18BFBCF17F4F38BF7047C3F12003D9
:1054B000994008BF20F00100BCF17F4F38BF704712
:1054C000A0F1C04000F085BA4FEA3C00000A40EB72
:1054D000C25028BF1CF0FF0F4FEA400CE6D018BFA7
:1054E000BCF17F4F38BF7047EAE79CEA026F05D0F6
:1054F00010EA5C0F08BF00F00040704710B500F0E4
:1055000022FA00BF64FBBE3E401058BFC0F14040CD
:10551000491058BFC1F140418142EFF3008070470C
:105520004FF47F0C1CEAD0121EBF1CEAD11392EA82
:105530000C0F93EA0C0F00F0858090EA010F48BF32
:1055400042F4807240F4000C41F400002CF07F41E2
:1055500020F07F4000B58142A2EB03020FF2081C4D
:10556000ACEB504EC0F100009EF800E04FEA4E0E4A
:1055700000FB0EFC38BF49004FEA2C1C02F5FA0272
:105580000CFB0EF34FEACE1E4FEA112C4FEAC1215D
:105590000EEB635E42EB22420EFB0CFC4FEA1C5307
:1055A00000FB03114FEA112C4FEA01310EFB0CFCFA
:1055B0004FEADC4C00FB0C11C14228BF09184CEB30
:1055C00003335DF804EB10EB410143EBC250B2F53D
:1055D0007C0F38BF704729D512F0F00F1CBF00F1C7
:1055E000C04000F000407047008182838485868738
:1055F00088898B8C8D8E8F919293959697999A9C92
:105600009D9FA0A2A3A5A7A8AAACAEB0B2B3B5B700
:10561000B9BCBEC0C2C5C7C9CCCED1D4D7D9DCDFD6
:10562000E2E6E9ECF0F3F7FAFE0000004FEA400C86
:105630000CF1807CBCF17E4F28BF7047B0F1C040B8
:1056400000F0C7B990EA010F0CEAD11348BF42F449
:105650008072624538BF634507D213F47F0F16D0BE
:1056600080EA010000F00040704710B500F06BF9CF
:10567000097EFC3E00F005B880EA010000F0004021
:10568000704780EA010000F0004000F0A2B912F477
:105690007F0F04BF0248704780EA010000F099B90B
:1056A0000000C07F50EA010C00F113801CF5000FD0
:1056B00058BFBCF5000F01D48842704707D710F5DA
:1056C000000F58BF11F5000F15D48842704789426A
:1056D00070471CF5000F04D5BCF5000FF7D58142CB
:1056E00070474FF0807C1CEB400F38BF1CEB410F24
:1056F00001D28142704710B500F025F9922449008B
:105700004FF000504FF08051FFF7FEBE41000B0EEE
:10571000D3F19E0208D950F400034FEA032323FA81
:1057200002F048BF4042704710B500F00CF900BFCE
:1057300049922480002070476FF0004282EA2000E6
:1057400070470000C10DD1F19E0206DB4FEA002335
:1057500043F0004323FA02F07047004207D54FEAB6
:105760004001B1F1FE4F02D24FF00000704710B57A
:1057700000F0E9F849922480002070476FEA200089
:105780007047000010F0004148BF4042B0FA80F37B
:1057900010FA03F2C3F19D030BD051EAC35101EBA0
:1057A0001220530638BF704700F1010008BF20F0F7
:1057B00001007047B0FA80F310FA03F2C3F19D03C1
:1057C0000AD0D90501EB1220530638BF704700F10B
:1057D000010008BF20F001007047000050EA010CF2
:1057E00000F113801CF5000F58BFBCF5000F01D469
:1057F0008842704707D710F5000F58BF11F5000F0A
:1058000015D488427047894270471CF5000F04D5B3
:10581000BCF5000FF7D5814270474FF0807C1CEB40
:10582000400F38BF1CEB410F01D28142704710B5C9
:1058300000F089F8922449004FF000504FF0805159
:10584000FFF762BE4FF47F0C1CEAD0121EBF1CEAA9
:10585000D11392EA0C0F93EA0C0F00F0478090EA04
:10586000010F48BF42F480724FF0004C4CEA002018
:105870004CEA012102EB0302A0FB0113A2F5000296
:10588000002918BF43F001035B0028BF4FEA330330
:1058900042EB22425FEA132C4CEBC2502EBFBCEB12
:1058A000436FB2F57C0F70474FEA036CBCF1004FB9
:1058B00008BF20F00100B2F57C0F38BF70470BD550
:1058C00082F0FF0212F5803FC8BF704700F1C04070
:1058D000D8BF00F00040704700F5000C5FEA4C0CA8
:1058E00048BF7047B0F1C04000F073B890EA010FB4
:1058F0000CEAD11348BF42F48072624538BF634559
:1059000004D280EA010000F00040704710B500F0BA
:105910001AF800BF8900013E00F007B800F009B88E
:105920005FEA410C5FEA1C6C08D080EA010000F0DD
:1059300050B85FEA400C5FEA1C6CF6D14FF00040B3
:10594000A0F5800070470EF1020E2EF0030E5EF8F7
:10595000044B244204D44FEA4102B2F17F4F11D8E4
:105960004FEA4003B3F17F4F0CD80ED14FEAD07C01
:10597000B2F17F4F0CEB4C0C0CF1020C08BF4CEB5E
:10598000D17C04E04FF0080C01E04FEAD17C0CEB35
:105990004C0324FA03F404F00704B4F1040C06D217
:1059A0000EEB840CBDE810404CF0010C6047DFE8C2
:1059B0000CF0070802024FF00040A0F5800010BD77
:1059C0000846420018BFD2F1807288BF00F0004044
:1059D00010BDFF2141EAD050C005704751EA000CCC
:1059E00000F113801CF5000F58BFBCF5000F01D467
:1059F0008142704707D711F5000F58BF10F5000F0F
:105A000015D481427047894270471CF5000F04D5B8
:105A1000BCF5000FF7D5884270474FF0807C1CEB37
:105A2000410F38BF1CEB400F01D28842704780EA1B
:105A3000010081EA000180EA0100FFF7F8BE80F072
:105A4000004090EA010F7FF504AD81F0004100F0C5
:105A500008B8000090EA010F48BF81F000413FF50F
:105A6000F8AC421A04D882F00042A0EB02001144C4
:105A70004FEAD0524FF07F4C1CEA410FA2EBD153BA
:105A800018BF9CEA026F4AD04FF0004C4CEA00204D
:105A90004CEA012121FA03FCB0EB0C0C0FD412F0FC
:105AA000FE0F36D05FEA4C001DD5001240EBC2500D
:105AB00038BF70471CF03F0F18BF70470BE0A2F1D2
:105AC00001025FEA1C2040EBC25038BF70471CF057
:105AD0007F0F18BF7047C3F12003994014BF401EC9
