:020000040800F2
:1000000050310020E9010008E51C000895170008A0
:10001000E11C0008E51500080B22000800000000A4
:10002000000000000000000000000000651E000845
:10003000E9150008000000006D1D0008791F000888
:10004000030200080302000803020008030200087C
:10005000030200080302000803020008030200086C
:10006000030200080302000803020008030200085C
:10007000030200080302000803020008030200084C
:10008000030200080302000803020008030200083C
:10009000030200080302000803020008030200082C
:1000A000030200080302000803020008030200081C
:1000B000030200080302000803020008030200080C
:1000C00003020008030200080302000803020008FC
:1000D00003020008DD1F00080302000803020008F5
:1000E00003020008030200080302000800F002F8FF
:1000F00000F06AF80AA090E8000C82448344AAF158
:100100000107DA4501D100F05FF8AFF2090EBAE855
:100110000F0013F0010F18BFFB1A43F0010318473B
:100120002C8B00004C8B00000A444FF0000C10F8A0
:10013000013B13F0070408BF10F8014B1D1108BF65
:1001400010F8015B641E05D010F8016B641E01F805
:10015000016BF9D113F0080F1EBF10F8014BAD1C55
:100160000C1B09D16D1E58BF01F801CBFAD505E073
:1001700014F8016B01F8016B6D1EF9D59142D6D3CD
:10018000704700000023002400250026103A28BFF5
:1001900078C1FBD8520728BF30C148BF0B607047F9
:1001A000662907F0AC85642900F070800020704754
:1001B0001FB500F099FC04000020002106F04EFC61
:1001C000E0601FBD10B510BD00F0D6FD1146FFF771
:1001D000EFFF04F077F800F0F4FD03B4FFF7F2FF4F
:1001E00003BC02F098F8000009488047094800471E
:1001F000FEE7FEE7FEE7FEE7FEE7FEE7FEE7FEE7D7
:10020000FEE7FEE704480549054A064B7047000033
:100210007D1F0008ED000008502B00205031002009
:10022000502D0020502D0020704710B54C1084EA4E
:10023000530404D54042C1F1000138BF491E1B429E
:1002400004D55242C3F1000338BF5B1E00F02EF903
:1002500014F0804F04D04042C1F1000138BF491E64
:1002600014F0004F04D05242C3F1000338BF5B1EAC
:1002700010BD00000FB4044910B503AA029800F0A5
:10028000FFFB10BC5DF814FB000100202DE9F041DC
:100290000646002410687529314616A510D0AFF324
:1002A0000080002802DA404213A507E031688A077F
:1002B00001D512A502E0490704D511A5012401E0EA
:1002C000AFF3008000210A2206F1240709E0B0FB09
:1002D000F2FCB0FBF2F302FB1C00303078541846FD
:1002E000491C0028F3D123462A463046BDE8F04198
:1002F00000F05EB9000000002D0000002B0000009F
:10030000200000002DE9F05F894604464FF0000A06
:10031000DFF824B1FB44C0F820A02046E1688847FC
:1003200000287DD0252806D0D4E901219047206AF5
:10033000401C2062F1E700255F462046E1688847BF
:100340002028064607DB312E05D2B81910F8200CFC
:1003500008B10543F1E7A80701D525F00405C4F865
:100360001CA00027C4F818A02A2E09D0304601F09E
:10037000CBFF38B304EB8708303EC8F8186019E0AB
:1003800059F8041B204604EB87029161E168884715
:10039000012F064618D1E069002820DA25F0200553
:1003A0001DE0D8F8180000EB800006EB4000303864
:1003B000C8F818002046E1688847064601F0A4FF07
:1003C0000028EED1012F0AD02E2E08D12046E16858
:1003D00088477F1C0646022F45F02005C4DBA06934
:1003E000002803DA404245F00105A061E80701D08A
:1003F00025F01005A6B1A6F14100192802D8203633
:1004000045F400654A463146204625604D46FFF7D3
:10041000C7FE60B1012807D0ED1D25F0070000E000
:1004200007E000F1080978E705F1040975E73046AF
:100430007AE7206ABDE8F09F4A87000040EA01039E
:1004400010B59B070FD1042A0DD310C808C9121F7D
:100450009C42F8D020BA19BA884201D9012010BDB7
:100460004FF0FF3010BD1AB1D30703D0521C07E084
:10047000002010BD10F8013B11F8014B1B1B07D1E8
:1004800010F8013B11F8014B1B1B01D1921EF1D159
:10049000184610BD02F0FF0343EA032242EA02427B
:1004A00000F002BB704770477047704753EA020C78
:1004B00000F069802DE9F04B4FF00006002B1FBFC4
:1004C000B3FA83F503FA05F424FA05F65E4012BF89
:1004D0001643B2FA82F502FA05F4C5F120051EBFF3
:1004E00022FA05FC44EA0C04203556EA044C4FEA93
:1004F000144418BF641C4FF000084FF000099042EC
:1005000071EB030C39D3002919BFB1FA81F701FA55
:1005100007F6B0FA80F700FA07F6C7F120071EBF0A
:1005200020FA07FC46EA0C062037B6FBF4FCA7EBE2
:100530000507103F07F01F0BCBF120060CFA0BFB51
:100540002CFA06F644BFB3460026202FA4BF5E4611
:100550004FF0000B5BEA060C08BF4FF0010B19EBE4
:100560000B09ABFB027C48EB0608C01B06FB02CC68
:100570000BFB03CC71EB0C01C1E70B460246414675
:100580004846BDE8F08B13B54FF000004FF0000176
:10059000AFF30080BDE81C40704710B500F0A8FA2A
:1005A000006810BD10B5044600F0A2FA046010BD4A
:1005B0002DE9F0470D4699469246044600F124087D
:1005C0000168880604D5E06921F01001216000E08F
:1005D0000120A84201DD471B00E00027A1697A192C
:1005E00002EB0900081AA0612078C00602D4204658
:1005F000AFF30080002608E0D4E901211AF80600D4
:100600009047206A401C761C20624E45F4DB20781F
:10061000C0060AD52046AFF3008006E0D4E90121E8
:1006200030209047206A401C2062381EA7F1010745
:10063000F4DC07E0D4E9012118F805009047206AAE
:10064000401C2062281EA5F10105F3DC2046AFF313
:1006500000802078000602D50220BDE8F087012046
:10066000FBE770472DE9FF4F0C461E464FF0FF3762
:100670008BB0D2E90001DDF860800A908A46C1F3B0
:100680000A5505B93D46002108464FF00000BAF171
:10069000000F00F4400005DA00EB80004FF4400149
:1006A00001EA50004FEA9059B9F1010F00DDB94657
:1006B0000A9850EA4A000ED044F61050A5F2FF35D1
:1006C00045432F14B8F1000F1ED07542291E1EDDC0
:1006D000C9F100021CE0B8F1010F4FF0000001D099
:1006E000302103E0F24305E02154401CB042FBDB23
:1006F00030460022002121540B99C1F80880C1E93D
:1007000000200FB0BDE8F08FBD1B6D1CDEE74A4630
:1007100000DA694206A800F08DFA06AB93E80700FC
:1007200003AB83E8070050460A9900F093FB8DE87D
:100730000700A0F500501F3800900398002D0ADD37
:1007400042F21F014A460844002303A90390684669
:1007500000F0FCFD09E0A0F500504A461F380023D8
:1007600003A90390684600F006FE8DE80700000428
:10077000000C03D04FF0FF30410800E01046B8F104
:10078000000F03D00022009215461EE0751E05D40E
:1007900000F0B2F9303262556D1EF9D5B346012230
:1007A000084302D000227F1C04E02078302801D1C9
:1007B00000227F1E002A099784D01DE0112D07DA40
:1007C00000F09AF9303262556D1C50EA0102F5D101
:1007D000084302D00098C8B10EE00021681E05E071
:1007E000235C625C63542254401E491C8142F7DB47
:1007F000AB46A81B401E0990002004F80B000B9884
:10080000099AC0F80880C0E9002B7AE711264FF05A
:10081000000857E72DE9F04F88460446D21D22F024
:10082000070191B0D1E90001CDE90A0101F0EFFC27
:1008300002460B98C00F01D02D2007E020688107E9
:1008400001D52B2002E0202101EAC000032A0990F3
:1008500001D0072A05DB03464146204600F0AAF9ED
:100860000BE12078800601D5E06900E00620B8F1B0
:10087000650F814606D0B8F1660F18D0B8F1670F42
:1008800070D131E00020B9F1110F009001DB11238C
:1008900001E009F101030AAA01A90CA8FFF7E2FE91
:1008A000DDE90C70002609F10105834647E00120CF
:1008B0004B4600904FF000470AAA01A90CA8FFF789
:1008C000D1FEDDE90DB00C995D46002610B909F1A5
:1008D00001000D18B9EB050003D4C0F1FF3609F192
:1008E0000105A5EB09002BE0B9F1010F01DA4FF08A
:1008F00001090020B9F1110F0090484601DD1123D4
:1009000000E003460AAA01A90CA8FFF7ABFEDDE947
:100910000C704D4600268346207800070AD4AB456C
:1009200000DA5D4601A8012D04DD411911F8011C12
:10093000302907D04F4502DA17F1040F04DA0120FD
:1009400082460FE06D1EEEE7002F02DCED1B3E44F9
:1009500003E0781CA84200DD7D1CB81B00F1010AF1
:100960004FF000472078000703D4AA4501DB4FF081
:10097000FF3A0021B7F1004F0DF143088DF8431005
:1009800024D002202B23002F01DA7F422D230A21BD
:10099000021EA0F1010000DC5FB197FBF1FC97FBA8
:1009A000F1F201FB1C7C17460CF1300C08F801CD6C
:1009B000EEE7A8F1010003702188090501D5452162
:1009C00000E06521A0F1010800F8011C09980FA9B9
:1009D000A1EB0807FF1D00B10120411901EBEA70EE
:1009E000A1693844081A401EA0612078C00602D4CC
:1009F0002046AFF30080099828B1D4E9012190473F
:100A0000206A401C20622078C00622D52046AFF321
:100A100000801EE0002E04DBB34502DD01A8805DEE
:100A200000E03020D4E901219047206A401C206278
:100A3000761CAAF101005FEA000A0AD100F054F81E
:100A4000C0680168405CD4E901219047206A401CDD
:100A50002062281EA5F10105DCDC07E0D4E90121B4
:100A600018F8010B9047206A401C2062381EA7F13D
:100A70000107F3DC2046AFF30080032011B041E60C
:100A8000074B70B50D467B4400F081F804462846BC
:100A900000F042F910B14FF0FF3070BD204670BD3C
:100AA0009F2C00004FF000020429C0F0128010F0CB
:100AB000030C00F03781CCF1040CBCF1020F18BF1D
:100AC00000F8012BA8BF20F8022BA1EB0C0100F0CD
:100AD00029B95FEAC17C24BF00F8012B00F8012B83
:100AE00048BF00F8012B7047004870470C2B0020CE
:100AF00000487047EC2A002030B5B0F10A024FEAF6
:100B0000900E71F100034EEA817EB0EB0E0061EBB6
:100B100091014FEA101E4EEA017E10EB0E0041EBF0
:100B200011114FEA102E4EEA016E10EB0E0041EB50
:100B300011214FEA104E4EEA014E10EB0E0041EB30
:100B40001141401841F100014FEAD00040EA4170E4
:100B50004FEAD10110EB80054FEA810444EA90741A
:100B600044EB01046D1944EB0404521BA3414FF004
:100B7000000348BF0A3200D530BD401C41F10001DE
:100B800030BD000001694A1C02610878704700B559
:100B90008FB0CDE901310021059105497944CDE9B6
:100BA000031011466846FFF7ADFB0FB000BD000013
:100BB000E5FFFFFF2DE9F0411F46044603260168CB
:100BC000072A01F4006004DB08B116A505E016A5AC
:100BD00003E008B115A500E015A521F01000206084
:100BE000A069C01EA0610FB1401EA0612046AFF3F6
:100BF00000804FB1D4E9012138469047206A401C5B
:100C00002062C01C206206E0206AFAE7D4E90121D4
:100C100015F8010B9047761EF8D22046AFF30080FE
:100C2000BDE8F0814E414E006E616E00494E4600B7
:100C3000696E66002DE9F047814616468AB0354850
:100C400078440DC88DE80D0032487844801C03AC10
:100C50000DC884E80D0041F69B300844372190FB15
:100C6000F1F290FBF1F5A5F1800501FB12041B3CAC
:100C700002D56442012000E00020DFF898A0804601
:100C80000027FA44AAF1BE0A0EE0E0070AD0324675
:100C9000684607EB470101230AEB810100F06BFB7B
:100CA0008DE8070064107F1C002CEED1194F7F44A3
:100CB000AE3F19E0E80715D007EB04100DF1180A54
:100CC00090E80E008AE80E00C068F04201D1981941
:100CD00008903246012306A903A800F04CFB03ABA1
:100CE00083E807006D10641C002DE3D14FF0010371
:100CF00032466946B8F1000F03A802D000F026FB87
:100D000001E000F038FBC9E90001C9F808200AB089
:100D1000BDE8F087A07F0000007B00F080007047F6
:100D20004FF0000200B5134694469646203922BF84
:100D3000A0E80C50A0E80C50B1F12001BFF4F7AFCF
:100D4000090728BFA0E80C5048BF0CC05DF804EBB1
:100D5000890028BF40F8042B08BF704748BF20F81F
:100D6000022B11F0804F18BF00F8012B70470000D4
:100D700000487047EC2A00207546FFF7F9FFAE46A1
:100D800005006946534620F00700854618B020B597
:100D9000FFF738FABDE820404FF000064FF000079B
:100DA0004FF000084FF0000B21F00701AC46ACE813
:100DB000C009ACE8C009ACE8C009ACE8C0098D4680
:100DC000704710B50446AFF300802046BDE81040E0
:100DD000FFF703BA4FF0013C50F8042B51F8043BE5
:100DE0009A4221D1A2EB0C03934313EACC1317D1FF
:100DF00050F8042B51F8043B9A4215D1A2EB0C0396
:100E0000934313EACC130BD150F8042B51F8043B55
:100E10009A4209D1A2EB0C03934313EACC13DBD023
:100E20004FF00000704700BFD01A01BAB1FA81F14B
:100E300001F0180122FA01F0CB40C1F12001DBB230
:100E4000C0B2C01A2CFA01F3D11A914311EAC311AE
:100E5000E6D170475FEA400C08BF91F0000F4FEAFF
:100E60008C234FEAC12243EA51514FEA1C5018BF6C
:100E700000F5F0404FEA300018BF41F000415FEA52
:100E80006C5C00F02980BCF1FF3F08BF40F080405F
:100E90007047130C06BF12044FF0100C4FF0000CFB
:100EA000130E04BF12020CF1080C130F04BF120141
:100EB0000CF1040C930F04BF92000CF1020CD30F41
:100EC00004BF52000CF1010C11464FF00002A0F1DA
:100ED0001F00A0EB0C00704711F0004F08BF7047D7
:100EE00031F000413FF4D5AF0B0C06BF09044FF0C1
:100EF000100C4FF0000C0B0E04BF09020CF1080C93
:100F00000B0F04BF09010CF1040C8B0F04BF890007
:100F10000CF1020CCB0F04BF49000CF1010CCCF119
:100F20002003A0EB0C0022FA03F302FA0CF241EAD0
:100F3000030100F10100704720F07F4C80EA0300BC
:100F400023F07F47ACEB070303F57C5300F0004030
:100F500003F1FF032DE980494FEA154B09B44FEA2D
:100F6000144325EA0B4E24EA03480FF2042606EB4D
:100F7000132749083E785FEA320203FB0667C7F58C
:100F8000000707FB06F64FEA54374FEAD64606F14C
:100F9000020607FB066CCCF1005C4FEA1C472CEA0A
:100FA000074C07FB06F40CFB06F504EB15464FEA6D
:100FB000961634BF00204FF000404FEAD13706FBB1
:100FC00007FC4FEA1C4C0CFB0BF7D21B03FB0CF786
:100FD00061EB07010CFB0EF7B0EB074072EB174219
:100FE0000CFB08F734BFA2EB0742B2EB074261EB00
:100FF00017414FEA0C444FEA910706FB07FC4FEA02
:101000001C4C0CFB0BF7B0EBC74072EB573203FBE9
:101010000CF734BFA2EBC742B2EBC74261EB5731CA
:101020000CFB0EF7B0EBC70072EB57720CFB08F726
:1010300034BFA2EBC702B2EBC70261EB5771039F4B
:101040004FEA816141EA921104EBCC044FEAD137B7
:101050004FEA826206FB07FC42EA90124FEA806088
:101060004FEA1C4C0CFB0BF7D21B03FB0CF761EB9C
:1010700007010CFB0EF7B0EB074072EB17420CFBBD
:1010800008F734BFA2EB0742B2EB074261EB17410E
:101090004FEA8C554FEA910704EB9C2406FB07FCB2
:1010A0004FEA1C4C0CFB0BF7B0EBC74072EB57320E
:1010B00003FB0CF734BFA2EBC742B2EBC74261EBB4
:1010C00057310CFB0EF7B0EBC70072EB57720CFBFD
:1010D00008F734BFA2EBC702B2EBC70261EB57714E
:1010E00015EB4C254FEA816141EA92114FEA826289
:1010F0004FEAD13742EA901206FB07FC44F10004A4
:101100004FEA80604FEA1C4C0CFB0BF7D21B03FB31
:101110000CF761EB07010CFB0EF7B0EB074072EB2D
:1011200017420CFB08F734BFA2EB0742B2EB0742B1
:1011300061EB174115EB1C154FEA813141EA9241F1
:101140004FEA823242EA90424FEA80304FEA0C7610
:1011500044F1000448EA03434EEA0B484FF0000E06
:10116000B2EB080C71EB030724BF624639464EEB25
:101170000E0E4FF0000B0018524149414BEB0B0B88
:10118000B2EB080C71EB03077BF1000B24BF624646
:1011900039464EEB0E0E4FF0000B001852414941FC
:1011A0004BEB0B0BB2EB080C71EB03077BF1000B65
:1011B00024BF624639464EEB0E0E51EA020718BFB5
:1011C00046F0010616EB0E7655F1000254F10001CF
:1011D00003D5BDE88901BDE80088BDE88901BDE807
:1011E0000048B619524141EB0101A3F101037047D8
:1011F00080807F7E7D7C7B7A797877767675747354
:10120000727171706F6E6E6D6C6C6B6A6A69686812
:10121000676666656464636362616160605F5F5EA8
:101220005E5D5D5C5C5B5B5A5A595958585757561E
:101230005655555554545353525252515150505083
:101240004F4F4F4E4E4D4D4D4C4C4C4B4B4B4A4AD5
:101250004A49494948484847474747464646454519
:101260004544444444434343434242424241414152
:10127000002B9C4630D477002BD01CB54FEA3707A3
:1012800003B44FF010004FF01001BAF1000F06D078
:10129000BCF1000FDCBF40F0080040F008014FF047
:1012A00000000FBCBDE810400BF1010BBBF1010FBA
:1012B00008BF5FEA170722BF12F1010211F1010115
:1012C0004FF0004143F1000300F0004043EA00000A
:1012D0007047F9D35708D0E746EA064613F1400FA6
:1012E0004FEA16461FDD13F1200FDFBF16430A46F3
:1012F000002120335B42BED0C3F1200746EA0646F8
:1013000002FA07F74FEA164646EA0706C3F1200736
:1013100022FA03F201FA07F721FA03F14FF0000372
:1013200042EA0702A7E746EA020646EA06464FEA0D
:10133000164646EA0106BCBF46EA0646360C4FF0A2
:1013400000034FF000024FF0000194E72DE9804CBC
:101350009A46934670B491E8380007C831EA400CC9
:1013600048BF34EA430C03D5FFF7E6FDFFF780FFE3
:10137000F0BCBDE8008C2DE9804C9A46934670B4D1
:1013800091E8380007C810F0804F08BF13F0804F75
:1013900003D100F005F8FFF76BFFF0BCBDE8008C4F
:1013A00020F07F4780EA030023F07F4C07EB0C031B
:1013B000A3F57C5300F00040A3F1FE0392F0000F70
:1013C00000F0B38095F0000F00F077802DE901491F
:1013D0004FEA11404FEA144621EA004800FB06FCA0
:1013E00024EA064708FB06F607FB08F800FB07F7A8
:1013F00018EB06484CEB164C4FEA124B18EB07481B
:101400004FEA15464CEB174022EA0B4E0BFB06FC4D
:1014100025EA06470EFB06F607FB0EFE0BFB07F759
:101420001EEB064E4CEB164C4FF000061EEB074E23
:101430004CEB174B18EB0B0840F1000018EB0E0BB0
:1014400058EB000840F100008F1A4FF000013CBF3C
:10145000C943661B14BFB5EB040C00213CBFC94354
:10146000F61B4FEA17444EEA8E0E27EA04454FEA70
:101470001C4704FB07622CEA074C05FB07F70CFB33
:1014800005F604FB0CFC16EB074642EB174216EB85
:101490000C4642EB1C421BEB060658EB0202414194
:1014A00046EA9E0601D5BDE80189B619524141EBD5
:1014B0000101A3F10103BDE801894FEA14454FEA98
:1014C000114724EA054621EA074C05FB07F406FB11
:1014D00007F70CFB06F105FB0CFC11EB074144EB95
:1014E00017444FEA124711EB0C4144EB1C4422EA2B
:1014F000074C05FB07F206FB07F70CFB06F605FB9E
:101500000CFC16EB074642EB174216EB0C4642EB7F
:101510001C456A1854F1000148BF7047B619524182
:1015200041EB0101A3F10103704795F0000F37D0A3
:101530004FEA11424FEA144721EA024624EA074CD7
:1015400002FB07F106FB07F70CFB06F402FB0CFCA1
:1015500014EB074441EB17414FEA154714EB0C44D9
:1015600041EB1C4125EA074C02FB07F506FB07F798
:101570000CFB06F602FB0CFC16EB074645EB174589
:1015800016EB0C4645EB1C42121951F1000148BF05
:101590007047B619524141EB0101A3F101037047B5
:1015A0004FEA14454FEA114724EA054621EA074C61
:1015B00005FB07F106FB07F70CFB06F24FF00006F0
:1015C00005FB0CFC12EB074241EB174112EB0C42FE
:1015D00051EB1C4148BF7047921841EB0101A3F148
:1015E0000103704700BFFEE770472DE9F041024656
:1015F00000250026002000230024002791F803C0C6
:101600000CF00F0591F803C00CF0100CBCF1000FAA
:1016100003D091F802C04CEA050591F800C0BCF176
:10162000000F31D0146800202BE04FF0010C0CFAB1
:1016300000F3B1F800C00CEA03069E4220D18300FB
:101640004FF00F0C0CFA03F7BC4305FA03FC4CEA0D
:10165000040491F803C0BCF1280F06D14FF0010C2F
:101660000CFA00FCC2F814C00AE091F803C0BCF107
:10167000480F05D14FF0010C0CFA00FCC2F810C065
:10168000401C0828D1D31460B1F800C0BCF1FF0F92
:1016900034DD546800202EE000F1080C4FF0010802
:1016A00008FA0CF3B1F800C00CEA03069E4221D1FF
:1016B00083004FF00F0C0CFA03F7BC4305FA03FC50
:1016C0004CEA040491F803C0BCF1280F05D100F1E5
:1016D000080C08FA0CF8C2F8148091F803C0BCF1A9
:1016E000480F07D100F1080C4FF0010808FA0CF878
:1016F000C2F81080401C0828CED35460BDE8F081A9
:10170000F0B50A46002300240021002500F0004621
:10171000B6F1004F02D11D4EF16901E01B4E716818
:10172000C0F3034583B200F44016B6F5401F08D15C
:1017300021F07061154E766826F07066134F7E605A
:1017400012E000F48016B6F5801F06D1032606FAD3
:1017500005F4A14341F0706106E0460D360103FA3D
:1017600006F6B14341F0706122B1460D360103FA2D
:1017700006F6314300F00046B6F1004F02D1034EA9
:10178000F16101E0014E7160F0BD00000000014018
:101790000161704700BFFEE72DE9FC4104460D469C
:1017A00016466B4606223B21682000F0C3F9074627
:1017B000BFB99DF801009DF8001040EA012000B279
:1017C00020809DF803009DF8021040EA012000B23D
:1017D00028809DF805009DF8041040EA012000B221
:1017E00030803846BDE8FC8110B500200E49086005
:1017F0000E48006820F0F0000C49086008460068B8
:1018000040F03000086000200949C1F8A40100F050
:1018100011F801200449086000F00CF80020044988
:10182000C1F8A00110BD0000A0812142040C0140BC
:101830000080214210B5022001F076F910BD0000B1
:1018400008B50121082000F093FA4FF44070ADF87C
:10185000000010208DF8030003208DF80200694677
:101860000448FFF7C2FE4FF440710248FFF790FFB3
:1018700008BD0000000C014010B500200E490860B2
:101880000E48006820F0F0000C4908600846006827
:1018900040F03000086001200949C1F8A401FFF7B9
:1018A000C9FF012004490860FFF7C4FF0020044974
:1018B000C1F8A00110BD0000A0812142040C01402C
:1018C0000080214270B5054600241648006820F0CB
:1018D000F000144908600846006840F08000086085
:1018E000002614E0002010490860FFF7A3FF012044
:1018F0000E49C1F8A0016006040E0B487C38006850
:1019000008B1601CC4B2FFF795FF701CC6B2082E68
:10191000E8DB15B9FFF7B0FF01E0FFF765FF2046F0
:1019200070BD0000040C0140A081214200802142D2
:1019300070B504461248006820F0F00010490860B5
:101940000846006840F03000086000200D4908603B
:10195000002512E0E0090B49091D08606006040E2D
:1019600001200949C1F8A001FFF764FF00200549E3
:101970000860FFF75FFF681CC5B2082DEADB70BD89
:10198000040C0140A08121420080214210B50E4884
:10199000006820F0F0000C4908600846006840F03C
:1019A000300008600120094908600949C1F8A00118
:1019B000FFF740FF002005490860FFF73BFF0020CC
:1019C0000349C1F8A00110BD040C0140A4812142CB
:1019D0000080214210B50E48006820F0F0000C494C
:1019E00008600846006840F030000860002009499F
:1019F00008600949C1F8A401FFF71CFF012005494F
:101A000008600549C1F8A401FFF714FF10BD0000EC
:101A1000040C0140A08121420080214210B5002425
:101A20001448006820F0F000124908600846006879
:101A300040F08000086001200F490860FFF7FAFEBF
:101A400001200E49C1F8A001FFF7F4FE07E0601C79
:101A5000C4B2FA2C03DDFFF7BDFF012010BD06481C
:101A6000803800680028F2D10349091F086000BFD0
:101A7000F4E70000040C0140A481214200802142CF
:101A800010B5FFF7DDFE80216B2000F0D7F8642051
:101A900001F024F800216B2000F0D0F8032000F0C2
:101AA0008BF8002000F080F8322000F0AAF8002126
:101AB000382000F0C3F800216A2000F0BFF80021B0
:101AC000232000F0BBF88021372000F0B7F8752004
:101AD00000F013F80446682C0BD101216B2000F0B4
:101AE000ADF800216C2000F0A9F8322000F089F850
:101AF00001E0012010BD0020FCE770B50446FFF7AF
:101B000045FFD020FFF714FFFFF788FF2046FFF7BF
:101B10000FFFFFF783FFFFF739FFD120FFF708FF23
:101B2000FFF77CFF0020FFF7CDFE0546FFF752FFD1
:101B3000284670BD2DE9F04106460F4614461D4665
:101B4000FFF724FF002141EA4601C8B2FFF7F0FE8B
:101B5000FFF764FF20B1FFF73DFF0120BDE8F081F2
:101B60003846FFF7E5FEFFF759FFFFF70FFF0121AA
:101B700001EB4601C8B2FFF7DBFEFFF74FFF0DE0B8
:101B8000012C04D10020FFF79DFE287003E0012006
:101B9000FFF798FE2870601EC4B26D1C002CEFD1B8
:101BA000FFF718FF0020D9E710B50446E006010E44
:101BB0001C2000F043F810BD10B50446E006010EED
:101BC0001B2000F03BF810BD70B504460025BC2C6E
:101BD00001DB012510E0622C01DB02250CE02A2C40
:101BE00001DB032508E0142C01DB042504E00A2CAA
:101BF00001DB052500E0062529461A2000F01EF825
:101C000070BD70B50446B4F57A7F01DD4FF47A7487
:101C1000042C00DA04244FF47A7090FBF4F0401E98
:101C2000C5B22946192000F009F80546264604EBFE
:101C3000D671C1F34F00FFF7C7FF70BD70B5054601
:101C40000C46FFF7A3FED020FFF772FEFFF7E6FE7B
:101C500018B1FFF7BFFE012070BD2846FFF768FEF0
:101C6000FFF7DCFE2046FFF763FEFFF7D7FE18B153
:101C7000FFF7B0FE0120EFE7FFF7ACFE0020EBE737
:101C80002DE9F04105460E4617469846FFF77EFEC1
:101C9000002141EA4501C8B2FFF74AFEFFF7BEFE48
:101CA00020B1FFF797FE0120BDE8F0813046FFF735
:101CB0003FFEFFF7B3FE00240CE018F80400FFF726
:101CC00037FEFFF7ABFE18B1FFF784FE0120EBE70C
:101CD000601CC4B2BC42F0DBFFF77CFE0020E3E7EF
:101CE00000BFFEE77047000070B5002100230F22FF
:101CF000C47804B3154C246804F4E064C4F5E064CB
:101D0000210AC1F10403CA40447804FA03F184783B
:101D10001440214309010E4C0678A155047804F0C3
:101D20001F050124AC4005786D11AD0005F1E025DB
:101D3000C5F8004109E0047804F01F050124AC4017
:101D4000044D0678761145F8264070BD0CED00E094
:101D500000E400E080E100E002490143024A116032
:101D6000704700000000FA050CED00E0704700002D
:101D700029B1064A92690243044B9A6104E0034A7E
:101D800092698243014B9A61704700000010024043
:101D900030B500210022002400232D4D6D6805F090
:101DA0000C0121B1042905D0082923D105E0294DD2
:101DB000056022E0274D05601FE0254D6D6805F4A4
:101DC0007012234D6D6805F48034022505EB9242B4
:101DD0001CB9214D554305600BE01D4D6D6805F4A0
:101DE00000351DB11C4D5543056002E0194D5543AA
:101DF000056002E0174D056000BF00BF144D6D681F
:101E000005F0F0010909154D6B5C0568DD40456082
:101E10000F4D6D6805F4E061090A104D6B5C456873
:101E2000DD4085600A4D6D6805F46051C90A0B4DAF
:101E30006B5C4568DD40C560054D6D6805F440414B
:101E4000890B074D6B5CC568B5FBF3F5056130BDCB
:101E50000010024000127A0000093D000601002037
:101E600016010020704710B500F002F810BD000008
:101E70000CB50020019000903348006840F4803099
:101E80003149086000BF3048006800F4003000901D
:101E90000198401C0190009818B90198B0F5A06F06
:101EA000F1D12948006800F4003010B10120009001
:101EB00001E0002000900098012843D123480068E9
:101EC00040F01000214908600846006820F0030037
:101ED00008600846006840F0020008601A48406840
:101EE000194948600846406848600846406840F420
:101EF000806048600846406820F47C1048600846CE
:101F0000406840F4E81048600846006840F080707F
:101F1000086000BF0C48006800F000700028F9D08D
:101F20000948406820F003000749486008464068B7
:101F300040F00200486000BF0348406800F00C0019
:101F40000828F9D10CBD000000100240002002401A
:101F5000042808D14FF0E021096941F004014FF055
:101F6000E022116107E04FF0E021096921F004014E
:101F70004FF0E022116170477047000010B5134820
:101F8000006840F0010011490860084640681049A7
:101F900008400E494860084600680E4908400B4951
:101FA00008600846006820F4802008600846406801
:101FB00020F4FE0048604FF41F008860FFF753FFD5
:101FC0004FF000600449086010BD0000001002409E
:101FD0000000FFF8FFFFF6FE08ED00E010B540F24C
:101FE0002551204800F050F8002839D01D4800F055
:101FF00007F9C4B21C48008800F4004080BB1A48AE
:10200000008800F4804088B10A2C03D000201649D3
:10201000088025E01448008840F4004012490880F8
:1020200004F000FB00201049088019E00D2C06D1B7
:102030000D48008840F480400B49088010E00A48B1
:102040000088C0F30D0009490C5407480088401C63
:102050000549088008460088C72801DD002008805F
:1020600010BD00000038014004010020142A0020A7
:1020700021B1828942F40052828104E082894DF6C6
:10208000FF731A408281704770B502460024002316
:102090000025002040F66A16B14200D100BFC1F30E
:1020A000421501F01F03012606FA03F3012D02D1A8
:1020B0009689334006E0022D02D1168A334001E0B2
:1020C000968A33400C12012606FA04F4168834402E
:1020D00013B10CB1012000E0002070BDF0B5034643
:1020E000002400260025002040F66A17B94200D1DE
:1020F00000BF1846C1F3421401F01F06012707FA7A
:1021000006F5012C01D10C3004E0022C01D1103075
:1021100000E014301AB107682F43076002E0076837
:10212000AF430760F0BD00002DE9F04786B00546DB
:102130000E460024A24600BFA1460027B08900B188
:1021400000BF2F462C8A4CF6FF700440F0880443F1
:102150002C82AC894EF6F3100440B08831890843D4
:10216000718908430443AC81AC8A4FF6FF400440B8
:10217000B0890443AC8201A8FFF70AFE1F488742DA
:1021800002D1DDF810A001E0DDF80CA0A88900F470
:10219000004040B10AEBCA0000EB0A103168490068
:1021A000B0FBF1F807E00AEBCA0000EB0A10316857
:1021B0008900B0FBF1F86420B8FBF0F004012009BD
:1021C000642101FB1089A88900F4004040B132204D
:1021D00000EBC900B0FBF1F000F00700044308E099
:1021E000322000EB09106421B0FBF1F000F00F0089
:1021F00004432C8106B0BDE8F087000000380140A0
:1022000001468888C0F30800704700BFFEE7490018
:1022100050EAC12018BF04204A0D18BF40F0010049
:1022200040F2FF72B2EB515F08BF40F0020001289C
:1022300008BF052070472DE9F0414F1E00EBC70194
:102240000446D1E9000115461E4637F006020DD0BE
:102250002A46334604F09AFE7F1E04EBC703D3E9F7
:10226000002304F043FC37F00602F1D1022F25D001
:10227000042F13D0062F18BFBDE8F0812A4633463D
:1022800004F084FED4E90A2304F030FC2A463346E5
:1022900004F07CFED4E9082304F028FC2A463346E7
:1022A00004F074FED4E9062304F020FC2A463346E9
:1022B00004F06CFED4E9042304F018FC2A463346EB
:1022C00004F064FED4E9022304F010FC2A463346ED
:1022D00004F05CFED4E90023BDE8F04104F006BC44
:1022E000012205F040BD04F001BC00221346104657
:1022F000114604F0B7BC0000024A0020110705F0A7
:1023000032BD000001FDFFFF30380A2801D2012054
:1023100070470020704700BF704700002DE9FE4F56
:1023200006460F460025684601F00CFA002442E0FC
:1023300056F8240057F82410A0EB010ABAF1000F58
:1023400001DB514601E0CAF10001084605F0FAFA46
:1023500083464FF08F4105F0C3F980465DF82400B5
:10236000002105F07FFA16D05DF82410404605F0F4
:10237000B7F982464FF07E5105F04CFC814629F0BA
:10238000004A0F48416A504605F008FC12D201206D
:10239000A04005430EE00A48C169404605F0FEFA38
:1023A00005D30748016A404605F0F8FB02D2012038
:1023B000A0400543641C032CBADB2846BDE8FE8F11
:1023C000447E00082DE9F04D8D4F21F0004A86B083
:1023D00005460C46BA452ADBAAEB070028430AD07B
:1023E0008848824501DC1AD1CDB106B02846BDE847
:1023F000F04DFFF775BF844A844B284604F0C6FDB4
:1024000007460E46824A834B2846214604F0BEFD0D
:1024100006B03A463346BDE8F04D04F067BB0120F4
:10242000FEF7C0F806B0BDE8F04DFFF75EBF7A4892
:10243000824542DABAF1795F0BDA2846FFF7E7FE08
:10244000042808BFFFF758FF284606B02146BDE81C
:10245000F08D2A460B46104604F098FD834602464E
:102460006E480E460B4606217844FFF7E4FE5A46B6
:10247000334604F08BFD804669488A465A46334607
:1024800004217844FFF7D7FE5A46334604F07EFD18
:1024900000223B4604F02AFB02460B4640465146CA
:1024A00004F0E0FB2A46234604F070FD06B02A46FD
:1024B0002346BDE8F04D04F019BB284624F0004146
:1024C00000223D463B4604F095FE4FF0FF3205F0FA
:1024D0004AFC0646024653480F460B4606217844FE
:1024E000FFF7A9FE32463B4604F050FDCDE900015E
:1024F0004D4832463B4604217844FFF79CFE324665
:102500003B4604F043FD00222B4604F0EFFA8346DD
:1025100002913046394604F0D5F9804643480D46CD
:10252000504517DCDDE900015A46029B04F09AFB96
:1025300042462B4604F02AFD42462B4604F0D6FACA
:10254000012205F010FC304A304B04F045FF304AC0
:10255000304B4CE04FF0000A52460B46404604F028
:10256000C5FACDE9031052462B461046194604F031
:102570000DFD32463B4604F03DFEDDE9033204F03A
:1025800071FB06460F46DDE900015A46029B04F046
:1025900069FB8346009101223046394605F0E3FB92
:1025A000194A1A4B04F026FE06460F460122404601
:1025B000294605F0D8FB5A46009B04F0E7FC32465A
:1025C0003B4604F009FF06460F46012250462946C5
:1025D00005F0C9FB0E4DDFF858802A46434604F04B
:1025E00009FE32463B4604F005FE2A46434604F007
:1025F00001FE002CD8BF81F0004106B0BDE8F08D8F
:102600000000F03F0000F07F075C143326A6913CE9
:10261000182D4454FB21F93F0000E03F0C660000F8
:102620002266000096650000AC6500003333EF3F82
:10263000FB21E93F2DE9F84F04460D4621F000400B
:1026400000917349814211DC7249884201DC06D154
:102650002CB120462946BDE8F84FFFF741BE6E4831
:10266000002DCCBF6D496E49BDE8F88F6D498142A0
:1026700011DD6D498142D8BF4FF0FF366DDD204638
:102680002946FFF7C4FD042808BFFFF735FE2046A2
:102690002946BDE8F88F6549654F25F00045814220
:1026A00033DD6449814219DD002632464FF0804314
:1026B0002046294604F01AFA80468A46012220461E
:1026C000294605F050FB00223B4604F085FE4246B9
:1026D000534604F0C7FA04460D463EE001260022A8
:1026E000BA463B462046294604F000FA80460F468B
:1026F000002253462046294604F06EFE42463B46E1
:1027000004F0B0FA04460D4627E04B4981421BDD38
:10271000DFF828A10226002253462046294604F06D
:1027200035FC00223B4604F0E1F980460F460022CA
:1027300053462046294604F04FFE42463B4604F0ED
:1027400091FA04460D4608E0032622462B46002057
:102750003B4904F087FA04460D4622462B461046B4
:10276000194604F013FC8B46824602460B4604F0E1
:102770000DFC07460246334888460B46062178443E
:10278000FFF759FD52465B4604F000FC82462E4896
:102790008B463A46434605217844FFF74CFD3A46BE
:1027A000434604F0F3FB02460B46002E50465946C2
:1027B0000CDA04F09BF922462B4604F0E7FB01B04B
:1027C00022462B46BDE8F04F04F014BD04F08EF90C
:1027D00022462B4604F0DAFB1C4A7A4402EBC6037D
:1027E000D3E9002304F0F8FD22462B4604F0F4FD63
:1027F000174A7A4402EBC603D3E9002304F0FAFC3B
:10280000009A002AB8BF81F00041BDE8F88F0000AF
:10281000000010440000F07F182D4454FB21F93FC4
:10282000FB21F9BF0000DC3F0000203E0000F33F29
:102830000000F03F0000E63F008003400000F83F4A
:102840000000F0BFAE6300006C6300000A6300008C
:10285000D26200002DE9F04D9446CCF1000423F043
:1028600000464CEA0404524F46EAD4749A4688461D
:1028700021F00042BC4206D8454240EA050442EA43
:10288000D474BC4204D9BDE8F04D6246FFF72BBDBD
:10289000AAF14055A5F17F6555EA0C040BD002243E
:1028A00004EAAA74434DDFF810E144EAD87452EA0E
:1028B000000B04D00CE0BDE8F04DFFF7BBBE002CD0
:1028C00014BF012CBDE8F08D022C30D0032C32D087
:1028D00056EA0C0B0AD0BE4220D1BA4209D126F0EA
:1028E000804622F080423346114617E000291ADB69
:1028F00025E0DFF8C8B0FB44002C04BFDBE9000191
:10290000BDE8F08D012C02BFDBE9000181F0004140
:10291000BDE8F08D022C0AD0032C0CD0BA4212D1A3
:10292000B8F1000F0BDA23482549BDE8F08D2846A1
:102930002449BDE8F08D28467146BDE8F08D1D485C
:102940002149BDE8F08D921B12153C2AC4BF1948DD
:102950001D490EDCBAF1000FBEBF12F13C0F002082
:10296000014606DB624604F07DF921F00041FFF7E5
:1029700061FE002C08BFBDE8F08D012C04BF81F082
:102980000041BDE8F08D114A114B022C07D004F034
:1029900023FD2A46BDE8F04D0A4B04F01DBD04F0AE
:1029A0001BFD2A46BDE8F04D064B04F023BC000099
:1029B0000000F07F182D4454FB2109C0666200001E
:1029C000FB21F9BFFB210940FB21F93F075C1433D0
:1029D00026A6A13C2DE9F04104460D462946204695
:1029E00005F018F9804604F0E1FD064600220F4B81
:1029F00004F0CAFB0FD22946204605F00BF98046A9
:102A000004F0D4FD06460022094B04F083FA02D2FA
:102A10000020BDE8F0812946204605F0BFF801D22C
:102A20000120F6E74FF0FF30F3E700000000E0BFC1
:102A30000000E03F2DE9F0410446E07800F0C006D8
:102A4000E07800F03F05607800F0010098B1EF10E9
:102A50002846E91705EB5171C910A5EBC101491CC6
:102A600001F0FF080B48006820B10A48414602689F
:102A70003846904700BF607800F0080030B1054844
:102A8000406818B1B011034A516888470020BDE87A
:102A9000F0810000DC2A002010B56FF00400FFF781
:102AA00057FA0A4800680A49B0FBF1F00949087072
:102AB0000846007800EB4001C1EBC0104FF6FF71F3
:102AC00001EAC0000449088010BD0000E8000020B1
:102AD00000127A00FC000020FE0000200146114A8E
:102AE00012884A434FF0E0235A6100229A611A4645
:102AF000126942F001021A6100BF4FF0E022106932
:102B000000F001021AB100F48032002AF5D04FF033
:102B1000E022126922F001024FF0E0231A61002244
:102B20009A617047FE0000200146114A12784A431C
:102B30004FF0E0235A6100229A611A46126942F06E
:102B400001021A6100BF4FF0E022106900F001029B
:102B50001AB100F48032002AF5D04FF0E022126959
:102B600022F001024FF0E0231A6100229A617047BF
:102B7000FC00002038B5044664B120208DF8000028
:102B800028208DF8010030208DF8020038208DF8C3
:102B9000030004E0A32204216846FDF77BFC6A469B
:102BA000042140F69E2003F0E1FC03F0CBF838BD91
:102BB0003EB5044602208DF80000CA208DF80100C1
:102BC000E3208DF8020009208DF803006A460421F5
:102BD000682003F0CBFCA3208DF8000004F0400037
:102BE00048B1C0208DF80100C8208DF80200C22035
:102BF0008DF8030006E0A3208DF801008DF8020097
:102C00008DF8030004F4C07048B1C4208DF80400AE
:102C1000CC208DF80500C6208DF8060006E0A32024
:102C20008DF804008DF805008DF80600A3208DF8BE
:102C300007008DF808008DF809006A460A2140F661
:102C4000A72003F093FC04F0030018B120208DF8B6
:102C5000000002E0D8208DF800006A46012140F60D
:102C6000B62003F083FC04F0200018B1012000F02E
:102C7000ADF802E0002000F0A9F804F4C07008B339
:102C800004F4807060B1B2208DF800008B208DF8C4
:102C90000100B6208DF802009B208DF803000BE0A8
:102CA000B0208DF8000080208DF80100B4208DF850
:102CB000020090208DF803006A46042140F6A2200D
:102CC00003F054FC04F0010020B3F8208DF800005C
:102CD0006A4601214FF40B6003F048FCFA210720FB
:102CE00000F02CFC072000F0F3FB012000F013FCA7
:102CF000642000F0F3FC4FF4FA7000F002FDC821EC
:102D0000304800F0A3FB282000F0BCFB0A2000F0B4
:102D1000CCFB08E0D8208DF800006A4601214FF472
:102D20000B6003F023FC04F0020018B1D9208DF8E9
:102D3000000002E0D8208DF800006A46012140F230
:102D40003D7003F013FC04F0040018B1012000F002
:102D500069F802E0002000F065F804F0100018B1F6
:102D60000120FFF707FF02E00020FFF703FF44F018
:102D700008001549488102F0E5FF002012498873D8
:102D800004F0400018B10846807B801D887304F46D
:102D9000C07020B10C48807B801D0B49887304F003
:102DA000140020B10848807B10300749887304F074
:102DB000030020B10448807B001D03498873002074
:102DC0003EBD000009E3CA02DC2A00203EB50446ED
:102DD0006CB10EA1D1E900208968CDE900200291F3
:102DE0006A4609214FF4976003F0C0FB3EBD0AA27A
:102DF000D2E900109268CDE9010200916A460921EA
:102E00004FF4976003F0B2FBF0E70000B8AAB38D6F
:102E1000B4980D355D000000B8AAAAAAB088C3C551
:102E2000C700000038B5044664B1C0208DF800002A
:102E3000C2208DF80100C4208DF80200C6208DF854
:102E4000030004E08B2204216846FDF723FB6A4659
:102E5000042140F6982003F089FB02F073FF38BD8F
:102E600010B5C8234FF48062024940F6F63002F0F4
:102E7000FDFD10BD6C7E00082DE9F04F8DB00746BA
:102E8000884615469946DDE9166B002400203080FF
:102E90006B49887B5A4605A902F0B4FE18B1601E42
:102EA0000DB0BDE8F08F6648807A00F0140000286D
:102EB00067D09DF8140000069DF8151040EA014007
:102EC0009DF8161040EA01209DF81710084328606D
:102ED0009DF8180000069DF8191040EA01409DF881
:102EE0001A1040EA01209DF81B10084368609DF805
:102EF0001C0000069DF81D1040EA01409DF81E10C0
:102F000040EA01209DF81F100843A8609DF82000AA
:102F100000069DF8211040EA01409DF8221040EA89
:102F200001209DF823100843E86004F11000C4B2AA
:102F3000286800140190686800140290A8680014C2
:102F40000390E8680014049001984043029901FB43
:102F50000100039901FB0100049901FB010ABAF188
:102F6000706F02DBBAF1885F05DD02F0EBFE002036
:102F70003080401E94E7B6F9000040F48070308045
:102F800000BF2F48807A00F0400020B305A9601CE4
:102F9000085C095D40EA012000B2A8F8000005A91C
:102FA000E01C095C05AAA01C105C41EA002000B2EC
:102FB000A8F8020005A9601D095C201D105C41EA0B
:102FC000002000B2A8F80400A01DC4B2B6F90000A9
:102FD00040F0080030801A48408900F4C07008B3FF
:102FE00005A9601C085C095D40EA012000B2388038
:102FF00005A9E01C095C05AAA01C105C41EA0020A0
:1030000000B2788005A9601D095C201D105C41EAB2
:10301000002000B2B880A01DC4B2B6F9000040F094
:10302000700030800648807A00F0030018B105A9CE
:103030000819FFF7FFFC484601F08CFB00202FE742
:10304000DC2A002070B588B0064601A802F062FBB9
:10305000BDF804000021C90341EA5045C4034448B7
:10306000007A00F0030056F8200005904048007AEE
:1030700000F0040010B10598404205903C48007AE9
:10308000C0F3C10056F8200006903948007A00F0DD
:10309000200010B10698404206903548007AC0F3EF
:1030A000811056F8200007903148008900F48070A4
:1030B00010B10798404207900598C117A0FB042360
:1030C00001FB043100FB0510810041EA927005907C
:1030D0000698C117A0FB042301FB043100FB051077
:1030E000810041EA927006900798C117A0FB042363
:1030F00001FB043100FB0510810041EA927007904A
:103100000598000E8DF808000598000C8DF8090050
:103110000598000A8DF80A000598C0B28DF80B00DA
:103120000698000E8DF80C000698000C8DF80D0026
:103130000698000A8DF80E000698C0B28DF80F00B0
:103140000798000E8DF810000798000C8DF81100FC
:103150000798000A8DF812000798C0B28DF8130086
:1031600002AA0C214FF4257003F000FA08B070BDDC
:10317000DC2A002030B585B0044616A207CA02AB8F
:1031800007C3C82C03DD4FF0FF3005B030BDC820A9
:1031900090FBF4F0401E85B2280A8DF80000E8B2DA
:1031A0008DF801006A46022140F2162003F0DEF994
:1031B00010B14FF0FF30E8E702AA0C2140F6C12021
:1031C00003F0D4F910B14FF0FF30DEE704488481FA
:1031D0000020DAE7FEF2ABC4AAF1DFDFBBAFDFDF2E
:1031E000DC2A00201FB504464848007A00F003009E
:1031F00054F8200001904548007A00F0040010B116
:103200000198404201904148007AC0F3C10054F84F
:10321000200002903D48007A00F0200010B1029892
:10322000404202903948007AC0F3811054F82000DF
:1032300003903648008900F4807010B10398404232
:1032400003903349019880FB0101800F40EA81001F
:1032500001902F49029880FB0110820042EA917090
:1032600002902B49039880FB0110820042EA917082
:1032700003900198000E8DF800000198000C8DF865
:1032800001000198000A8DF802000198C0B28DF883
:1032900003006A4604214FF4747003F067F918B113
:1032A0004FF0FF3004B010BD0298000E8DF8000002
:1032B0000298000C8DF801000298000A8DF80200B7
:1032C0000298C0B28DF803006A4604214FF475706D
:1032D00003F04CF910B14FF0FF30E3E70398000E14
:1032E0008DF800000398000C8DF801000398000A87
:1032F0008DF802000398C0B28DF803006A460421DD
:103300004FF4767003F032F9CCE70000DC2A00209D
:1033100009E3CA0210B586B0044647A000680390CE
:1033200046A00068029046A00068019045A0006891
:10333000009004F0030003A9085C8DF8140003A8B2
:10334000C4F3C101405C8DF8150003A8C4F38111DA
:10335000405C8DF8160004F0030002A9085C8DF8AB
:10336000100002A8C4F3C101405C8DF8110002A84E
:10337000C4F38111405C8DF8120005AA032140F2CC
:10338000264003F0F3F818B14FF0FF3006B010BD3F
:1033900004AA032140F22A4003F0E8F810B14FF0EC
:1033A000FF30F3E7019805900098049004F00400C2
:1033B00058B19DF8140040F001008DF814009DF8FC
:1033C000100040F001008DF8100004F0200058B10A
:1033D0009DF8150040F001008DF815009DF81100D2
:1033E00040F001008DF8110004F4807058B19DF890
:1033F000160040F001008DF816009DF8120040F014
:1034000001008DF8120005AA03214FF4886003F033
:10341000ADF810B14FF0FF30B8E704AA032140F235
:10342000314003F0A3F810B14FF0FF30AEE706488B
:1034300004810020AAE700004CCD6C000CC92C00D0
:103440003656760026466600DC2A0020F8B505468A
:103450000E464FF47A7095FBF0F000FB06F4200E58
:103460008DF80000200C8DF80100200A8DF8020074
:10347000E0B28DF803006A4604214FF4AE7003F009
:1034800075F8F8BD38B50446052094FBF0F084B219
:1034900020128DF80000E0B28DF801006A4602218A
:1034A0004FF4AD7003F062F838BD38B5044605201E
:1034B00094FBF0F084B220128DF80000E0B28DF899
:1034C00001006A4602214FF4AC7003F04FF838BD9A
:1034D00038B504460020009004F0010020B19DF8AA
:1034E000000040F03000009004F0020020B19DF890
:1034F000000040F00C00009004F0040020B19DF8A2
:10350000000040F0030000906A4601214FF4A470CF
:1035100003F02CF838BD38B50446012C01DA01243B
:1035200002E0042C00DD0424601EC0B200906A4654
:10353000012140F24F1003F019F838BD2DE9FC4786
:1035400006460F4606F0070010B1B7F5C86F03DD59
:103550004FF0FF30BDE8FC87384604F00BFA814697
:10356000594904F0BDF88046684602F0ADF89DF870
:103570000000022806D0042816D0082826D01028DB
:1035800048D135E04FF08D41404604F03BFA81468A
:1035900004F0B8F984B24D49404604F033FA81464C
:1035A00004F0B0F985B238E04FF08C41404604F0A9
:1035B00029FA814604F0A6F984B24549404604F050
:1035C00021FA814604F09EF985B226E04FF08B4146
:1035D000404604F017FA814604F094F984B23D495C
:1035E000404604F00FFA814604F08CF985B214E0ED
:1035F0004FF08A41404604F005FA814604F082F912
:1036000084B23549404604F0FDF9814604F07AF968
:1036100085B202E04FF0FF309CE700BF20128DF82A
:103620000400E0B28DF8050028128DF80600E8B21B
:103630008DF8070006F00100A0B101AA02214FF4A5
:10364000EA7002F093FF10B14FF0FF3082E70DF106
:10365000060202214FF4927002F088FF10B14FF081
:10366000FF3077E706F00200A0B101AA02214FF473
:10367000EC7002F07BFF10B14FF0FF306AE70DF104
:10368000060202214FF4947002F070FF10B14FF067
:10369000FF305FE706F00400A0B101AA02214FF459
:1036A000EE7002F063FF10B14FF0FF3052E70DF102
:1036B000060202214FF4967002F058FF10B14FF04D
:1036C000FF3047E7002045E7000048430000404640
:1036D0000000C045000040450000C04438B5044625
:1036E000052094FBF0F085B228128DF80000E8B2B6
:1036F0008DF801006A4602214FF4EF7002F036FFA8
:1037000038BD38B50446052094FBF0F085B2281288
:103710008DF80000E8B28DF801006A4602214FF4EE
:10372000ED7002F023FF38BD00BF054A128802F099
:103730004002002AF9D0C2B2014B1B1D1A8070470B
:10374000003801407CB5054628494968087801AB36
:1037500004220D21FEF7EEF908B107207CBD9DF88B
:103760000700C0F301109DF8041001F0E00140EAE9
:10377000E1008DF800009DF80700C0F381009DF87E
:10378000051001F0E00140EAE1008DF801009DF82C
:10379000070000F003009DF8061001F0E00140EA88
:1037A000E1008DF8020000241CE01DF8040018B9A7
:1037B000002045F8240013E00D4845F8240006E0F9
:1037C00055F824000B4904F01DF945F824001DF8B4
:1037D0000400401EC0B20DF804000028F0D100BF64
:1037E000601CC4B2032CE0DB0020B7E71C01002002
:1037F0007B14AE3E1D5A843F2DE9F04F87B005463D
:103800000C46914601208DF8100000208DF8110023
:10381000FE4A1268917CFD4A5268107804AB02227D
:10382000FEF72EFA20B14FF0FF3007B0BDE8F08F61
:10383000C820FFF753F900208DF81000F34A1268F2
:10384000D17BF24A5268107804AB0122FEF718FAD5
:1038500010B14FF0FF30E8E7EC4A12685179EB4ABB
:103860005268107804AB0122FEF70AFA10B14FF04B
:10387000FF30DAE7E54A1268917CE44A5268107832
:1038800004AB0122FEF7FCF910B14FF0FF30CCE79A
:10389000DE4A1268D17DDD4A5268107804AB0122FD
:1038A000FEF7EEF910B14FF0FF30BEE7D74A1268CD
:1038B0001179D64A5268107804AB0122FEF7E0F97C
:1038C00010B14FF0FF30B0E70C208DF81000CF4A58
:1038D00012681179CD4A5268107804AB0122FEF7C4
:1038E000CFF910B14FF0FF309FE70F20FFF7F6F848
:1038F000C648806A407A8DF81000C44A12689178F0
:10390000C24A5268107804AB0122FEF7B9F910B12F
:103910004FF0FF3089E7BD48806A007A8DF81000CB
:10392000BA4A12685178B94A5268107804AB012239
:10393000FEF7A6F910B14FF0FF3076E7B9F1000FAE
:1039400007D0B248806A807A40F0E0008DF810001D
:1039500004E0AE48806A807A8DF81000AB4A1268A5
:103960009179AA4A5268107804AB0122FEF788F9CF
:1039700010B14FF0FF3058E7B9F1000F07D0A3485E
:10398000806AC07A40F0E0008DF8100003E0A048A3
:10399000C07A8DF810009D4A1268D1799B4A52680E
:1039A000107804AB0122FEF76BF910B14FF0FF3035
:1039B0003BE7B9F1000F02D0C820FFF78FF8402095
:1039C0008DF81000914A12681179904A5268107867
:1039D00004AB0122FEF754F910B14FF0FF3024E799
:1039E00078208DF81000894A12685179874A526808
:1039F000107804AB0122FEF743F910B14FF0FF300D
:103A000013E783498889FFF769F800208DF81000D3
:103A10007E4A126851797D4A5268107804AB0122BF
:103A2000FEF72EF910B14FF0FF30FEE6774A12682C
:103A3000917A764A5268107804AB0222FEF77AF83F
:103A400010B14FF0FF30F0E69DF811009DF8101016
:103A500040EA012B0C209BFBF0F0C6B20020A860CE
:103A600068602860A06060602060824665E0674A08
:103A70001268D17A654A5268107804AB0C22FEF7BE
:103A800059F810B14FF0FF30CFE69DF811009DF8C6
:103A9000101040EA012000B2ADF808009DF81300B4
:103AA0009DF8121040EA012000B2ADF80A009DF81E
:103AB00015009DF8141040EA012000B2ADF80C008A
:103AC000BDF90810206808442060BDF90A1060683C
:103AD00008446060BDF90C10A0680844A0609DF81F
:103AE00017009DF8161040EA012000B2ADF8000062
:103AF0009DF819009DF8181040EA012000B2ADF8B9
:103B000002009DF81B009DF81A1040EA012000B247
:103B1000ADF80400BDF90010286808442860BDF91C
:103B20000210686808446860BDF90410A868084479
:103B3000A8600AF1010000F0FF0AB24597DB3448A3
:103B4000D0F800C02868C117090441EA10410704F1
:103B5000624600233846FCF768FB32460023CDE975
:103B60000201FCF762FB28602948D0F800C06868B1
:103B7000C117090441EA1041070462460023384690
:103B8000FCF753FB32460023CDE90201FCF74DFB65
:103B900068601F48D0F800C0A868C117090441EA4E
:103BA00010410704624600233846FCF73EFB3246CC
:103BB0000023CDE90201FCF738FBA8601448D0F8D7
:103BC00004C02168C817000440EA11480F04624687
:103BD000002338464146FCF728FB32460023CDE956
:103BE0000201FCF722FB20600948D0F804C060689D
:103BF000C117090441EA1041070462460023384610
:103C0000FCF713FB3246002304E000001C010020F7
:103C1000447E0008CDE90201FCF707FB6060114813
:103C2000D0F804C0A068C117090441EA1041070494
:103C3000624600233846FCF7F8FA32460023CDE905
:103C40000201FCF7F2FAA060A068002804DDA06879
:103C5000A0F58030A06003E0A06800F58030A0608F
:103C60000020E2E5447E00082DE9FC5F06460F4691
:103C700000253D494968087801AB03220D21FDF775
:103C800059FF10B10720BDE8FC9F9DF8040000F02B
:103C90001F008DF804009DF8050000F01F008DF84E
:103CA00005009DF8060000F01F008DF806000024B6
:103CB00056E056F8240057F82410A0EB010BBBF196
:103CC000000F01DB594601E0CBF10001084603F08B
:103CD00039FE4FF08F41009003F002FD814601A8AC
:103CE000005D68B32149086803F044FE83465946E5
:103CF0001F4803F0F5FC804604E01E49404603F0EF
:103D000081FE804601A8005D401EC0B201A9085591
:103D10000028F2D14146484603F0E2FC83464FF0CA
:103D20007E5103F077FF82462AF0004B0F488169ED
:103D3000584603F033FF12D20120A04005430EE0A5
:103D40000A480169484603F029FE05D3074841693E
:103D5000484603F023FF02D20120A0400543641C23
:103D6000032CA6DB28468EE71C010020447E0008B9
:103D700000B04C4554E3853F00200CE0002107E0F3
:103D800001EB8002FE4B03EB001343F82120491C9A
:103D90000429F5DB401C0428F0DB0522F94B1A60EE
:103DA00001225A6004229A600023F64AD36001225D
:103DB000F44B1A610323F34A53610322F14B9A61D6
:103DC0000223F04AD3610422EE4B1A620123ED4A2A
:103DD0005362052393620023D36203231363536367
:103DE000012393630223D3630322E64B1A64012366
:103DF000E44A536493640023D364052313650323C7
:103E00005365042393650223D3650122DD4B1A66B3
:103E10000123DC4A5366032393660023D3660423FD
:103E2000136703235367052393670223D367002295
:103E3000D44BC3F880200223D24AC2F88430C2F89F
:103E40008830C2F88C300523C2F890300023C2F8C5
:103E500094300423C2F898300023C2F89C30022327
:103E6000C2F8A0300123C2F8A4300023C2F8A83061
:103E70000323C2F8AC300423C2F8B0300123C2F8E7
:103E8000B4300523C2F8B8300123C2F8BC30042393
:103E9000C2F8C0300223C2F8C4300523C2F8C830CB
:103EA0000223C2F8CC300023C2F8D0300123C2F87C
:103EB000D4300223C2F8D8300123C2F8DC30052305
:103EC000C2F8E0300323C2F8E4300423C2F8E8303B
:103ED0000323C2F8EC300223C2F8F0300023C2F80A
:103EE000F430C2F8F830C2F8FC300522A54BC3F814
:103EF00000210023A34AC2F804310423C2F8083188
:103F00000123C2F80C310323C2F810310223C2F896
:103F100014310123C2F818310323C2F81C310423E1
:103F2000C2F820310023C2F824310523C2F8283119
:103F30000123C2F82C31C2F830310223C2F83431E7
:103F40000323C2F83831C2F83C310123C2F84031B2
:103F50000023C2F844310323C2F848310123C2F8D8
:103F60004C310523C2F850310223C2F854310423E6
:103F7000C2F858310323C2F85C310523C2F860311E
:103F80000223C2F864310123C2F86831C2F86C31EF
:103F90000423C2F870310223C2F874310523C2F839
:103FA00078310323C2F87C310022764BC3F880219C
:103FB0000323744AC2F884310223C2F888310323F0
:103FC000C2F88C310423C2F890310023C2F8943136
:103FD0000523C2F898310023C2F89C310223C2F8AD
:103FE000A031C2F8A4310023C2F8A8310223C2F8DC
:103FF000AC310523C2F8B0310123C2F8B431042337
:10400000C2F8B8310123C2F8BC310523C2F8C0316F
:104010000223C2F8C4310423C2F8C8310223C2F813
:10402000CC310023C2F8D031C2F8D4310223C2F817
:10403000D8310023C2F8DC310423C2F8E031032375
:10404000C2F8E4310523C2F8E8310323C2F8EC31A9
:104050000223C2F8F0310123C2F8F4310023C2F880
:10406000F8310123C2F8FC310022464BC3F800228C
:104070000023444AC2F804320223C2F80832012362
:10408000C2F80C32C2F810320023C2F814320323F3
:10409000C2F818320023C2F81C320223C2F82032C0
:1040A0000023C2F82432C2F828320123C2F82C328D
:1040B0000323C2F830320123C2F83432C2F8383256
:1040C000C2F83C320323C2F840320223C2F8443221
:1040D0000123C2F848320223C2F84C320023C2F84E
:1040E00050320223C2F85432C2F858320323C2F8C5
:1040F0005C320123C2F860320323C2F86432C2F892
:104100006832C2F86C320223C2F87032C2F87432DC
:104110000023C2F878320323C2F87C320022194B04
:10412000C3F880220123174AC2F884320223C2F85E
:1041300088320023C2F88C320323C2F89032002365
:10414000C2F894320123C2F898320023C2F89C329C
:104150000223C2F8A0320123C2F8A4320023C2F81D
:10416000A832C2F8AC320123C2F8B032C2F8B4327D
:104170000323C2F8B8320123C2F8BC3204E00000C5
:10418000D4290020D4260020C2F8C0320223C2F86D
:10419000C4320323C2F8C8320223C2F8CC3200234F
:1041A000C2F8D0320323C2F8D4320223C2F8D83284
:1041B000C2F8DC320323C2F8E032C2F8E432012351
:1041C000C2F8E8320323C2F8EC320223C2F8F0321C
:1041D0000323C2F8F4320023C2F8F8320223C2F8F3
:1041E000FC32704710B50446204600F00FF8034635
:1041F000E01C00F00BF843EAC00083B2A01D00F001
:1042000005F843EA801083B2184610BD014691F9C3
:104210000020002A01DD00201EE091F90020002A84
:1042200001DA042018E091F90120002A01DD0120C3
:1042300012E091F90120002A01DA05200CE091F941
:104240000220002A01DD022006E091F90220002A66
:1042500001DA062000E00720704770B505460C46DD
:10426000604203F06FFB0646294603F097FB09D234
:10427000204603F067FB0646294603F08FFC01D277
:10428000012070BD0020FCE708B501211020FDF7DA
:104290006FFD01210948FDF733FA4FF40050ADF8E6
:1042A000000010208DF8030069460548FDF79DF9D0
:1042B0004FF400510248FDF76BFA08BD00023000D0
:1042C0000010014086B00024002500260027A046EB
:1042D0004FF4A060FDF740FDFEF7DEFB4FF41650F3
:1042E00002F06CFBA2A0FBF7C5FFFDF7C9FB01F0D4
:1042F0009BF902E0A1A0FBF7BDFF01F095F90028B2
:10430000F8D1A4A0FBF7B6FFFFF7BEFF2EE1A74848
:104310000068401CA549086003AA04A905A800F08C
:10432000F9FF00B122E16A4601A902A8FDF734FABB
:104330009F480068012877D19C48006840F6B83152
:10434000884206DD0024002500260027002097492A
:104350000860CCB9C5B9BEB9B7B99649059803F09C
:104360001DFB0ED39349049803F018FB09D392491F
:10437000059803F013FC04D38F49049803F00EFC56
:1043800002D20020894908608A49059803F006FB9B
:1043900000D2641C8849059803F000FC00D26D1C13
:1043A0008449049803F0FAFA00D2761C82490498F2
:1043B00003F0F4FB00D27F1C142C01DB142D03DA74
:1043C000142E12DB142F10DB7C48006808B9012082
:1043D00000E000207949086000240025002600271D
:1043E0004FF001080020714908607448006858B90E
:1043F000B8F1000F07D072A0FBF73CFF00240025A6
:1044000000260027A046B1E0B8F1000F0CD070A044
:10441000FBF730FF002071490860714908600024F3
:1044200000250026002780466E496C4A05981268D0
:1044300001EB021108606B49684A0498126801EBAD
:10444000021148606749654A0398126801EB02113E
:10445000886062480068C730C82190FBF1F201FB18
:104460001200604901EB00105C4AD0F8009012681D
:1044700001EB02110868494603F0CCFB5A49574A40
:10448000126801EB0211086054480068C730C82167
:1044900090FBF1F201FB1200524901EB00104F4A70
:1044A000D0F80490126801EB02114868494603F005
:1044B000B1FB4D49494A126801EB02114860474877
:1044C0000068C730C82190FBF1F201FB120045499A
:1044D00001EB0010414AD0F80890126801EB02117C
:1044E0008868494603F096FB3F493C4A126801EB55
:1044F0000211886039480068401C38490860084645
:104500000068C82190FBF1F201FB120033490860FA
:1045100033480068C82804DA31480068401C304934
:1045200008602F480068C82800DA1FE020480068AB
:10453000022806D0032807D0042808D0052813D164
:1045400008E000F009F90FE000F0AAF90CE000F033
:10455000BFFA09E025480068012802D100F09EFB5F
:1045600001E000F06BFD00BF00BF00BFCFE6000020
:104570006868686868210D0A000000006D70755F4A
:10458000646D705F696E6974206572726F72210D5F
:104590000A0000006D70755F646D705F696E69740C
:1045A0002073756363657373210D0A00800000201A
:1045B00004000020000048C2000048420000002023
:1045C000706F776572206F6666210D0A000000002B
:1045D000706F776572206F6E210D0A0078000020E1
:1045E0007C00002054010020D40D0020A4000020F5
:1045F0002DE9F05F0746894690464FF0070A0024F0
:1046000000259DE0514800EB0510047B264604EB95
:10461000D6704010A4EB4000012826D14B4800EB97
:1046200005100168384603F0EAFA83465146FFF761
:1046300014FED0B9454901EB0511086801F0D6FF19
:104640000646434903F0AAFA0ED2404800EB051093
:10465000006880F0004B3946584603F0DBFA064606
:104660005146FFF7FAFD00B969E0204604EBD0712E
:104670004C10E01704EB90708010A4EB8000012830
:1046800026D1324901EB05114868494603F0C2FAC8
:1046900083465146FFF7E1FDD0B92C4901EB0511E6
:1046A000486801F0A3FF0646294903F077FA0ED2C5
:1046B000264800EB0510406880F0004B49465846FC
:1046C00003F0A8FA06465146FFF7C7FD00B936E0E9
:1046D0002046E11704EB91718C10E01704EB507049
:1046E000C010A4EBC000012826D1184901EB051128
:1046F0008868414603F08EFA83465146FFF7ADFDC8
:10470000D0B9124901EB0511886801F06FFF064628
:104710000F4903F043FA0ED20C4800EB05108068F5
:1047200080F0004B4146584603F074FA0646514665
:10473000FFF793FD00B902E0681CBDE8F09F6D1C17
:10474000062DFFF65FAF0020F7E70000080000200D
:1047500000002D43704700002DE9FF5F002003900B
:1047600002900021084602F0D3F808B1BDE8FF9F8F
:1047700043480068C530C82190FBF1F201FB1200EC
:10478000404901EB0010D0F800903D480068C63069
:10479000C82190FBF1F201FB12003A4901EB001035
:1047A0000068019036480068C730C82190FBF1F2DC
:1047B00001FB1200334901EB0010D0F800B058465D
:1047C000019902F01FFF8246494602F01BFF044692
:1047D00002F0ECFE074600222B4B02F043FA05469E
:1047E00002F052F9029026480068C530C82190FBBB
:1047F000F1F201FB1200234901EB0010D0F8049004
:104800001F480068C630C82190FBF1F201FB12007E
:104810001C4901EB00104068019019480068C7303E
:10482000C82190FBF1F201FB1200164901EB0010C8
:10483000D0F804B05846019902F0E4FE8246494699
:1048400002F0E0FE044602F0B1FE074600220E4BE5
:1048500002F008FA054602F017F90390029802F0F8
:10486000A5FE04460D46039802F0A0FE0646324619
:104870000B4606A0CDE90045FBF7FCFC00BF75E741
:10488000780000205401002000000840783A252ECE
:104890003266202020793A252E32660D0A0000006B
:1048A0002DE9F04F87B00020069000248146059046
:1048B0000021084602F02CF810B107B0BDE8F08FD7
:1048C0006B480068C530C82190FBF1F201FB120073
:1048D000684901EB0010D0F800B065480068C630A8
:1048E000C82190FBF1F201FB1200624901EB0010BC
:1048F000006803905E480068C730C82190FBF1F261
:1049000001FB12005B4901EB001000680290039963
:1049100002F078FE5946049002F074FE824602F0DE
:1049200045FE07460022544B02F09CF9054602F072
:10493000ABF806904E480068C530C82190FBF1F2F4
:1049400001FB12004B4901EB0010D0F804B04848BD
:104950000068C630C82190FBF1F201FB1201454806
:1049600000EB01104068039041480068C730C8213F
:1049700090FBF1F201FB12003E4901EB0010406890
:104980000290039902F03EFE5946049002F03AFE6E
:10499000824602F00BFE05460022374B02F062F918
:1049A000074602F071F8044631480068C530C82156
:1049B00090FBF1F201FB12002E4901EB0010806820
:1049C00001902B480068C630C82190FBF1F201FB32
:1049D0001200284901EB0010D0F808A02448006814
:1049E000C730C82190FBF1F201FB1200214901EB15
:1049F00000105146D0F808B0584602F003FE804639
:104A0000019902F0FFFD054602F0D0FD06460022A6
:104A1000194B02F027F9CDE9020102F035F8814681
:104A20004A4621460698FFF7E3FD0590D0B913A04A
:104A3000FBF720FC484602F0B9FD05460E4620462D
:104A400002F0B4FD07468846069802F0AFFD8246A4
:104A500052460B4611A0CDE90078CDE90256FBF78E
:104A600009FC2AE715A00599FBF704FC00BF24E721
:104A70007800002054010020000008406E6F206D77
:104A800061746368206F6E2C20706C6561736520A3
:104A9000636865636B210D0A000000007469703A59
:104AA000783A252E3266202020793A252E3266204B
:104AB00020207A3A252E32660D0A00007371756146
:104AC000726520736964652069732025640D0A008E
:104AD0002DE9F04F95B0002400201490139000268B
:104AE00000278046834612901190DFF87C915F4842
:104AF00010904FF0000A00200E900F900C900D9037
:104B00005B4B0FCB08AD0FC5594B1033D3E90012E7
:104B1000D3E90203CDE90603CDE904120020029097
:104B20000390FFF729F99DE052480068042802D05D
:104B300015B0BDE8F08FDFF830914C4810904E4A28
:104B40004E494F4800F0E6FB59464D48006803F0D7
:104B500061F8019001F04AFD064649463046FDF7EE
:104B600039FF002800DDB14644481299006803F07F
:104B700051F8019001F03AFD074649463846FDF7E5
:104B800029FF002800DDB9463B481199006803F071
:104B900041F8019001F02AFD804649464046FDF764
:104BA00019FF002800DDC1463548D0F800B0334871
:104BB000006812903048006811903249484602F06F
:104BC000EDFF02D84FF0000A01E00AF1010ABAF144
:104BD000320F46DB4FF0000A274802682748016879
:104BE00027480068FFF704FD05460E99A94200D149
:104BF00038E000242EE024490E9801EBC0100F99F4
:104C000000EB411050F83400A84222D10C951E4907
:104C10000E9801EBC0100F9900EB411000EBC4009F
:104C200040680D9008A951F8241002980844029099
:104C300004A951F82410039808440390134A0298D9
:104C400002EB0010039A50F8221011A0FBF712FBA0
:104C500002E0641C042CCEDB00BFDDE90C01CDE9D1
:104C60000E0100BF60E70000000080BF0080B44379
:104C7000FC7D000804000020980000209400002023
:104C8000900000200000A040D4260020D42900205D
:104C9000706F733A2025640D0A0000002DE9F04F73
:104CA00087B00025002649F2704B4AF6C870039081
:104CB000C8274FF000084FF0000A681E02900190CC
:104CC00004AA05A906A8FCF767FDBDF91800BD49AF
:104CD000B1F90010401A794288427DDBBDF9180015
:104CE000B849B1F90010401AB84275DCBDF914009A
:104CF000B549B1F90010401A79428842EDDBBDF99F
:104D00001400B149B1F90010401AB842EDDCAF48C7
:104D10000068AF4909684518AE480068AE4909689F
:104D200046185D4503DCCBF10000A84279DD002D7B
:104D300005DAAA480068401EA849086004E0A748B0
:104D40000068401CA5490860002D03DAA4A0FBF709
:104D500091FA02E0A4A0FBF78DFAA04800680028B1
:104D60000CDDA3480068002808DD032001909B4863
:104D7000D0F800809E480068C0F1030A9748006898
:104D800000280CDD9A480068002808DA002001900D
:104D90009248D0F8008096480068C0F1000A8F4819
:104DA000006800280DDA92480068002809DD0F200D
:104DB00001908A48006800F103088D480068C0F13E
:104DC000030A8648006800280FDA8948006800282E
:104DD0000BDA0C20019000E0ADE08048006800F1A3
:104DE000030883480068C0F1000A0AEB88000290BB
:104DF00080A00199FBF73EFA5346424681A00299F2
:104E0000FBF738FA002409E04FF0000902E008E05F
:104E100009F10109B9F1640FFADB641C804884428E
:104E2000F2DB0398864203DC03984042B04275DD12
:104E3000002E05DA6E480068401E6D49086004E0E7
:104E40006B480068401C6A490860002E03DA75A0B0
:104E5000FBF710FA02E075A0FBF70CFA5F48006858
:104E600000280CDD62480068002808DD032001905E
:104E70005A48D0F800805E480068C0F1030A5748DD
:104E8000006800280BDD5A480068002807DA002077
:104E900001905248D0F800805548D0F800A04F4803
:104EA000006800280DDA52480068002809DD0F204C
:104EB00001904A480068C0F103084D480068C0F1FD
:104EC000030A4648006800280CDA494800680028B0
:104ED00008DA0C20019041480068C0F103084448FA
:104EE000D0F800A008EB48005044029041A001997E
:104EF000FBF7C0F95346424642A00299FBF7BAF9C4
:104F0000002408E04FF0000901E009F10109B9F1BE
:104F1000640FFADB641C42488442F3DB00204549FD
:104F200008604549086029490860294908602949FD
:104F3000086029490860BDF8180022490988401A0C
:104F400000B20690BDF814001F490988401A00B24B
:104F5000059038480068BDF91810084435490860C4
:104F600035480068BDF914100844334908601748F3
:104F7000006830490968884203DA2E4800681349FE
:104F80000860134800682B490968884203DD2948F6
:104F900000680F4908600F4800682749096888427F
:104FA00003DA254800680B4908600B48006822496D
:104FB0000968884203DD204800680749086007B097
:104FC000BDE8F08FA8000020AA000020C00000204B
:104FD000C4000020C8000020CC0000209C0000205D
:104FE00075700D0A00000000646F776E0D0A0000F6
:104FF000A0000020656E645F706F696E743A25646E
:105000000D0A0000626567696E5F706F696E743AC1
:1050100025642020202025642025640D0A0D0A0027
:10502000401901006C6566740D0A000072696768BA
:10503000740D0A00B8000020BC0000202DE9F04FDC
:1050400085B04FF00008C14649F2880B4AF6C87097
:105050000190C8264FF0FF3000900446824602AA15
:1050600003A904A8FCF798FBBDF910007349B1F936
:105070000010401A714288427BDBBDF910006F4975
:10508000B1F90010401AB04273DCBDF90C006C4954
:10509000B1F90010401A71428842EDDBBDF90C00F5
:1050A0006749B1F90010401AB0427FDC65480068DA
:1050B0006549096800EB01086448006864490968AB
:1050C00000EB0109D84503DCCBF1000040452CDDA5
:1050D000B8F1000F05DA5F480068401E5D490860BE
:1050E00004E05C480068401C5A4908605A4800685F
:1050F0005849096844185948006859490968A0EB9B
:10510000010A0AEB840000905346224655A00099FC
:10511000FBF7B0F8002505E0002700E07F1C642FB6
:10512000FCDB6D1C57488542F6DB0198814503DCAA
:105130000198404248452CDDB9F1000F05DA484896
:105140000068401E4649086004E045480068401C6D
:1051500043490860404800683E49096844183F4890
:1051600000683F490968A0EB010A0AEB840000903F
:1051700000E01BE044A00099FBF77CF8002505E067
:10518000002700E07F1C642FFCDB6D1C3D4885423E
:10519000F6DB002041490860414908602949086060
:1051A000294908602949086029490860BDF81000AC
:1051B00022490988401A00B20490BDF80C00204929
:1051C0000988401A00B2039034480068BDF91010F5
:1051D00008443249086032480068BDF90C100844A0
:1051E0002F490860174800682C490968884203DA8B
:1051F0002A4800681349086013480068274909686D
:10520000884203DD254800680F4908600F480068A0
:1052100023490968884203DA214800680B4908607D
:105220000B4800681E490968884203DD1C48006875
:105230000749086005B0BDE8F08F0000A800002015
:10524000AA000020D8000020DC000020E0000020A0
:10525000E40000209C000020B0000020B4000020EA
:10526000A0000020626567696E5F706F696E743AB6
:10527000256420202020256420202025640D0A0D8F
:105280000A00000040190100626567696E5F706F77
:10529000696E743A25640D0A0D0A0000D0000020E2
:1052A000D400002070B50446002624F001041848FC
:1052B00090F8240008B1002070BD1548807A10B91C
:1052C0004FF0FF30F8E71248057C807A2040104903
:1052D00008740846007CA04202D04FF0FF3600E080
:1052E000002614B90A48007D18B1012001F0A2FA85
:1052F00002E0002001F09EFA3CB100F023FD20B155
:10530000034805744FF0FF30D6E73046D4E700007D
:105310001C0100202DE9F04F9FB004460D461646B3
:105320004FF07E574FF000084FF000094FF0000A91
:1053300018A819A91EAB14AACDE900101AA91CA817
:10534000FDF79AFD18B101201FB0BDE8F08FBDF840
:10535000640000F4807000287ED0149802F0F2FA05
:1053600083464FF09D4102F0BBF90746159802F0C5
:10537000E9FA83464FF09D4102F0B2F98046169853
:1053800002F0E0FA83464FF09D4102F0A9F9814610
:10539000179802F0D7FA83464FF09D4102F0A0F92A
:1053A000824649464FF0804002F02CFB4946089067
:1053B00002F028FB41460A904FF0404002F022FBE9
:1053C0004146089002F01EFB09900A9902F022FC67
:1053D0004FF07E510B9002F015F9834602F0E6F88B
:1053E000CDE90E0139464FF0804002F00BFB4146FB
:1053F000099002F007FB834649464FF0804002F0D7
:1054000001FB5146099002F0FDFA59460A9002F05C
:10541000F9F80B9002F0CAF8CDE90C01DDE90E2392
:10542000FDF718FA4FF066327C4BCDE9100101F020
:10543000ADFDCDE9120101F027FB2860286820F0BE
:10544000004B584602F0B2F80022754BCDE912012C
:1054500001F060FD2CD200E0DCE039464FF08040E6
:1054600002F0D0FA49460B9002F0CCFA834641464E
:105470004FF0404002F0C6FA51460B9002F0C2FADB
:1054800059460C9002F0BEF80D9002F08FF8CDE96D
:105490000E01FCF797FF4FF06632604BCDE910012B
:1054A00001F074FDCDE9120101F0EEFA206065E033
:1054B00039464FF0804002F0A5FA4946019002F0CB
:1054C000A1FA414603904FF0404002F09BFA51464A
:1054D000019002F097FA0290039902F093F8834644
:1054E00002F064F8CDE90401FCF76CFF4FF066327E
:1054F0004A4BCDE9060101F049FDCDE9080101F073
:10550000C3FA0A9001F07EF80B9002F04FF80022E7
:10551000444BCDE90C0101F06DFECDE9100151467F
:10552000404602F06FFA49460B90384602F06AFA9C
:105530000A900B9902F06EFB51460D90404602F026
:1055400061FA49460B90384602F05CFA0A900B99D2
:1055500002F060FB20F000400C900D9902F0C0F8C2
:10556000834602F023F8CDE90E01DDE9102301F0B6
:105570000DFDCDE9120101F087FA20605146504639
:1055800002F040FA49460A90484602F03BFA41468A
:105590000990404602F036FA39460790384602F044
:1055A00031FA0690079902F02DF80890099902F057
:1055B00031FB83460A9902F02DFB0B9001F0F6FFB8
:1055C000CDE90E015146384602F01CFA49460A90D0
:1055D000404602F017FA09900A9902F013F84FF0CA
:1055E00080410B9002F00EFA834601F0DFFFCDE917
:1055F0000C01DDE90E23FDF72DF94FF06632074B64
:10560000CDE9100101F0C2FCCDE9120101F03CFA34
:10561000306001E0022097E6002095E666A64C4047
:10562000008056400080664070B50024FCF708F901
:1056300000F024F9002840D1782000F02FFFC4B2F8
:105640000CB1012070BD7820FFF72CFEC4B20CB164
:105650000220F7E7642000F0D3FEC4B20CB10320AF
:10566000F0E7FDF7FDFBC4B20CB10420EAE71548F2
:10567000FEF7B8FD0546FDF74DFEC4B20CB105209E
:10568000E0E740F27310FDF793FAC4B20CB10620C4
:10569000D8E76420FDF76EFDC4B20CB10720D1E756
:1056A00001F07EF804460CB10820CBE7012000F0A1
:1056B000A3FDC4B21CB10920C4E70A20C2E7002040
:1056C000C0E700004801002001461148407A30B18F
:1056D000012807D0022808D003280CD108E00220B6
:1056E00008700BE00420087008E00820087005E04E
:1056F0001020087002E04FF0FF30704700BF0448F0
:10570000C07C18B108784006000E08700020F4E74D
:105710001C01002001461348407A30B1012808D00E
:1057200002280AD0032810D10BE04FF480400880F3
:105730000EE041F69C7008800AE04FF4805008802B
:1057400006E04FF40060088002E04FF0FF30704741
:1057500000BF0448C07C10B10888401008800020B9
:10576000F5E700001C01002001460248007C08709B
:10577000002070471C01002001460F48007A30B11C
:10578000012807D0022809D003280FD10AE0FA2007
:1057900008800EE04FF4FA7008800AE04FF47A7047
:1057A000088006E04FF4FA60088002E000200880DC
:1057B00000BF00BF002070471C01002001460E48BA
:1057C000007A30B1012807D0022808D003280CD174
:1057D00008E00A4808600BE00948086008E009484A
:1057E000086005E00848086002E04FF0FF307047AD
:1057F00000BF0020FBE700001C0100200000034365
:10580000000083423333034233338341014612485D
:10581000C07A082817D2DFE800F01704070A0D1035
:105820001318BC20088013E06220088010E02A20B2
:1058300008800DE0142008800AE00A20088007E0B4
:105840000520088004E000BF00BF0020088000BFE2
:1058500000BF0020704700001C01002001460648E0
:1058600090F8240010B14FF0FF3070470248C08913
:1058700008800020F9E700001C0100201CB58020F2
:105880008DF80000654A1268917C644A526810786D
:105890006B460122FCF7F4F910B14FF0FF301CBD4C
:1058A0006420FDF71BF900208DF800005B4A1268A8
:1058B000917C5A4A526810786B460122FCF7E0F955
:1058C00010B14FF0FF30EAE7544A1268917D534A15
:1058D000526810786B460622FCF72CF910B14FF095
:1058E000FF30DCE79DF80500C007400F9DF803106E
:1058F00001F0010140EA41009DF8011001F00101B1
:1059000040EA010494B1012C03D101214348C17440
:1059100031E0022C03D100214048C1742BE0214624
:105920003FA0FAF7A7FC4FF0FF30B8E73B4A1268F8
:10593000D1783A4A526810786B460122FCF7FAF89F
:1059400010B14FF0FF30AAE79DF8000000F00F04FF
:105950002CB93D48FAF78EFC4FF0FF309FE7042C3E
:1059600006D13AA0FAF786FC01212C48C17402E066
:1059700000212A48C174FF2128488172FF2027494D
:105980000872FF2125484172C1724FF6FF71C18133
:10599000FF21017481740121017380F8221000211C
:1059A00080F82310417501751630016041608160F7
:1059B000163880F8241080F82510C1844FF4FA605E
:1059C00000F062FC10B14FF0FF3068E7022000F0F9
:1059D0002BFB10B14FF0FF3061E72A2000F0CEFC26
:1059E00010B14FF0FF305AE7322000F009FD10B13E
:1059F0004FF0FF3053E70020FFF754FC10B14FF099
:105A0000FF304CE7002000F051FB10B14FF0FF30A9
:105A100045E7002000F042FD002040E71C01002087
:105A2000556E737570706F7274656420736F6674F1
:105A3000776172652070726F647563742072657629
:105A40002025642E0A000000FC8B000848616C666B
:105A50002073656E736974697669747920706172F8
:105A60007420666F756E642E0A0000002DE9F04305
:105A700085B005460E4690469946294890F825007F
:105A800020B14FF0FF3005B0BDE8F08316B94FF0FC
:105A9000FF30F8E7002423E0281B102801DD102048
:105AA00000E0281B87B232193946204600F05EFD1F
:105AB00010B14FF0FF30E6E701AA3946204600F06A
:105AC00001F910B14FF0FF30DDE730193A4601A976
:105AD000FAF7B4FC10B16FF00100D4E7E01984B21A
