:020000040800F2
:1000000048070020890100088D04000867030008E4
:1000100089040008390200080F0F000800000000E2
:10002000000000000000000000000000FD070008C4
:100030003D02000800000000B9070008110900088F
:10004000A3010008A3010008A3010008A301000800
:10005000A3010008A3010008A3010008A3010008F0
:10006000A3010008A3010008A3010008A3010008E0
:10007000A3010008A3010008A3010008A3010008D0
:10008000A3010008A3010008A3010008A3010008C0
:10009000A3010008A3010008A3010008A3010008B0
:1000A000A3010008A3010008A3010008A3010008A0
:1000B000A3010008A301000800000000A30100083C
:1000C000A30100080000000000000000A3010008D8
:1000D00000000000290E0008A30100080000000035
:1000E000A3010008A3010008A301000800F002F822
:1000F00000F03AF80AA090E8000C82448344AAF188
:100100000107DA4501D100F02FF8AFF2090EBAE885
:100110000F0013F0010F18BFFB1A43F0010318473B
:100120004818000068180000103A24BF78C878C149
:10013000FAD8520724BF30C830C144BF04680C60ED
:10014000704700000023002400250026103A28BF35
:1001500078C1FBD8520728BF30C148BF0B60704739
:100160001FB51FBD10B510BD00F033F81146FFF7E5
:10017000F7FF00F03FFF00F051F803B4FFF7F2FF84
:1001800003BC00F0C6FE000009488047094800474C
:10019000FEE7FEE7FEE7FEE7FEE7FEE7FEE7FEE737
:1001A000FEE7FEE704480549054A064B7047000094
:1001B00015090008ED00000848010020480700204C
:1001C000480300204803002070477047704770477D
:1001D0007047754600F02CF8AE4605006946534658
:1001E00020F00700854618B020B5FFF7DBFFBDE81B
:1001F00020404FF000064FF000074FF000084FF08E
:10020000000B21F00701AC46ACE8C009ACE8C0091E
:10021000ACE8C009ACE8C0098D46704710B504468B
:10022000AFF300802046BDE81040FFF7A6BF0000F6
:1002300000487047E800002000BFFEE770472DE946
:10024000F04102460025002600200023002400275C
:1002500091F803C00CF00F0591F803C00CF0100CDE
:10026000BCF1000F03D091F802C04CEA050591F8EB
:1002700000C0BCF1000F31D0146800202BE04FF01B
:10028000010C0CFA00F3B1F800C00CEA03069E4220
:1002900020D183004FF00F0C0CFA03F7BC4305FA92
:1002A00003FC4CEA040491F803C0BCF1280F06D10A
:1002B0004FF0010C0CFA00FCC2F814C00AE091F8EF
:1002C00003C0BCF1480F05D14FF0010C0CFA00FC43
:1002D000C2F810C0401C0828D1D31460B1F800C087
:1002E000BCF1FF0F34DD546800202EE000F1080C53
:1002F0004FF0010808FA0CF3B1F800C00CEA03064D
:100300009E4221D183004FF00F0C0CFA03F7BC433F
:1003100005FA03FC4CEA040491F803C0BCF1280F71
:1003200005D100F1080C08FA0CF8C2F8148091F815
:1003300003C0BCF1480F07D100F1080C4FF00108D1
:1003400008FA0CF8C2F81080401C0828CED354607C
:10035000BDE8F08141617047016170470AB10161F8
:1003600000E04161704700BFFEE700002DE9F04763
:100370000B4800F02BFC00F1010A504600F0E7FEAC
:100380000646084A084B00F0F9FE04460022074BD7
:1003900000F0F4FE804600F0ADFEBDE8F0870000FE
:1003A000000400409CC420B07268913F00002440CB
:1003B00000B587B00121022000F000FA01210420DD
:1003C00000F00CFA48208DF81B0003208DF81A006D
:1003D0004020ADF8180006A91E48FFF730FF1E4860
:1003E00000F04EFC0020ADF81200ADF80E004FF604
:1003F000FF70ADF810004720ADF80C0000208DF81C
:10040000140003A9144800F0BDFC0020ADF8000062
:100410000F20ADF808000020ADF80200ADF806008E
:100420000120ADF8040069460B4800F0D3FB694693
:10043000094800F02BFC5021074800F065FC04211E
:10044000054800F06AFC0121034800F0B3FB07B047
:1004500000BD0000000801400004004008B5012173
:10046000082000F0BBF903208DF802000220ADF84F
:10047000000048208DF8030069460248FFF7DFFEC0
:1004800008BD0000000C014000BFFEE7704770B5DA
:1004900000240EE00021204600F0DAF8002504E0F8
:1004A000002000F071F9681CC5B2802DF8DB601CDB
:1004B000C4B2082CEEDB70BD70B5002406E0002548
:1004C00000E06D1CB5F57A7FFBD3641CB4F57A7F30
:1004D000F5D300F053F8AE2000F03CF9D52000F041
:1004E00039F9802000F036F9A82000F033F93F20D8
:1004F00000F030F9D32000F02DF9002000F02AF9A7
:10050000402000F027F9A12000F024F9C82000F0D5
:1005100021F9DA2000F01EF9122000F01BF98120E9
:1005200000F018F9CF2000F015F9D92000F012F9E9
:10053000F12000F00FF9DB2000F00CF9302000F082
:1005400009F9A42000F006F9A62000F003F98D2097
:1005500000F000F9142000F0FDF8AF2000F0FAF8E8
:10056000FFF795FF70BD10B50246012000E0504333
:100570000B1EA1F10101FAD110BD000008B5012147
:10058000082000F02BF910208DF8030003208DF8CF
:1005900002002020ADF8000069461D48FFF74FFE1D
:1005A0004020ADF8000069461948FFF748FE80205A
:1005B000ADF8000069461648FFF741FE4FF4807021
:1005C000ADF8000069461248FFF739FE4FF400709D
:1005D000ADF8000069460E48FFF731FE01222021E8
:1005E0000B48FFF7BBFE012240210948FFF7B6FE8A
:1005F000012280210648FFF7B1FE012211020448C2
:10060000FFF7ACFE012251020148FFF7A7FE08BD2B
:10061000000C014070B50546002413E000222021A3
:100620000A48FFF79BFE8020204100EA0502402196
:100630000648FFF793FE012220210448FFF78EFEB3
:10064000601CC4B2082CE9DB70BD0000000C014046
:1006500070B505460C4645F0B00000F07BF810215F
:1006600041EA141000F076F804F00F0000F072F880
:1006700070BD00002DE9F04105460E461746721E7A
:10068000D206110E6A1E5206100EFFF7E1FF00247B
:1006900009E0A7F12001134A02EB0111085D00F007
:1006A00073F8601CC4B2082CF3DB721ED206110E64
:1006B0006A1E012303EB4202D0B2FFF7C9FF0024F8
:1006C0000BE0A7F12001074A02EB011204F1080137
:1006D000505C00F059F8601CC4B2082CF1DBBDE896
:1006E000F0810000781300082DE9F04780460E469F
:1006F00017461D46002415E0281B411E0A20FFF75F
:1007000032FFB7FBF0F00A21B0FBF1F201FB12005F
:1007100000F130093019C1B24A464046FFF7AAFF3E
:10072000601CC4B2AC42E7DBBDE8F0872DE9F041C4
:1007300007460E461546002407E02A5D3019C1B26F
:100740003846FFF797FF601CC4B2285D0028F4D13B
:10075000BDE8F08110B5044600224FF4007109484D
:10076000FFF7FCFD00224FF480710648FFF7F6FD0D
:100770002046FFF74FFF012251020248FFF7EEFD2E
:1007800010BD0000000C014010B5044600224FF4DB
:1007900000710848FFF7E2FD012211020548FFF74A
:1007A000DDFD2046FFF736FF012251020148FFF729
:1007B000D5FD10BD000C01407047000029B1064A6C
:1007C000D2690243044BDA6104E0034AD2698243EE
:1007D000014BDA61704700000010024029B1064A5F
:1007E00092690243044B9A6104E0034A926982438E
:1007F000014B9A617047000000100240704710B52D
:1008000000F002F810BD00000CB50020019000902F
:100810003348006840F480303149086000BF3048F8
:10082000006800F4003000900198401C019000988E
:1008300018B90198B0F5A06FF1D12948006800F40B
:10084000003010B10120009001E0002000900098DD
:10085000012843D12348006840F010002149086076
:100860000846006820F0030008600846006840F071
:10087000020008601A484068194948600846406804
:1008800048600846406840F4806048600846406818
:1008900020F47C1048600846406840F4E810486046
:1008A0000846006840F08070086000BF0C4800688F
:1008B00000F000700028F9D00948406820F00300DB
:1008C000074948600846406840F00200486000BFA1
:1008D0000348406800F00C000828F9D10CBD000066
:1008E0000010024000200240042808D14FF0E0210F
:1008F000096941F004014FF0E022116107E04FF077
:10090000E021096921F004014FF0E02211617047F4
:100910007047000010B51348006840F0010011490D
:10092000086008464068104908400E49486008467B
:1009300000680E4908400B4908600846006820F42A
:10094000802008600846406820F4FE0048604FF4AC
:100950001F008860FFF753FF4FF0006004490860F4
:1009600010BD0000001002400000FFF8FFFFF6FE7F
:1009700008ED00E0F0B50C46154600220021068C7B
:100980004FF6FE773E400684028B018C4FF60C76C4
:1009900032407E1C06EA03162E433243104EB0420C
:1009A0000ED0104EB0420BD0B0F1804F08D00E4E9A
:1009B000B04205D00D4EB04202D00D4EB04206D12D
:1009C0004FF6FD76314044F00106314305E04FF625
:1009D000F576314044F00106314302830184F0BDD5
:1009E000002C014000340140000400400008004099
:1009F000000C0040F0B50C461546002200210026F0
:100A0000078C4FF6EF7C07EA0C070784028B018CFA
:100A10004FF6FF7707EA041640F6FF473A404FF6D5
:100A2000FF7707EA03373A434FF6FF7707EA0527D0
:100A30003A43114FB8420ED0104FB8420BD0B0F12C
:100A4000804F08D00E4FB84205D00E4FB84202D0AA
:100A50000D4FB84206D14FF6DF77394046F0100708
:100A6000394305E04FF65F77394044F010073943CA
:100A700002830184F0BD0000002C014000340140DD
:100A80000004004000080040000C0040F0B50C4697
:100A90001546002200210026078C4FF6FF6C07EA5E
:100AA0000C070784828B018C4FF6FF7707EA042638
:100AB0004FF60C773A404FF6FF7707EA03172F43BC
:100AC0003A43114FB8420ED0104FB8420BD0B0F19C
:100AD000804F08D00E4FB84205D00E4FB84202D01A
:100AE0000D4FB84206D14FF6FF57394046F4807794
:100AF000394305E04FF2FF57394044F480773943DA
:100B000082830184F0BD0000002C014000340140CC
:100B10000004004000080040000C0040F0B50C4606
:100B20001546002200210026078C4EF6FF7C07EABE
:100B30000C070784828B018C4FF6FF7707EA043697
:100B400040F6FF473A404FF6FF7707EA05273A435A
:100B50004FF6FF7707EA03373A43114FB8420ED0FA
:100B6000104FB8420BD0B0F1804F08D00E4FB842B2
:100B700005D00E4FB84202D00D4FB84206D14DF607
:100B8000FF77394046F48057394305E047F6FF5771
:100B9000394044F48057394382830184F0BD00001A
:100BA000002C0140003401400004004000080040D7
:100BB000000C004021B1028842F00102028004E0F2
:100BC00002884FF6FE731A40028070470146088F74
:100BD0007047000070B505460C46244885420ED08B
:100BE000234885420BD0B5F1804F08D0214885427B
:100BF00005D02148854202D02048854200D100E03E
:100C000000BF208850B92389A28861882846FFF751
:100C1000B1FEE188284600F089F825E02088042804
:100C20000AD12389A28861882846FFF7E3FEE1887C
:100C3000284600F084F817E0208808280AD1238984
:100C4000A28861882846FFF721FFE188284600F046
:100C500083F809E02389A28861882846FFF75EFFB0
:100C6000E188284600F081F870BD0000002C0140AA
:100C7000003401400004004000080040000C004027
:100C800001894FF6F8721140018170472DE9F0415A
:100C900005460C4600260127608808B9022600E0B8
:100CA0000026A088012801D1022700E00127208822
:100CB000A0B92389A28861882846FFF75BFEE188F6
:100CC000284600F033F823893A4631462846FFF794
:100CD00091FEE188284600F032F813E02389A288CB
:100CE00061882846FFF786FEE188284600F027F84D
:100CF00023893A4631462846FFF73CFEE1882846DC
:100D000000F014F8BDE8F0810A46002101894FF691
:100D10008F73194011430181704702894FF6F873B0
:100D20001A40028102890A4302817047028B4FF602
:100D3000F3731A400283028B0A4302837047028BCB
:100D40004FF2FF331A400283028B4FF6FF7303EA20
:100D500001231A4302837047828B4FF6F3731A40C4
:100D60008283828B0A4382837047828B4FF2FF33E8
:100D70001A408283828B4FF6FF7303EA01231A43E2
:100D800082837047002202881D4B98420ED01D4B73
:100D900098420BD0B0F1804F08D01B4B984205D041
:100DA0001A4B984202D01A4B984204D14FF68F73D7
:100DB0001A404B881A43174B984207D0164B98425B
:100DC00004D04FF6FF431A40CB881A4302808B8829
:100DD00083850B8803850A4B98420BD0094B9842B8
:100DE00008D00E4B984205D00D4B984202D00D4BC7
:100DF000984201D10B7A0386012383827047000059
:100E0000002C014000340140000400400008004074
:100E1000000C004000100040001400400040014061
:100E2000004401400048014010B540F225511D48E2
:100E300000F03EF810B31B4800F064F8C4B21A4842
:100E4000008800F40040C8B91748008800F48040CA
:100E500060B10A2C03D000201349088020E012481A
:100E6000008840F400401049088019E00D2C06D19C
:100E70000D48008840F480400B49088010E00A4883
:100E80000088C0F30D0009490C5407480088401C35
:100E90000549088008460088C72801DD0020088031
:100EA00010BD0000003801401C0000202000002080
:100EB00070B50246002400230025002040F66A1683
:100EC000B14200D100BFC1F3421501F01F0301265A
:100ED00006FA03F3012D02D19689334006E0022D74
:100EE00002D1168A334001E0968A33400C12012663
:100EF00006FA04F41688344013B10CB1012000E066
:100F0000002070BD01468888C0F30800704700BF0C
:100F1000FEE7014600BF704710B56FF00400FFF711
:100F2000E3FC0A4800680A49B0FBF1F0094908707F
:100F30000846007800EB4001C1EBC0104FF6FF718E
:100F400001EAC0000449088010BD00000000002034
:100F500000127A0014000020160000200146114AF9
:100F600012884A434FF0E0235A6100229A611A46E0
:100F7000126942F001021A6100BF4FF0E0221069CD
:100F800000F001021AB100F48032002AF5D04FF0CF
:100F9000E022126922F001024FF0E0231A610022E0
:100FA0009A617047160000200146114A12784A43A0
:100FB0004FF0E0235A6100229A611A46126942F00A
:100FC00001021A6100BF4FF0E022106900F0010237
:100FD0001AB100F48032002AF5D04FF0E0221269F5
:100FE00022F001024FF0E0231A6100229A6170475B
:100FF000140000200EB5FFF78FFFFFF72FFAFFF761
:101000005BFAFFF7D5F900F04DF822A2012108465E
:10101000FFF78CFB3DE000F05BF8FFF7A7F9044613
:1010200000251FE0642C10DB642094FBF0F000909E
:101030000A2094FBF0F100FB11400190642094FB26
:10104000F0F100FB114002900BE0002000900A201C
:1010500094FBF0F001900A2094FBF0F100FB1140AA
:1010600002906D1C032DDDDB01230A211846009A36
:10107000FFF73AFB01230B211846019AFFF734FBD7
:1010800001230D211846029AFFF72EFB0A20FFF7D5
:1010900065FFC0E744697374616E63653A30302E52
:1010A00030636D0008B501210420FFF797FB102085
:1010B0008DF8030003208DF802002020ADF8000019
:1010C00069460248FFF7BBF808BD00000008014070
:1010D00010B5FFF721FF20210548FFF73DF90F204C
:1010E000FFF762FF20210248FFF734F910BD00002E
:1010F000000801404FEA1153A3F58063D3F11E03AA
:10110000A8BFD3F1200C08DB4FF0004242EAC12215
:1011100052EA505232FA03F0704709420BD4102BB6
:10112000C4BF0020704703F5787CBCF1FF3F05D0B9
:101130004FF0FF3070474FF00000704770B500F07F
:10114000C7F800BF4992248000207047F0E710F0F4
:10115000004248BF4042B0FA80F310FA03F10AD0CF
:10116000C3F11D0303F580634FEA415002EB0352C4
:1011700002EBD12170474FF000007047DFF848C103
:1011800070B51CEA111E1EBF1CEA13159EEA0C0F57
:1011900095EA0C0F00F06F8081EA030423EA4C13F8
:1011A0004EEAD47E21EA4C1141F4801143F48013BD
:1011B000AE44A1FB024CA0FB0365AEF17F7E361965
:1011C00055EB0C05A1FB034C4CF10003A0FB021CEA
:1011D00016EB0C06654153F10003094218BF46F0B7
:1011E000010613F4007F0BD14FEA03314FEA0530BB
:1011F000340341EA155140EA16506FF003020AE049
:101200004FEAC3214FEAC520F40241EA555140EAB2
:1012100056506FF0020202EB2E4201EB025585EAB6
:10122000CE710AD05FEA440C18BF24F0004450F19C
:10123000000041F1000120EAD47040F2FE7C6245DA
:1012400000D270BDA84214BF4FF080444FF040441C
:10125000002E08BF0024BEF1806FA8BFA1F1C041DD
:10126000BDE8704080F282804FF0000001F1C04183
:1012700001F0004170479EEA0C0F0CEA131518BFED
:1012800095EA0C0F06D04FF0000081EA030E0EF035
:10129000004170BD00F01CF88900013E00F007B865
:1012A00000F009B84FEA430C5FEA5C5C08D081EAC1
:1012B000030100F05BB84FEA410C5FEA5C5CF6D1D9
:1012C0004FF00000014970470000FF070000F87F61
:1012D0000EF1020E2EF0030E5EF8046B364205D4BA
:1012E000012A43EB030515F5001F12D8012841EB35
:1012F000010C1CF5001F0CD80ED14FEAD17C15F55E
:10130000001F0CEB4C0C0CF1020C08BF4CEBD37C17
:1013100004E04FF0080C01E04FEAD37C0CEB4C05E5
:1013200026FA05F606F00706B6F1040C06D20EEB17
:10133000860CBDE870404CF0010C6047DFE80CF013
:10134000090B02024FF000414FF00000A1F500210F
:1013500070BD19461046012851EB010418BFD4F5A1
:10136000001484BF002001F0004170BD0808A0F502
:1013700000114FEA3101704700000000000000003A
:101380000000000000000000000000F80000000065
:10139000000000333000000000100C06100C0600A6
:1013A000000000000000000040C07840C07840000D
:1013B000043F04043F040400007088FC083000006F
:1013C000001820FF211E0000F008F000E0180000C7
:1013D00000211C031E211E0000F008887000000080
:1013E0001E2123241927211010160E0000000000D2
:1013F0000000000000000000000000E018040200EF
:10140000000000071820400000020418E00000005F
:101410000040201807000000404080F0804040005D
:101420000202010F01020200000000F000000000B3
:101430000101011F01010100000000000000000087
:1014400080B07000000000000000000000000000FC
:101450000001010101010101000000000000000085
:101460000030300000000000000000008060180420
:10147000006018060100000000E010080810E000FD
:10148000000F102020100F00001010F800000000C6
:101490000020203F2020000000700808088870000D
:1014A000003028242221300000300888884830008D
:1014B0000018202020110E000000C02010F80000AD
:1014C00000070424243F240000F808888808080046
:1014D0000019212020110E0000E01088881800005B
:1014E000000F112020110E0000380808C83808002D
:1014F0000000003F000000000070880808887000AD
:10150000001C222121221C0000E010080810E0002D
:101510000000312222110F00000000C0C0000000B6
:1015200000000030300000000000008000000000DB
:1015300000008060000000000000804020100800D3
:10154000000102040810200040404040404040009C
:101550000404040404040400000810204080000077
:101560000020100804020100007048080808F0007C
:101570000000003036010000C030C828E810E0004C
:101580000718272423140B000000C038E0000000D7
:10159000203C23020227382008F888888870000041
:1015A000203F202020110E00C03008080808380015
:1015B000071820202010080008F808080810E0008C
:1015C000203F202020100F0008F88888E80810002D
:1015D000203F20202320180008F88888E808100001
:1015E000203F200003000000C03008080838000039
:1015F00007182020221E020008F808000008F8083A
:10160000203F210101213F20000808F808080000C0
:101610000020203F2020000000000808F8080800F3
:10162000C08080807F00000008F888C0281808006B
:10163000203F20012638200008F8080000000000A4
:10164000203F20202020300008F8F800F8F808009B
:10165000203F003F003F200008F830C00008F80895
:10166000203F200007183F00E01008080810E000A5
:101670000F10202020100F0008F808080808F000BC
:10168000203F210101010000E01008080810E000DF
:101690000F18242438504F0008F888888888700074
:1016A000203F2000030C3020007088080808380014
:1016B0000038202121221C00180808F8080818000A
:1016C0000000203F2000000008F808000008F8088B
:1016D000001F202020201F000878880000C838083C
:1016E000000007380E010000F80800F80008F800B4
:1016F000033C0700073C030008186880806818084E
:1017000020302C03032C30200838C800C8380800CB
:101710000000203F2000000010080808C83808001A
:101720002038262120201800000000FE02020200BE
:101730000000007F40404000000C30C0000000006E
:10174000000000010638C00000020202FE00000096
:10175000004040407F00000000000402020204003C
:101760000000000000000000000000000000000079
:101770008080808080808080000202040000000061
:101780000000000000000000000080808080000059
:101790000019242222223F2008F800808000000047
:1017A000003F112020110E0000000080808000000A
:1017B000000E112020201100000000808088F80019
:1017C000000E112020103F2000008080808000004B
:1017D000001F222222221300008080F088888818AF
:1017E0000020203F202000000000808080808000BA
:1017F000006B94949493600008F80080808000004F
:10180000203F210000203F20008098980000000029
:101810000020203F20200000000000809898000059
:1018200000C08080807F000008F800008080800079
:10183000203F24022D302000000808F8000000009E
:101840000020203F20200000808080808080800059
:10185000203F20003F20003F8080008080800000EB
:10186000203F210000203F20000080808080000079
:10187000001F202020201F008080008080000000AA
:1018800080FFA12020110E000000008080808000D9
:10189000000E112020A0FF808080800080808000CA
:1018A00020203F21200001000000808080808000F7
:1018B0000033242424241900008080E0808000006C
:1018C0000000001F202000008080000000808000B9
:1018D000001F202020103F2080808000008080801A
:1018E00000010E30080601008080008000808080AA
:1018F0000F300C030C300F000080800080808000CF
:101900000020312E0E3120008080800000808080F9
:1019100080818E70180601000080808080808000A9
:101920000021302C2221300000000000807C0202C7
:1019300000000000003F404000000000FF000000E9
:1019400000000000FF0000000002027C8000000098
:101950000040403F000000000006010102020404B4
:1019600000000000000000008819000800000020AE
:101970002000000028010008A8190008200000200D
:10198000280700004401000800A24A0400000000EB
:10199000000000000102030406070809000000001F
:0819A00000000000000000003F
:04000005080000ED02
:00000001FF
