:020000040800F2
:10000000F8080020E1010008A9160008631600089E
:10001000A516000839120008072200080000000099
:10002000000000000000000000000000591C000853
:10003000DD14000800000000411B00086D1D0008D1
:10004000FB010008FB010008FB010008FB010008A0
:10005000FB010008FB010008FB010008FB01000890
:10006000FB010008FB010008E1140008FB01000887
:10007000FB010008FB010008FB010008FB01000870
:10008000FB010008FB010008FB010008FB01000860
:10009000FB010008FB010008FB010008FB01000850
:1000A000FB010008FB010008FB010008FB01000840
:1000B000FB010008FB010008FB010008FB01000830
:1000C000FB010008FB010008FB010008FB01000820
:1000D000FB010008E51F0008FB010008FB01000808
:1000E000FB010008FB010008FB01000800F002F81A
:1000F00000F067F80AA090E8000C82448344AAF15B
:100100000107DA4501D100F05CF8AFF2090EBAE858
:100110000F0013F0010F18BFFB1A43F0010318473B
:10012000D83F0000F83F00000A444FF0000C10F8E0
:10013000013B13F0070408BF10F8014B1D1108BF65
:1001400010F8015B641E05D010F8016B641E01F805
:10015000016BF9D113F0080F1EBF10F8014BAD1C55
:100160000C1B09D16D1E58BF01F801CBFAD505E073
:1001700014F8016B01F8016B6D1EF9D59142D6D3CD
:10018000704700000023002400250026103A28BFF5
:1001900078C1FBD8520728BF30C148BF0B607047F9
:1001A000662903F06484002070471FB500F0F2FA5E
:1001B00004000020002102F04FFEE0601FBD10B5DA
:1001C00010BD00F003FC1146FFF7EFFF02F0C0F88E
:1001D00000F021FC03B4FFF7F2FF03BC02F030F89B
:1001E0000948804709480047FEE7FEE7FEE7FEE7CB
:1001F000FEE7FEE7FEE7FEE7FEE7FEE70448054907
:10020000054A064B70470000711D0008ED0000080C
:10021000F8020020F8080020F8040020F80400206C
:10022000704700000FB4044910B503AA029800F00B
:100230009FFA10BC5DF814FBA00000202DE9F047E8
:100240004FF0000A89460446C0F820A02046E16825
:100250008847002876D0252806D0D4E90121904788
:10026000206A401C2062F1E7E168204600258847AB
:10027000C4F81CA006460027C4F818A02A2E09D0EE
:10028000304601F0D6FF38B304EB8708303EC8F89B
:10029000186019E059F8041B204604EB87029161AD
:1002A000E1688847012F064618D1E069002820DA66
:1002B00025F020051DE0D8F8180000EB800006EBC3
:1002C00040003038C8F818002046E16888470646E4
:1002D00001F0AFFF0028EED1012F0AD02E2E08D159
:1002E0002046E16888477F1C0646022F45F020051E
:1002F000C4DBA069002803DA404245F00105A06193
:10030000E80701D025F01005B6B1A6F14100192883
:1003100002D8203645F400654A463146204625601D
:100320004D46FFF73DFF58B1012806D0ED1D25F0E1
:10033000070000F1080989E704E005F1040985E7F1
:1003400030468AE7206ABDE8F087704770477047FB
:10035000704770472DE9FF4F0C461E464FF0FF37A0
:100360008BB0D2E90001DDF860800A908A46C1F3C3
:100370000A5505B93D46002108464FF00000BAF184
:10038000000F00F4400005DA00EB80004FF440015C
:1003900001EA50004FEA9059B9F1010F00DDB9466A
:1003A0000A9850EA4A000ED044F61050A5F2FF35E4
:1003B00045432F14B8F1000F1ED07542291E1EDDD3
:1003C000C9F100021CE0B8F1010F4FF0000001D0AC
:1003D000302103E0F24305E02154401CB042FBDB36
:1003E00030460022002121540B99C1F80880C1E950
:1003F00000200FB0BDE8F08FBD1B6D1CDEE74A4644
:1004000000DA694206A800F067FA06AB93E8070035
:1004100003AB83E8070050460A9900F045FB8DE8DE
:100420000700A0F500501F3800900398002D0ADD4A
:1004300042F21F014A460844002303A9039068467C
:1004400000F0AEFD09E0A0F500504A461F38002339
:1004500003A90390684600F0B8FD8DE8070000048A
:10046000000C03D04FF0FF30410800E01046B8F117
:10047000000F03D00022009215461EE0751E05D421
:1004800000F08CF9303262556D1EF9D5B346012269
:10049000084302D000227F1C04E02078302801D1DC
:1004A00000227F1E002A099784D01DE0112D07DA53
:1004B00000F074F9303262556D1C50EA0102F5D13A
:1004C000084302D00098C8B10EE00021681E05E084
:1004D000235C625C63542254401E491C8142F7DB5A
:1004E000AB46A81B401E0990002004F80B000B9897
:1004F000099AC0F80880C0E9002B7AE711264FF06E
:10050000000857E72DE9F04F88460446D21D22F037
:10051000070191B0D1E90001CDE90A0101F075FEB2
:1005200002460B98C00F01D02D2007E020688107FC
:1005300001D52B2002E0202101EAC000032A099006
:1005400001D0072A05DB03464146204600F084F926
:100550000BE12078800601D5E06900E00620B8F1C3
:10056000650F814606D0B8F1660F18D0B8F1670F55
:1005700070D131E00020B9F1110F009001DB11239F
:1005800001E009F101030AAA01A90CA8FFF7E2FEA4
:10059000DDE90C70002609F10105834647E00120E2
:1005A0004B4600904FF000470AAA01A90CA8FFF79C
:1005B000D1FEDDE90DB00C995D46002610B909F1B8
:1005C00001000D18B9EB050003D4C0F1FF3609F1A5
:1005D0000105A5EB09002BE0B9F1010F01DA4FF09D
:1005E00001090020B9F1110F0090484601DD1123E7
:1005F00000E003460AAA01A90CA8FFF7ABFEDDE95B
:100600000C704D4600268346207800070AD4AB457F
:1006100000DA5D4601A8012D04DD411911F8011C25
:10062000302907D04F4502DA17F1040F04DA012010
:1006300082460FE06D1EEEE7002F02DCED1B3E440C
:1006400003E0781CA84200DD7D1CB81B00F1010A04
:100650004FF000472078000703D4AA4501DB4FF094
:10066000FF3A0021B7F1004F0DF143088DF8431018
:1006700024D002202B23002F01DA7F422D230A21D0
:10068000021EA0F1010000DC5FB197FBF1FC97FBBB
:10069000F1F201FB1C7C17460CF1300C08F801CD7F
:1006A000EEE7A8F1010003702188090501D5452175
:1006B00000E06521A0F1010800F8011C09980FA9CC
:1006C000A1EB0807FF1D00B10120411901EBEA7001
:1006D000A1693844081A401EA0612078C00602D4DF
:1006E0002046AFF30080099828B1D4E90121904752
:1006F000206A401C20622078C00622D52046AFF335
:1007000000801EE0002E04DBB34502DD01A8805D01
:1007100000E03020D4E901219047206A401C20628B
:10072000761CAAF101005FEA000A0AD100F032F853
:10073000C0680168405CD4E901219047206A401CF0
:100740002062281EA5F10105DCDC07E0D4E90121C7
:1007500018F8010B9047206A401C2062381EA7F150
:100760000107F3DC2046AFF30080032011B041E61F
:10077000074B70B50D467B4400F05BF804462846F5
:1007800000F01CF910B14FF0FF3070BD204670BD75
:100790005F1B000000487047B802002030B5B0F180
:1007A0000A024FEA900E71F100034EEA817EB0EB2F
:1007B0000E0061EB91014FEA101E4EEA017E10EB34
:1007C0000E0041EB11114FEA102E4EEA016E10EBB4
:1007D0000E0041EB11214FEA104E4EEA014E10EB94
:1007E0000E0041EB1141401841F100014FEAD000E9
:1007F00040EA41704FEAD10110EB80054FEA8104D5
:1008000044EA907444EB01046D1944EB0404521B58
:10081000A3414FF0000348BF0A3200D530BD401C51
:1008200041F1000130BD000001694A1C02610878F5
:10083000704700B58FB0CDE9013100210591054920
:100840007944CDE9031011466846FFF7F7FC0FB075
:1008500000BD0000E5FFFFFF2DE9F0411F46044603
:1008600003260168072A01F4006004DB08B116A51D
:1008700005E016A503E008B115A500E015A521F0D7
:1008800010002060A069C01EA0610FB1401EA061D1
:100890002046AFF300804FB1D4E90121384690479C
:1008A000206A401C2062C01C206206E0206AFAE731
:1008B000D4E9012115F8010B9047761EF8D22046A5
:1008C000AFF30080BDE8F0814E414E006E616E00D6
:1008D000494E4600696E66002DE9F047814616468E
:1008E0008AB0354878440DC88DE80D003248784408
:1008F000801C03AC0DC884E80D0041F69B30084411
:10090000372190FBF1F290FBF1F5A5F1800501FB99
:1009100012041B3C02D56442012000E00020DFF8F5
:1009200098A080460027FA44AAF1BE0A0EE0E0072C
:100930000AD03246684607EB470101230AEB8101E2
:1009400000F043FB8DE8070064107F1C002CEED103
:10095000194F7F44AE3F19E0E80715D007EB0410AC
:100960000DF1180A90E80E008AE80E00C068F04207
:1009700001D1981908903246012306A903A800F076
:1009800024FB03AB83E807006D10641C002DE3D14A
:100990004FF0010332466946B8F1000F03A802D0B8
:1009A00000F0FEFA01E000F010FBC9E90001C9F80F
:1009B00008200AB0BDE8F087F8370000007B00F09F
:1009C0008000704700487047980200207546FFF786
:1009D000F9FFAE4605006946534620F007008546FC
:1009E00018B020B5FFF70AFCBDE820404FF0000624
:1009F0004FF000074FF000084FF0000B21F0070107
:100A0000AC46ACE8C009ACE8C009ACE8C009ACE849
:100A1000C0098D46704710B50446AFF300802046EC
:100A2000BDE81040FFF7D6BB4FF0013C50F8042B57
:100A300051F8043B9A4221D1A2EB0C03934313EAF1
:100A4000CC1317D150F8042B51F8043B9A4215D11E
:100A5000A2EB0C03934313EACC130BD150F8042BF5
:100A600051F8043B9A4209D1A2EB0C03934313EAD9
:100A7000CC13DBD04FF00000704700BFD01A01BA92
:100A8000B1FA81F101F0180122FA01F0CB40C1F175
:100A90002001DBB2C0B2C01A2CFA01F3D11A914383
:100AA00011EAC311E6D170475FEA400C08BF91F02C
:100AB000000F4FEA8C234FEAC12243EA51514FEA1B
:100AC0001C5018BF00F5F0404FEA300018BF41F04D
:100AD00000415FEA6C5C00F02980BCF1FF3F08BF79
:100AE00040F080407047130C06BF12044FF0100C0A
:100AF0004FF0000C130E04BF12020CF1080C130F80
:100B000004BF12010CF1040C930F04BF92000CF10E
:100B1000020CD30F04BF52000CF1010C11464FF030
:100B20000002A0F11F00A0EB0C00704711F0004F75
:100B300008BF704731F000413FF4D5AF0B0C06BF42
:100B400009044FF0100C4FF0000C0B0E04BF09020B
:100B50000CF1080C0B0F04BF09010CF1040C8B0FF6
:100B600004BF89000CF1020CCB0F04BF49000CF14B
:100B7000010CCCF12003A0EB0C0022FA03F302FAE3
:100B80000CF241EA030100F10100704720F07F4CB4
:100B900080EA030023F07F47ACEB070303F57C53A7
:100BA00000F0004003F1FF032DE980494FEA154BA7
:100BB00009B44FEA144325EA0B4E24EA03480FF226
:100BC000042606EB132749083E785FEA320203FB4E
:100BD0000667C7F5000707FB06F64FEA54374FEAEA
:100BE000D64606F1020607FB066CCCF1005C4FEA24
:100BF0001C472CEA074C07FB06F40CFB06F504EB3C
:100C000015464FEA961634BF00204FF000404FEAD9
:100C1000D13706FB07FC4FEA1C4C0CFB0BF7D21B31
:100C200003FB0CF761EB07010CFB0EF7B0EB074081
:100C300072EB17420CFB08F734BFA2EB0742B2EB92
:100C4000074261EB17414FEA0C444FEA910706FB5C
:100C500007FC4FEA1C4C0CFB0BF7B0EBC74072EBE8
:100C6000573203FB0CF734BFA2EBC742B2EBC742CB
:100C700061EB57310CFB0EF7B0EBC70072EB57720C
:100C80000CFB08F734BFA2EBC702B2EBC70261EB63
:100C90005771039F4FEA816141EA921104EBCC0442
:100CA0004FEAD1374FEA826206FB07FC42EA901214
:100CB0004FEA80604FEA1C4C0CFB0BF7D21B03FB86
:100CC0000CF761EB07010CFB0EF7B0EB074072EB82
:100CD00017420CFB08F734BFA2EB0742B2EB074206
:100CE00061EB17414FEA8C554FEA910704EB9C24C6
:100CF00006FB07FC4FEA1C4C0CFB0BF7B0EBC740A4
:100D000072EB573203FB0CF734BFA2EBC742B2EBD6
:100D1000C74261EB57310CFB0EF7B0EBC70072EB2B
:100D200057720CFB08F734BFA2EBC702B2EBC70245
:100D300061EB577115EB4C254FEA816141EA921145
:100D40004FEA82624FEAD13742EA901206FB07FC73
:100D500044F100044FEA80604FEA1C4C0CFB0BF797
:100D6000D21B03FB0CF761EB07010CFB0EF7B0EB9A
:100D7000074072EB17420CFB08F734BFA2EB0742A7
:100D8000B2EB074261EB174115EB1C154FEA8131BD
:100D900041EA92414FEA823242EA90424FEA803081
:100DA0004FEA0C7644F1000448EA03434EEA0B484C
:100DB0004FF0000EB2EB080C71EB030724BF624644
:100DC00039464EEB0E0E4FF0000B001852414941D0
:100DD0004BEB0B0BB2EB080C71EB03077BF1000B39
:100DE00024BF624639464EEB0E0E4FF0000B001842
:100DF000524149414BEB0B0BB2EB080C71EB030773
:100E00007BF1000B24BF624639464EEB0E0E51EAD1
:100E1000020718BF46F0010616EB0E7655F10002E8
:100E200054F1000103D5BDE88901BDE80088BDE8A3
:100E30008901BDE80048B619524141EB0101A3F117
:100E40000103704780807F7E7D7C7B7A797877761E
:100E500076757473727171706F6E6E6D6C6C6B6A97
:100E60006A69686867666665646463636261616035
:100E7000605F5F5E5E5D5D5C5C5B5B5A5A595958B2
:100E8000585757565655555554545353525252511C
:100E9000515050504F4F4F4E4E4D4D4D4C4C4C4B72
:100EA0004B4B4A4A4A4949494848484747474746B9
:100EB00046464545454444444443434343424242F5
:100EC00042414141002B9C4630D477002BD01CB5C9
:100ED0004FEA370703B44FF010004FF01001BAF19A
:100EE000000F06D0BCF1000FDCBF40F0080040F05E
:100EF00008014FF000000FBCBDE810400BF1010BE2
:100F0000BBF1010F08BF5FEA170722BF12F1010210
:100F100011F101014FF0004143F1000300F00040E6
:100F200043EA00007047F9D35708D0E746EA06467F
:100F300013F1400F4FEA16461FDD13F1200FDFBFFC
:100F400016430A46002120335B42BED0C3F120077E
:100F500046EA064602FA07F74FEA164646EA070649
:100F6000C3F1200722FA03F201FA07F721FA03F18D
:100F70004FF0000342EA0702A7E746EA020646EA04
:100F800006464FEA164646EA0106BCBF46EA064652
:100F9000360C4FF000034FF000024FF0000194E7D1
:100FA0002DE9804C9A46934670B491E8380007C802
:100FB00031EA400C48BF34EA430C03D5FFF7E6FDA5
:100FC000FFF780FFF0BCBDE8008C2DE9804C9A460D
:100FD000934670B491E8380007C810F0804F08BFFE
:100FE00013F0804F03D100F005F8FFF76BFFF0BC62
:100FF000BDE8008C20F07F4780EA030023F07F4C9F
:1010000007EB0C03A3F57C5300F00040A3F1FE03B3
:1010100092F0000F00F0B38095F0000F00F07780A1
:101020002DE901494FEA11404FEA144621EA0048F0
:1010300000FB06FC24EA064708FB06F607FB08F857
:1010400000FB07F718EB06484CEB164C4FEA124B27
:1010500018EB07484FEA15464CEB174022EA0B4EB7
:101060000BFB06FC25EA06470EFB06F607FB0EFE09
:101070000BFB07F71EEB064E4CEB164C4FF0000631
:101080001EEB074E4CEB174B18EB0B0840F1000022
:1010900018EB0E0B58EB000840F100008F1A4FF0D0
:1010A00000013CBFC943661B14BFB5EB040C002113
:1010B0003CBFC943F61B4FEA17444EEA8E0E27EA9F
:1010C00004454FEA1C4704FB07622CEA074C05FB6A
:1010D00007F70CFB05F604FB0CFC16EB074642EB8E
:1010E000174216EB0C4642EB1C421BEB060658EB74
:1010F0000202414146EA9E0601D5BDE80189B619C2
:10110000524141EB0101A3F10103BDE801894FEA1E
:1011100014454FEA114724EA054621EA074C05FB2E
:1011200007F406FB07F70CFB06F105FB0CFC11EBC3
:10113000074144EB17444FEA124711EB0C4144EBD3
:101140001C4422EA074C05FB07F206FB07F70CFBE1
:1011500006F605FB0CFC16EB074642EB174216EBB6
:101160000C4642EB1C456A1854F1000148BF704719
:10117000B619524141EB0101A3F10103704795F00B
:10118000000F37D04FEA11424FEA144721EA0246D6
:1011900024EA074C02FB07F106FB07F70CFB06F4F9
:1011A00002FB0CFC14EB074441EB17414FEA1547D7
:1011B00014EB0C4441EB1C4125EA074C02FB07F5FC
:1011C00006FB07F70CFB06F602FB0CFC16EB0746CA
:1011D00045EB174516EB0C4645EB1C42121951F135
:1011E000000148BF7047B619524141EB0101A3F11C
:1011F000010370474FEA14454FEA114724EA0546B8
:1012000021EA074C05FB07F106FB07F70CFB06F28A
:101210004FF0000605FB0CFC12EB074241EB1741B7
:1012200012EB0C4251EB1C4148BF7047921841EB46
:101230000101A3F10103704700BFFEE72DE9FE4F56
:101240008246504602F054FA1049009002F004F928
:101250000F49019002F06EF9834602F0D1F8804602
:1012600000220C4B01F00EFE064600220A4B01F054
:10127000DFFE044601F0AEFE80B2014602904FF060
:10128000804000F059FEBDE8FE8F00000000BA4229
:101290000000B4420000E03F000059402DE9FE4F3D
:1012A0008246504602F024FA1049009002F0D4F829
:1012B0000F49019002F03EF9834602F0A1F8804602
:1012C00000220C4B01F0DEFD064600220A4B01F025
:1012D000AFFE044601F07EFE80B2014602904FF060
:1012E000804000F02BFEBDE8FE8F00000000BA42F7
:1012F0000000B4420000E03F000059402DE9F047F3
:101300000446002515490968081B02F0F1F9144943
:10131000C8600A46D168106902F034FB05461048DF
:1013200001F0F0FC80462946404602F02BFB0D49B7
:10133000C860084601F0E6FC8146284602F060F8E5
:10134000064632460B4608A0FEF76CFF484602F000
:10135000B3F90646FFF772FFBDE8F0876C00002086
:10136000D0000020AC0000206E6F775F763A252E0B
:1013700032660A002DE9F047044600251549096840
:10138000081B02F0B5F91449C8600A46D168106913
:1013900002F0F8FA0546104801F0B4FC80462946F0
:1013A000404602F0EFFA0D49C860084601F0AAFC79
:1013B0008146284602F024F8064632460B4608A02D
:1013C000FEF730FF484602F077F90646FFF736FF92
:1013D000BDE8F0876C000020600100203C01002087
:1013E0006E6F775F763A252E32660A002DE9F04758
:1013F0000446002515490968081B02F079F91449CB
:10140000C8600A46D168106902F0BCFA0546104867
:1014100001F078FC80462946404602F0B3FA0D49B7
:10142000C860084601F06EFC8146284601F0E8FFDE
:10143000064632460B4608A0FEF7F4FE484602F088
:101440003BF90646FFF72AFFBDE8F0877000002051
:1014500018010020F40000206E6F775F763A252E89
:1014600032660A002DE9F04704460025154909684F
:10147000081B02F03DF91449C8600A46D16810699A
:1014800002F080FA0546104801F03CFC80462946EF
:10149000404602F077FA0D49C860084601F032FC78
:1014A0008146284601F0ACFF064632460B4608A0AE
:1014B000FEF7B8FE484602F0FFF80646FFF7EEFEDC
:1014C000BDE8F08770000020A80100208401002002
:1014D0006E6F775F763A252E32660A0070470000FD
:1014E00010B5102000F010F828B100200249086063
:1014F000102000F003F810BDA8000020014908608A
:101500007047000014040140014600200022074BF0
:101510001B6803EA0102054B14331B680B4013B12F
:101520000AB1012000E000207047000000040140E3
:101530002DE9F0410246002500260020002300246A
:10154000002791F803C00CF00F0591F803C00CF0D0
:10155000100CBCF1000F03D091F802C04CEA050555
:1015600091F800C0BCF1000F31D0146800202BE0CE
:101570004FF0010C0CFA00F3B1F800C00CEA0306BE
:101580009E4220D183004FF00F0C0CFA03F7BC43AE
:1015900005FA03FC4CEA040491F803C0BCF1280FDF
:1015A00006D14FF0010C0CFA00FCC2F814C00AE09E
:1015B00091F803C0BCF1480F05D14FF0010C0CFAB3
:1015C00000FCC2F810C0401C0828D1D31460B1F848
:1015D00000C0BCF1FF0F34DD546800202EE000F1A4
:1015E000080C4FF0010808FA0CF3B1F800C00CEA3F
:1015F00003069E4221D183004FF00F0C0CFA03F733
:10160000BC4305FA03FC4CEA040491F803C0BCF1A6
:10161000280F05D100F1080C08FA0CF8C2F8148064
:1016200091F803C0BCF1480F07D100F1080C4FF04E
:10163000010808FA0CF8C2F81080401C0828CED324
:101640005460BDE8F0810246002093680B400BB166
:10165000012000E0002070470AB1016100E0416113
:10166000704700BFFEE7000008B50121042000F02C
:1016700079FA28208DF803001820ADF80000032027
:101680008DF8020069460648FFF752FF4FF41E60CE
:10169000ADF8000069460248FFF74AFF08BD0000A8
:1016A0000008014000BFFEE77047000070B5002150
:1016B00000230F22C47804B3154C246804F4E064BA
:1016C000C4F5E064210AC1F10403CA40447804FA75
:1016D00003F184781440214309010E4C0678A1558A
:1016E000047804F01F050124AC4005786D11AD00AD
:1016F00005F1E025C5F8004109E0047804F01F0574
:101700000124AC40044D0678761145F8264070BDA2
:101710000CED00E000E400E080E100E070B50024A2
:101720000EE00021204600F0D9F8002504E000205A
:1017300000F070F9681CC5B2802DF8DB601CC4B2E3
:10174000082CEEDB70BD70B5002406E0002500E03B
:101750006D1CB5F57A7FFBD3641CB4F57A7FF5D3A5
:1017600000F052F8AE2000F03BF9D52000F038F937
:10177000802000F035F9A82000F032F93F2000F079
:101780002FF9D32000F02CF9002000F029F9402097
:1017900000F026F9A12000F023F9C82000F020F97C
:1017A000DA2000F01DF9122000F01AF9812000F073
:1017B00017F9CF2000F014F9D92000F011F9F12029
:1017C00000F00EF9DB2000F00BF9302000F008F9F2
:1017D000A42000F005F9A62000F002F98D2000F009
:1017E000FFF8142000F0FCF8AF2000F0F9F8FFF744
:1017F00095FF70BD10B50246012000E050430B1E5E
:10180000A1F10101FAD110BD08B50121082000F0B5
:10181000A9F910208DF8030003208DF80200202084
:10182000ADF8000069461D48FFF782FE4020ADF884
:10183000000069461948FFF77BFE8020ADF80000E4
:1018400069461648FFF774FE4FF48070ADF800004B
:1018500069461248FFF76CFE4FF40070ADF80000C7
:1018600069460E48FFF764FE012220210B48FFF76E
:10187000F3FE012240210948FFF7EEFE01228021FC
:101880000648FFF7E9FE012211020448FFF7E4FED3
:10189000012251020148FFF7DFFE08BD000C0140A4
:1018A00070B50546002413E0002220210A48FFF706
:1018B000D3FE8020204100EA050240210648FFF7C0
:1018C000CBFE012220210448FFF7C6FE601CC4B2F3
:1018D000082CE9DB70BD0000000C014070B5054626
:1018E0000C4645F0B00000F07BF8102141EA1410DE
:1018F00000F076F804F00F0000F072F870BD000000
:101900002DE9F04105460E461746721ED206110E0D
:101910006A1E5206100EFFF7E1FF002409E0A7F14E
:101920002001134A02EB0111085D00F073F8601CFE
:10193000C4B2082CF3DB721ED206110E6A1E0123FC
:1019400003EB4202D0B2FFF7C9FF00240BE0A7F17E
:101950002001074A02EB011204F10801505C00F07B
:1019600059F8601CC4B2082CF1DBBDE8F08100001E
:10197000723A00082DE9F04780460E4617461D468C
:10198000002415E0281B411E0A20FFF733FFB7FB98
:10199000F0F00A21B0FBF1F201FB120000F1300976
:1019A0003019C1B24A464046FFF7AAFF601CC4B2D4
:1019B000AC42E7DBBDE8F0872DE9F04107460E4673
:1019C0001546002407E02A5D3019C1B23846FFF7FA
:1019D00097FF601CC4B2285D0028F4D1BDE8F081F7
:1019E00010B5044600224FF400710948FFF734FE99
:1019F00000224FF480710648FFF72EFE2046FFF7C5
:101A00004FFF012251020248FFF726FE10BD0000E1
:101A1000000C014010B5044600224FF40071084844
:101A2000FFF71AFE012211020548FFF715FE2046B6
:101A3000FFF736FF012251020148FFF70DFE10BDEE
:101A4000000C014010B500200C49C86048610861D5
:101A50000B49C860486108610A49C860486108616B
:101A60000949C860486108619A21480700F064FA92
:101A70009A21480700F062FA10BD0000D000002053
:101A8000AC00002018010020F400002000B589B04F
:101A90000121084600F056F80121042000F062F808
:101AA00018208DF8230003208DF822000620ADF8C1
:101AB000200008A92148FFF73BFD4FF0804000F0CF
:101AC00093F90020ADF81A00ADF8160040F2CF707F
:101AD000ADF8180040F2CF20ADF8140000208DF8CA
:101AE0001C0005A94FF0804000F02AFA6020ADF8F4
:101AF00004000020ADF80C000120ADF80600002025
:101B0000ADF80A0001A94FF0804000F0C5F960204F
:101B1000ADF804000020ADF80C000120ADF806007F
:101B20000020ADF80A0001A94FF0804000F062F9F2
:101B30000121880700F04CF909B000BD0008014000
:101B40007047000029B1064AD2690243044BDA61AA
:101B500004E0034AD2698243014BDA617047000016
:101B60000010024029B1064A92690243044B9A616F
:101B700004E0034A92698243014B9A617047000076
:101B80000010024030B500210022002400232D4D1A
:101B90006D6805F00C0121B1042905D0082923D175
:101BA00005E0294D056022E0274D05601FE0254D29
:101BB0006D6805F47012234D6D6805F480340225BC
:101BC00005EB92421CB9214D554305600BE01D4DBC
:101BD0006D6805F400351DB11C4D5543056002E0EC
:101BE000194D5543056002E0174D056000BF00BF69
:101BF000144D6D6805F0F0010909154D6B5C056821
:101C0000DD4045600F4D6D6805F4E061090A104D37
:101C10006B5C4568DD4085600A4D6D6805F4605178
:101C2000C90A0B4D6B5C4568DD40C560054D6D68AC
:101C300005F44041890B074D6B5CC568B5FBF3F5B6
:101C4000056130BD0010024000127A0000093D001D
:101C50008800002098000020704710B500F002F8BE
:101C600010BD00000CB500200190009033480068C2
:101C700040F480303149086000BF3048006800F40B
:101C8000003000900198401C0190009818B901980C
:101C9000B0F5A06FF1D12948006800F4003010B110
:101CA0000120009001E0002000900098012843D11D
:101CB0002348006840F01000214908600846006889
:101CC00020F0030008600846006840F00200086049
:101CD0001A48406819494860084640684860084604
:101CE000406840F4806048600846406820F47C10FA
:101CF00048600846406840F4E810486008460068BC
:101D000040F08070086000BF0C48006800F0007070
:101D10000028F9D00948406820F0030007494860CE
:101D20000846406840F00200486000BF0348406831
:101D300000F00C000828F9D10CBD00000010024092
:101D400000200240042808D14FF0E021096941F049
:101D500004014FF0E022116107E04FF0E021096932
:101D600021F004014FF0E02211617047704700003C
:101D700010B51348006840F001001149086008469A
:101D80004068104908400E494860084600680E49FE
:101D900008400B4908600846006820F4802008606D
:101DA0000846406820F4FE0048604FF41F00886039
:101DB000FFF753FF4FF000600449086010BD0000BA
:101DC000001002400000FFF8FFFFF6FE08ED00E003
:101DD00021B1028842F00102028004E002884FF63D
:101DE000FE731A400280704701894FF6F872114065
:101DF0000181704770B5002400220023058C4FF646
:101E0000EF7635400584028C8388048B48F6FF7595
:101E10002C404FF6FF452C400D884FF6FF7606EA22
:101E200005252C434FF6DF752A400D8906EA051576
:101E30002A434D8806EA05152A43154DA84202D0CB
:101E4000144DA8421DD14FF67F752A404D894FF69B
:101E5000FF7606EA05152A434FF6BF752A408D889E
:101E600006EA05152A434FF6FF352B404FF2FF7562
:101E70002B408D8906EA85052B43CD8906EA850529
:101E80002B4383800483CD880587028470BD0000C6
:101E9000002C01400034014070B5002400220023D2
:101EA000058C4FF6FF6635400584028C8388848B51
:101EB0004FF68F752C404FF6FC752C400D882C4347
:101EC0004FF6FF552A400D894FF6FF7606EA0525A5
:101ED0002A434D8806EA05252A43154DA84202D01B
:101EE000144DA8421DD14FF2FF752A404D894FF67F
:101EF000FF7606EA05252A434FF6FF352A408D88EE
:101F000006EA05252A434EF6FF752B404DF6FF7570
:101F10002B408D8906EA05152B43CD8906EA051568
:101F20002B4383808483CD888587028470BD000025
:101F3000002C0140003401400187704781877047C1
:101F4000002202881D4B98420ED01D4B98420BD0A8
:101F5000B0F1804F08D01B4B984205D01A4B9842E5
:101F600002D01A4B984204D14FF68F731A404B8817
:101F70001A43174B984207D0164B984204D04FF69D
:101F8000FF431A40CB881A4302808B8883850B88D5
:101F900003850A4B98420BD0094B984208D00E4B50
:101FA000984205D00D4B984202D00D4B984201D17A
:101FB0000B7A03860123838270470000002C0140C6
:101FC000003401400004004000080040000C0040C4
:101FD0000010004000140040004001400044014057
:101FE0000048014010B540F225511D4800F04AF864
:101FF00010B31B4800F002F9C4B21A48008800F47C
:102000000040C8B91748008800F4804060B10A2C2D
:1020100003D000201349088020E01248008840F4D3
:1020200000401049088019E00D2C06D10D480088A9
:1020300040F480400B49088010E00A480088C0F353
:102040000D0009490C5407480088401C05490880C8
:1020500008460088C72801DD0020088010BD000068
:1020600000380140A4000020D001002021B1828965
:1020700042F40052828104E082894DF6FF731A40D7
:102080008281704770B5024600240023002500209D
:1020900040F66A16B14200D100BFC1F3421501F00B
:1020A0001F03012606FA03F3012D02D1968933405E
:1020B00006E0022D02D1168A334001E0968A3340B1
:1020C0000C12012606FA04F41688344013B10CB140
:1020D000012000E0002070BDF0B50346002400267A
:1020E0000025002040F66A17B94200D100BF18460B
:1020F000C1F3421401F01F06012707FA06F5012C6F
:1021000001D10C3004E0022C01D1103000E0143079
:102110001AB107682F43076002E00768AF43076002
:10212000F0BD00002DE9F04786B005460E460024BC
:10213000A24600BFA1460027B08900B100BF2F46CC
:102140002C8A4CF6FF700440F08804432C82AC8942
:102150004EF6F3100440B088318908437189084372
:102160000443AC81AC8A4FF6FF400440B08904437D
:10217000AC8201A8FFF706FD1F48874202D1DDF8B7
:1021800010A001E0DDF80CA0A88900F4004040B1E7
:102190000AEBCA0000EB0A1031684900B0FBF1F805
:1021A00007E00AEBCA0000EB0A1031688900B0FBB7
:1021B000F1F86420B8FBF0F004012009642101FB70
:1021C0001089A88900F4004040B1322000EBC9001A
:1021D000B0FBF1F000F00700044308E0322000EB10
:1021E00009106421B0FBF1F000F00F0004432C81D2
:1021F00006B0BDE8F087000000380140014688883D
:10220000C0F30800704700BFFEE7490050EAC12054
:1022100018BF04204A0D18BF40F0010040F2FF72C1
:10222000B2EB515F08BF40F00200012808BF052053
:10223000704730380A2801D20120704700207047CB
:10224000014600BF7047000010B56FF00400FFF7B3
:1022500079FD0A4800680A49B0FBF1F009490870A5
:102260000846007800EB4001C1EBC0104FF6FF714B
:1022700001EAC0000449088010BD0000740000207D
:1022800000127A009C0000209E0000200146114AA6
:1022900012884A434FF0E0235A6100229A611A469D
:1022A000126942F001021A6100BF4FF0E02210698A
:1022B00000F001021AB100F48032002AF5D04FF08C
:1022C000E022126922F001024FF0E0231A6100229D
:1022D0009A6170479E00002000BF054A128802F0F4
:1022E0004002002AF9D0C2B2014B1B1D1A80704770
:1022F0000038014010B5002408211448FFF7A3F965
:1023000001280DD11420FFF7C1FF00BF08210F489D
:10231000FFF799F90128F9D01420FFF7B7FF01243E
:1023200010210A48FFF78FF901280DD11420FFF77B
:10233000ADFF00BF10210548FFF785F90128F9D04E
:102340001420FFF7A3FF0224204610BD000801401F
:102350004FF4E13000F030FDFFF776FFFFF7F3F9BF
:10236000FFF794FBFFF76EFBFFF77EF91AE0FFF72C
:10237000C1FF0446012C05D1FE480068401CFD4900
:10238000086007E0022C05D1FBA204210120FFF721
:1023900013FB08E00123F748092102681846FFF7FC
:1023A000E9FA00BFE3E700BFF8E3F2480068072856
:1023B0000ED2DFE800F00D040E41C2F6F4009A21BF
:1023C0004807FFF7B9FD98214FF08040FFF7B6FDB1
:1023D000FEE330E0EA4800880121B1EBD03F2AD18A
:1023E000E8488078E749497801EBC10202EB011126
:1023F00000EB8100E4490860E2480079E149C978CE
:1024000001EBC10202EB011100EB8100DF49086022
:102410000020DB490880DE48806ADE490860DC482D
:10242000C06ADD490860D8480068FEF767FFD748F2
:102430000068FEF7DBFFCDE7002448E0D0480088C5
:102440000121B1EBD03F42D1CE488178407800EBFA
:10245000C00202EB001001EB8000CB490860C948C4
:102460000179C07800EBC00202EB001001EB8000A4
:10247000C64908600020C2490880C548006AC549AD
:102480000860C348406AC4490860BF480068FEF756
:1024900035FFBE480068FEF7A9FFBB480068BE28AC
:1024A00003DDB9480068AA2808DBB8480068DC28C2
:1024B00003DDB6480068BC2800DB641C0523224607
:1024C00009210220FFF756FAFA2C00DB00E0B5E7FD
:1024D00000BF00BF30E0AA4800880121B1EBD03F27
:1024E0002AD1A8488078A749497801EBC10202EBBC
:1024F000011100EB8100A4490860A2480079A149BC
:10250000C97801EBC10202EB011100EB81009F4988
:10251000086000209A4908809D48806A9D490860AB
:102520009B48C06A9C49086097480068FEF7E6FE31
:1025300096480068FEF75AFFCDE72FE090480088E4
:102540000121B1EBD03F29D18E4880788D4949785F
:1025500001EBC10202EB011100EB81008A49086026
:1025600088480179C07800EBC00202EB001001EB53
:102570008000864908600020814908808448806C7A
:10258000844908608248C06C834908607E480068BE
:10259000FEF7B4FE7D480068FEF728FFCEE7CFE0E7
:1025A000FFE700244AE0764800880121B1EBD03FE4
:1025B00044D1744880787349497801EBC10202EB39
:1025C000011100EB8100704908606E4800796D4987
:1025D000C97801EBC10202EB011100EB81006B49EC
:1025E00008600020664908806948006969490860F8
:1025F000674840696849086063480068FEF77EFEE6
:1026000062480068FEF7F2FE5F480068842803DD38
:102610005D4800686E2808DB5C480068962803DD8A
:102620005A480068822800DB641C052322460921E1
:102630000220FFF79FF9322C00DB00E0B3E700BF78
:10264000002449E04E4800880121B1EBD03F43D13E
:102650004C4880784B49497801EBC10202EB0111EB
:1026600000EB81004849086046480179C07800EBDA
:10267000C00202EB001001EB80004449086000201A
:102680003F49088042480069424908604048406923
:10269000414908603C480068FEF730FE3B4800684E
:1026A000FEF7A4FE38480068AD2803DD3648006810
:1026B000B92808DB35480068502803DD3348006836
:1026C0003C2800DB641C0523224609210220FFF779
:1026D00051F9642C00DB00E0B4E700BF2FE028488C
:1026E00000880121B1EBD03F29D1264880782549C7
:1026F000497801EBC10202EB011100EB8100224994
:10270000086020480179C07800EBC00202EB00109D
:1027100001EB80001D4908600020194908801C4811
:10272000806C1C4908601A48C06C1B490860164838
:102730000068FEF7E3FD15480068FEF757FECEE798
:1027400016480068401C15490860084600680428BF
:1027500049D147E00A4800880121B1EBD03F41D17F
:10276000084880780749497801EBC10202EB011162
:1027700016E00000600000204D4F44453A00000084
:10278000A4000020D0010020580000205C000020A0
:10279000000000206C00002070000020500000208D
:1027A00000EB8100F6490860F6480179C07800EB3B
:1027B000C00202EB001001EB8000F349086000202A
:1027C000F2490880F248806CF2490860F048C06C19
:1027D000F1490860EA480068FEF7CCFDEA48006865
:1027E000FEF740FEB6E7002449E0E84800880121F2
:1027F000B1EBD03F43D1E3488078E249497801EB1F
:10280000C10202EB011100EB8100DD490860DD48E7
:102810000179C07800EBC00202EB001001EB8000F0
:10282000D94908600020D9490880D9480069D949A8
:102830000860D7484069D8490860D1480068FEF769
:1028400099FDD1480068FEF70DFECD48006882284A
:1028500003DDCB4800687D2808DBCB48006885286D
:1028600003DDC94800687A2800DB641C0523224682
:1028700009210220FFF77EF81E2C00DB00E0B4E700
:1028800000BF002448E0C14800880121B1EBD03FDF
:1028900042D1BC488078BB49497801EBC10202EBC8
:1028A000011100EB8100B6490860B6480079B549CE
:1028B000C97801EBC10202EB011100EB8100B249C2
:1028C00008600020B14908808F20B24908605C2070
:1028D000B1490860AA480068FEF74CFDAA480068A4
:1028E000FEF7C0FDA6480068872803DDA4480068FD
:1028F000962808DBA4480068532803DDA248006836
:10290000642800DB641C0523224609210220FFF70E
:1029100031F81E2C00DB00E0B5E700BF00244AE0E0
:102920009A4800880121B1EBD03F44D19548807886
:102930009449497801EBC10202EB011100EB8100DF
:102940008F4908608F4800798E49C97801EBC10230
:1029500002EB011100EB81008B49086000208B49DC
:1029600008808B48006B8B4908608948406B8A4916
:10297000086083480068FEF7FDFC83480068FEF7A6
:1029800071FD7F480068B62803DD7D480068AC28EB
:1029900008DB7D4800684D2803DD7B48006841283E
:1029A00000DB641C0523224609210220FEF7E2FF1A
:1029B0001E2C00DB00E0B3E700BF002446E07348B4
:1029C00000880121B1EBD03F40D16E48817840783A
:1029D00000EBC00202EB001001EB800068490860C8
:1029E00068480179C07800EBC00202EB001001EBEF
:1029F000800065490860002064490880D720654947
:102A000008606120644908605D480068FEF7B2FC18
:102A10005D480068FEF726FD59480068DF2803DDA1
:102A200057480068CF2808DB57480068582803DD5E
:102A3000554800686B2800DB641C052322460921E9
:102A40000220FEF797FF1E2C00DB00E0B7E700BF77
:102A500000244AE04D4800880121B1EBD03F44D129
:102A6000484880784749497801EBC10202EB0111DF
:102A700000EB810042490860424800794149C97829
:102A800001EBC10202EB011100EB81003E4908603D
:102A900000203E4908803E48006C3E4908603C48A2
:102AA000406C3D49086036480068FEF763FC3648D4
:102AB0000068FEF7D7FC32480068F02803DD304894
:102AC0000068E62808DB30480068852803DD2E48CA
:102AD00000687A2800DB641C0523224609210220B5
:102AE000FEF748FF1E2C00DB00E0B3E700BF002428
:102AF00055E0264800880121B1EBD03F4FD1214855
:102B00008178407800EBC00202EB001001EB8000FE
:102B10001B4908601B480179C07800EBC00202EB3A
:102B2000001001EB80001849086000201749088058
:102B3000D22018490860A220174908601048006890
:102B4000FEF718FC10480068FEF78CFC0C48006883
:102B5000DC2803DD0A480068CF2808DB0A48006843
:102B6000AA2803DD084800689A2800DB641C0523B6
:102B7000224609210220FEF7FDFE1E2C0FDB0FE08E
:102B800058000020D00100205C000020A40000209C
:102B9000000000206C00002070000020A1E0A8E7E9
:102BA00000BF00244CE0504800880121B1EBD03F29
:102BB00046D14E4880784D49497801EBC10202EB7D
:102BC000011100EB81004A4908604848007900E0A3
:102BD00086E04649C97801EBC10202EB011100EB26
:102BE00081004449086000203F4908804248006A4B
:102BF000424908604048406A414908603C480068D2
:102C0000FEF7B8FB3B480068FEF72CFC384800682C
:102C1000B42803DD36480068AA2808DB3548006878
:102C2000BE2803DD33480068B42800DB641C05239C
:102C3000224609210220FEF79DFE1E2C00DB00E04B
:102C4000B1E700BF002448E0274800880121B1EB2C
:102C5000D03F42D1254880782449497801EBC10210
:102C600002EB011100EB8100214908601F48007947
:102C70001E49C97801EBC10202EB011100EB810092
:102C80001C49086000201849088092201B490860F0
:102C9000A7201B49086016480068FEF76BFB154823
:102CA0000068FEF7DFFB124800689B2803DD104830
:102CB0000068EE2808DB0F480068B22803DD0D48E5
:102CC00000689F2800DB641C05232246092102209E
:102CD000FEF750FE1E2C00DB00E0B5E700BF00BF92
:102CE00000BFFFF762BB0000A4000020D00100205D
:102CF000580000205C000020000000206C00002034
:102D0000700000202DE9F04704460025E1682068A6
:102D100000F03AFD8146E168606900F09DFB60616A
:102D20006169606800F030FD06463046E16900F0F8
:102D3000F7FD01D2E6690DE01E48E16900F024FDCF
:102D40008046314600F0ECFD04D21A48E16900F0FB
:102D50001BFD0646D4E9030100F014FE8246A1687B
:102D600000F012FD8046A16900F0E4FB0746E06830
:102D700020613146484600F06FFB8046394600F03E
:102D80006BFB05462846216A00F0CAFD00D2256A81
:102D90000848216A00F0F8FC8046294600F0C0FD92
:102DA00004D20448216A00F0EFFC05462846BDE83D
:102DB000F0870000000080BF10B586B004460121F6
:102DC00044F20400FEF7CEFE4FF40070ADF814009C
:102DD00003208DF8160018208DF8170005A91C484F
:102DE000FEF7A6FB4FF48060ADF8140004208DF8C8
:102DF000170005A91648FEF79BFB25208DF800005B
:102E000003208DF801008DF8020001208DF80300E9
:102E10006846FEF74BFC01940020ADF80800ADF8C1
:102E20000A00ADF80C00ADF810000C20ADF80E0053
:102E300001A90848FFF776F9012240F2255105481B
:102E4000FFF74AF901210348FFF710F906B010BD5A
:102E5000000801400038014010B500290AD0087868
:102E6000002807D005487844FDF7DEFD002801D092
:102E7000002010BD0248784410BD0000B2120000CE
:102E8000AA12000010B591EA030F48BF83F0004377
:102E900000F1D481841A71EB030C05D2121943EBB3
:102EA0000C03001B61EB0C01DFF824E14FEA115425
:102EB000A4EB135C1EEA430F18BF9EEA445F73D075
:102EC00023EA0E03DCF1200E21EA045143F48013BF
:102ED00032D322FA0CFE10EB0E0023FA0CFE41EB6B
:102EE0000E01CCF1200E03FA0EFE10EB0E0051F194
:102EF0000001B1F5801FCCF1200E32D201EB04515C
:102F000012FA0EF2BDE8104058BF7047401C38BF9F
:102F10005FEA420218BF7047002814BF20F001008A
:102F200041F100014FEA410313F5001F38BF70471C
:102F3000A1F1C04100F074B9012A43EB0302ACF1E6
:102F4000200CDCF11F0E32BF4FF0000E23FA0CF301
:102F500010EB030041EB0451B4EB115FD0D0A1EBB7
:102F6000045101F5801149085FEA300001EB04517A
:102F70000ED350F1000038BF12FA0EFE08D1BDE8A2
:102F80001040C9E7401C38BF5FEA4202CAD1C3E71C
:102F9000BDE810404FEA410313F5001F38BF7047EA
:102FA000A1F1C04100F03CB99EEA445F08D011EAAB
:102FB0005E0FBDE8104004BF01F0004100207047E3
:102FC000BDE8104070B500F0DDF800BF64FBBE3E08
:102FD0000000E0FF4FEA1153A3F58063D3F11E0315
:102FE000A8BFD3F1200C08DB4FF0004242EAC12217
:102FF00052EA505232FA03F0704709420BD4102BB8
:10300000C4BF0020704703F5787CBCF1FF3F05D0BA
:103010004FF0FF3070474FF00000704770B500F080
:10302000B1F800BF4992248000207047F0E700000B
:10303000DFF848C170B51CEA111E1EBF1CEA13154B
:103040009EEA0C0F95EA0C0F00F06F8081EA0304F2
:1030500023EA4C134EEAD47E21EA4C1141F480114C
:1030600043F48013AE44A1FB024CA0FB0365AEF118
:103070007F7E361955EB0C05A1FB034C4CF1000388
:10308000A0FB021C16EB0C06654153F1000309423C
:1030900018BF46F0010613F4007F0BD14FEA03314D
:1030A0004FEA0530340341EA155140EA16506FF0FB
:1030B00003020AE04FEAC3214FEAC520F40241EAC5
:1030C000555140EA56506FF0020202EB2E4201EBDE
:1030D000025585EACE710AD05FEA440C18BF24F08D
:1030E000004450F1000041F1000120EAD47040F2A8
:1030F000FE7C624500D270BDA84214BF4FF08044F0
:103100004FF04044002E08BF0024BEF1806FA8BFDE
:10311000A1F1C041BDE8704080F282804FF0000014
:1031200001F1C04101F0004170479EEA0C0F0CEA2A
:10313000131518BF95EA0C0F06D04FF0000081EA76
:10314000030E0EF0004170BD00F01CF88900013E36
:1031500000F007B800F009B84FEA430C5FEA5C5C86
:1031600008D081EA030100F05BB84FEA410C5FEA46
:103170005C5CF6D14FF00000014970470000FF078A
:103180000000F87F0EF1020E2EF0030E5EF8046BC5
:10319000364205D4012A43EB030515F5001F12D86A
:1031A000012841EB010C1CF5001F0CD80ED14FEA91
:1031B000D17C15F5001F0CEB4C0C0CF1020C08BF78
:1031C0004CEBD37C04E04FF0080C01E04FEAD37CD9
:1031D0000CEB4C0526FA05F606F00706B6F1040CD2
:1031E00006D20EEB860CBDE870404CF0010C604737
:1031F000DFE80CF0090B02024FF000414FF0000035
:10320000A1F5002170BD19461046012851EB0104BB
:1032100018BFD4F5001484BF002001F0004170BD38
:103220000808A0F500114FEA3101704710B591EA86
:10323000030F48BF83F000433FF52CAE841A71EBB7
:10324000030C07D212198CF0004C43EB0C03001B4B
:1032500061EB0C01DFF8A4E14FEA1154A4EB135C1D
:103260001EEA430F18BF9EEA445F00F0B08023EAD5
:103270006E03524221EA0451C3EB6E0338BF5B1E5A
:10328000DCF1200E25D322FA0CFE10EB0E0043FADF
:103290000CFE41EB0E01CCF1200E03FA0EFE10EBFA
:1032A0000E0051F10001CCF1200E29D412FA0EF2D9
:1032B00001EB0451BDE8104058BF7047401C1CBFD3
:1032C000B2F1004F704700280CBF491C20F00100EC
:1032D000704712EB020E43EB030218BF4FF0010ED2
:1032E0004EEA4202ACF1200CDCF11E0E54D943FA36
:1032F0000CFE10EB0E0051F1FF31CCF11E0ED5D5B6
:103300000EF1010E12FA0EFE404141EB010101EBFC
:10331000445C5FEA5C5C10D910EBDE7001EB045199
:1033200038BFBEF1004FBDE8104018BF70470028FD
:103330000CBF491C20F00100704730D24FEAD42C5A
:1033400011F5001124F400641BD0B1FA81F20B3A9C
:10335000A41AA41ED2F12003914030FA03F31943BA
:10336000904001EBCC71002C01EB0451BDE8104002
:10337000A8BF704701F1C0414FF0000001F00041CB
:103380007047B0FA80F310FA03F100D110BDE41ACF
:10339000173C4805C90AE4E701EB045110BD491088
:1033A00001EB0451BDE810404FEA300002E04FF05D
:1033B000000170474A0008BF0042F8D0B2F5001F74
:1033C00028BF704701F000414FF0000070479EEAAF
:1033D000445F07D011EA5E0FBDE8104004BF002132
:1033E00000207047BDE8104070B5FFF7CBFE00BF6E
:1033F00040DFF63E83F00041104670470000E0FFDA
:1034000043004FEAD30C4FEA3C0C43401FBF400738
:103410000CF1605113F0FE4F70471CF0006F03D1A8
:1034200000200CF0004170470CF0004343EA50705C
:1034300010B540EACC0000F028FA00BF000000926E
:103440004FEA0001FFF7ECBE4FF000414FF00000E3
:10345000A1F500217047000090EA010F48BF81F0FC
:10346000004100F19682421A3CBF801A89184FEA47
:10347000D0524FF07F4C1CEA410FA2EBD15318BF42
:103480009CEA026F00F03B804FF0004C4CEA0020B9
:103490004CEA012121FA03FC10EB0C0C1ED202F1C4
:1034A000FF325FEA1C2040EBC25038BF70471CF06F
:1034B0007F0F4FEA400C18BFBCF17F4F38BF7047F9
:1034C000C3F12003994008BF20F00100BCF17F4FF9
:1034D00038BF7047A0F1C04000F01DBA4FEA3C0071
:1034E000000A40EBC25028BF1CF0FF0F4FEA400C0F
:1034F000E6D018BFBCF17F4F38BF7047EAE79CEABF
:10350000026F05D010EA5C0F08BF00F00040704762
:1035100010B500F0BAF900BF64FBBE3E401058BFC2
:10352000C0F14040491058BFC1F140418142EFF322
:10353000008070474FF47F0C1CEAD0121EBF1CEABB
:10354000D11392EA0C0F93EA0C0F00F0858090EAF9
:10355000010F48BF42F4807240F4000C41F40000B7
:103560002CF07F4120F07F4000B58142A2EB0302A6
:103570000FF2081CACEB504EC0F100009EF800E0CA
:103580004FEA4E0E00FB0EFC38BF49004FEA2C1CE0
:1035900002F5FA020CFB0EF34FEACE1E4FEA112C95
:1035A0004FEAC1210EEB635E42EB22420EFB0CFCA4
:1035B0004FEA1C5300FB03114FEA112C4FEA013173
:1035C0000EFB0CFC4FEADC4C00FB0C11C14228BF87
:1035D00009184CEB03335DF804EB10EB410143EBAE
:1035E000C250B2F57C0F38BF704729D512F0F00FEA
:1035F0001CBF00F1C04000F0004070470081828392
:103600008485868788898B8C8D8E8F9192939596F1
:1036100097999A9C9D9FA0A2A3A5A7A8AAACAEB07B
:10362000B2B3B5B7B9BCBEC0C2C5C7C9CCCED1D480
:10363000D7D9DCDFE2E6E9ECF0F3F7FAFE000000B0
:103640004FEA400C0CF1807CBCF17E4F28BF7047E4
:10365000B0F1C04000F05FB990EA010F0CEAD1135D
:1036600048BF42F48072624538BF634507D213F405
:103670007F0F16D080EA010000F00040704710B5BF
:1036800000F003F9097EFC3E00F005B880EA010075
:1036900000F00040704780EA010000F0004000F0B8
:1036A0003AB912F47F0F04BF0248704780EA010064
:1036B00000F031B90000C07F41000B0ED3F19E0233
:1036C00008D950F400034FEA032323FA02F048BF5D
:1036D0004042704710B500F0D8F800BF49922480EE
:1036E000002070476FF0004282EA2000704700001F
:1036F00010F0004148BF4042B0FA80F310FA03F2E4
:10370000C3F19D030BD051EAC35101EB12205306C4
:1037100038BF704700F1010008BF20F0010070477A
:1037200050EA010C00F113801CF5000F58BFBCF5E6
:10373000000F01D48842704707D710F5000F58BF1B
:1037400011F5000F15D488427047894270471CF567
:10375000000F04D5BCF5000FF7D5814270474FF03C
:10376000807C1CEB400F38BF1CEB410F01D2814223
:10377000704710B500F089F8922449004FF00050CE
:103780004FF08051FFF7CABE4FF47F0C1CEAD012F5
:103790001EBF1CEAD11392EA0C0F93EA0C0F00F043
:1037A000478090EA010F48BF42F480724FF0004C0E
:1037B0004CEA00204CEA012102EB0302A0FB0113BA
:1037C000A2F50002002918BF43F001035B0028BFE7
:1037D0004FEA330342EB22425FEA132C4CEBC25018
:1037E0002EBFBCEB436FB2F57C0F70474FEA036C02
:1037F000BCF1004F08BF20F00100B2F57C0F38BFCC
:1038000070470BD582F0FF0212F5803FC8BF7047AA
:1038100000F1C040D8BF00F00040704700F5000C38
:103820005FEA4C0C48BF7047B0F1C04000F073B87D
:1038300090EA010F0CEAD11348BF42F4807262454E
:1038400038BF634504D280EA010000F000407047B1
:1038500010B500F01AF800BF8900013E00F007B86B
:1038600000F009B85FEA410C5FEA1C6C08D080EAFE
:10387000010000F050B85FEA400C5FEA1C6CF6D122
:103880004FF00040A0F5800070470EF1020E2EF0C0
:10389000030E5EF8044B244204D44FEA4102B2F115
:1038A0007F4F11D84FEA4003B3F17F4F0CD80ED1B0
:1038B0004FEAD07CB2F17F4F0CEB4C0C0CF1020CB8
:1038C00008BF4CEBD17C04E04FF0080C01E04FEA5C
:1038D000D17C0CEB4C0324FA03F404F00704B4F19C
:1038E000040C06D20EEB840CBDE810404CF0010C29
:1038F0006047DFE80CF0070802024FF00040A0F537
:10390000800010BD0846420018BFD2F1807288BF07
:1039100000F0004010BDFF2141EAD050C0057047C3
:1039200051EA000C00F113801CF5000F58BFBCF5E4
:10393000000F01D48142704707D711F5000F58BF1F
:1039400010F5000F15D481427047894270471CF56D
:10395000000F04D5BCF5000FF7D5884270474FF033
:10396000807C1CEB410F38BF1CEB400F01D288421A
:10397000704780EA010081EA000180EA0100FFF758
:10398000F8BE000090EA010F48BF81F000413FF50A
:103990006AAD421A04D882F00042A0EB0200114442
:1039A0004FEAD0524FF07F4C1CEA410FA2EBD153AB
:1039B00018BF9CEA026F4AD04FF0004C4CEA00203E
:1039C0004CEA012121FA03FCB0EB0C0C0FD412F0ED
:1039D000FE0F36D05FEA4C001DD5001240EBC250FE
:1039E00038BF70471CF03F0F18BF70470BE0A2F1C3
:1039F00001025FEA1C2040EBC25038BF70471CF048
:103A00007F0F18BF7047C3F12003994014BF401EB9
:103A100020F00100704780084FEA122308BF70476A
:103A2000B0FA80FCA2EB0C02CCF1280C60FA0CF08E
:103A300093EA122F04BF00EBC25070474FEAC370E5
:103A40007047130A5FEADC1008BF7047F6E79CEA8C
:103A5000026F04D010EA5C0F08BF0020704710B559
:103A6000FFF713FF40DFF63E81F000407047FCF7A0
:103A700049BD000000000000000000000000000040
:103A80000000000000F800000000000000333000DB
:103A9000000000100C06100C0600000000000000E2
:103AA000000040C07840C0784000043F04043F0458
:103AB0000400007088FC08300000001820FF211E60
:103AC0000000F008F000E018000000211C031E2197
:103AD0001E0000F00888700000001E212324192712
:103AE000211010160E000000000000000000000071
:103AF0000000000000E01804020000000007182089
:103B0000400000020418E0000000004020180700F8
:103B10000000404080F0804040000202010F01029E
:103B20000200000000F0000000000101011F01017F
:103B30000100000000000000000080B070000000E4
:103B40000000000000000000000000010101010170
:103B50000101000000000000000000303000000003
:103B600000000000000080601804006018060100DA
:103B7000000000E010080810E000000F10202010E6
:103B80000F00001010F8000000000020203F20204F
:103B900000000070080808887000003028242221E6
:103BA000300000300888884830000018202020119C
:103BB0000E000000C02010F8000000070424243F7D
:103BC000240000F808888808080000192120201126
:103BD0000E0000E0108888180000000F112020114E
:103BE0000E0000380808C83808000000003F000038
:103BF00000000070880808887000001C2221212223
:103C00001C0000E010080810E00000003122221122
:103C10000F00000000C0C0000000000000303000B5
:103C20000000000000800000000000008060000034
:103C3000000000008040201008000001020408106D
:103C4000200040404040404040000404040404047C
:103C5000040000081020408000000020100804022A
:103C60000100007048080808F0000000003036012C
:103C70000000C030C828E810E000071827242314EB
:103C80000B000000C038E0000000203C23020227A7
:103C9000382008F8888888700000203F20202011F4
:103CA0000E00C0300808080838000718202020102F
:103CB000080008F808080810E000203F2020201025
:103CC0000F0008F88888E8081000203F20202320F3
:103CD000180008F88888E8081000203F200003003A
:103CE0000000C03008080838000007182020221EF5
:103CF000020008F808000008F808203F210101210F
:103D00003F20000808F8080800000020203F20207D
:103D1000000000000808F8080800C08080807F00CC
:103D2000000008F888C028180800203F2001263825
:103D3000200008F8080000000000203F202020207C
:103D4000300008F8F800F8F80800203F003F003F76
:103D5000200008F830C00008F808203F20000718AD
:103D60003F00E01008080810E0000F10202020108D
:103D70000F0008F808080808F000203F21010101A1
:103D80000000E01008080810E0000F182424385044
:103D90004F0008F8888888887000203F2000030CB6
:103DA00030200070880808083800003820212122BF
:103DB0001C00180808F8080818000000203F200020
:103DC000000008F808000008F808001F2020202044
:103DD0001F000878880000C83808000007380E0166
:103DE0000000F80800F80008F800033C0700073C52
:103DF0000300081868808068180820302C03032C02
:103E000030200838C800C83808000000203F2000D3
:103E1000000010080808C838080020382621202093
:103E20001800000000FE020202000000007F404077
:103E30004000000C30C00000000000000001063807
:103E4000C00000020202FE000000004040407F006F
:103E50000000000004020202040000000000000054
:103E60000000000000000000000080808080808052
:103E7000808000020204000000000000000000003A
:103E8000000000008080808000000019242222228F
:103E90003F2008F8008080000000003F1120201122
:103EA0000E000000008080800000000E1120202005
:103EB0001100000000808088F800000E1120201002
:103EC0003F200000808080800000001F22222222EC
:103ED0001300008080F0888888180020203F202070
:103EE00000000000808080808000006B9494949398
:103EF000600008F8008080800000203F2100002042
:103F00003F2000809898000000000020203F2020E3
:103F10000000000000809898000000C08080807F32
:103F2000000008F8000080808000203F24022D302F
:103F30002000000808F8000000000020203F20209A
:103F400000008080808080808000203F20003F2013
:103F5000003F8080008080800000203F2100002002
:103F60003F200000808080800000001F2020202053
:103F70001F00808000808000000080FFA1202011B1
:103F80000E000000008080808000000E112020A024
:103F9000FF80808080008080800020203F212000E2
:103FA00001000000808080808000003324242424CD
:103FB0001900008080E0808000000000001F2020A9
:103FC00000008080000000808000001F2020201062
:103FD0003F20808080000080808000010E30080635
:103FE000010080800080008080800F300C030C3046
:103FF0000F0000808000808080000020312E0E3174
:104000002000808080000080808080818E70180673
:10401000010000808080808080000021302C2221DF
:10402000300000000000807C020200000000003F21
:10403000404000000000FF00000000000000FF0002
:1040400000000002027C800000000040403F0000B1
:10405000000000060101020204040000000000004C
:104060000000000002400000000000A0000000006E
:1040700005400000000000C8000000000C400000E7
:104080000000409C00000000194000000020BCBE61
:104090000000000034400000BFC91B8E0000000477
:1040A000B5400000504BCFD06607E2CF01000000C2
:1040B0006C4100003E8251AADFEEA73401000000EF
:1040C000D9420000DCB5A0E23A301F97FFFFFFFFA6
:1040D000B4450000FD25A0C8E9A3C14FFFFFFFFFC5
:1040E000FF3F00000000008000000000FF3F0000D4
:1040F00000000080000000003441000800000020A3
:10410000D00100002801000898410008D0010020DB
:1041100028070000840100081C0000004300000084
:10412000F8FFFFFF0C0000000E0000000F00000071
:104130002E00000081327A32D432793291327632D6
:104140004E32B532D632BA5A9310324C5AF6303219
:10415000FB328232FDF2460218017CA24A04246836
:1041600008020304060708090C69100D1002040672
:10417000084C031420414D0AD7A33C1C1E70414239
:1041800060E50C817A103089241AA0040946480B96
:084190008CE040482100000012
:04000005080000ED02
:00000001FF
