:020000040800F2
:10000000A007002089010008B9050008290500089B
:10001000B505000839020008471300080000000079
:10002000000000000000000000000000450D000876
:100030004503000800000000D10A0008D90E00089E
:10004000A3010008A3010008A3010008A301000800
:10005000A3010008A3010008A3010008A3010008F0
:10006000A3010008A3010008A3010008A3010008E0
:10007000A3010008A3010008A3010008A3010008D0
:10008000A3010008A3010008A3010008A3010008C0
:10009000A3010008A3010008A3010008A3010008B0
:1000A000A3010008A3010008A3010008A3010008A0
:1000B000A3010008A3010008A3010008A301000890
:1000C000A3010008A3010008A3010008A301000880
:1000D000A301000805110008A3010008A3010008FE
:1000E000A3010008A3010008A301000800F002F822
:1000F00000F03AF80AA090E8000C82448344AAF188
:100100000107DA4501D100F02FF8AFF2090EBAE885
:100110000F0013F0010F18BFFB1A43F0010318473B
:10012000E826000008270000103A24BF78C878C1EC
:10013000FAD8520724BF30C830C144BF04680C60ED
:10014000704700000023002400250026103A28BF35
:1001500078C1FBD8520728BF30C148BF0B60704739
:100160001FB51FBD10B510BD00F033F81146FFF7E5
:10017000F7FF01F07FF900F051F803B4FFF7F2FF49
:1001800003BC01F0E2F80000094880470948004735
:10019000FEE7FEE7FEE7FEE7FEE7FEE7FEE7FEE737
:1001A000FEE7FEE704480549054A064B7047000094
:1001B000DD0E0008ED000008A0010020A0070020CF
:1001C000A0030020A00300207047704770477047CD
:1001D0007047754600F02CF8AE4605006946534658
:1001E00020F00700854618B020B5FFF7DBFFBDE81B
:1001F00020404FF000064FF000074FF000084FF08E
:10020000000B21F00701AC46ACE8C009ACE8C0091E
:10021000ACE8C009ACE8C0098D46704710B504468B
:10022000AFF300802046BDE81040FFF7A6BF0000F6
:10023000004870474001002000BFFEE72DE9FC5F49
:1002400005460E4691469A46A9EB0500002801DBBB
:10025000014600E04142022914DCAAEB06073348BC
:10026000D0F80080384601F017FE8346414601F081
:100270005FFE0090009880F0004B584600F000FEB2
:10028000BDE8FC9FA9EB050001F006FE2749C86008
:10029000084601F099F901900024AAEB060001F04C
:1002A000FBFD07462148C168384601F0FFFC0446C3
:1002B00084F000400090019901F03AFE834601F07D
:1002C0005BFC07461A4A1B4B01F090FB03D21A480D
:1002D00000F0D6FD1BE084F000400090019901F091
:1002E00027FE834601F048FC0746114A134B01F0F4
:1002F0000DFC03D2124800F0C3FD08E084F0004872
:100300004046019901F014FE074600F0B9FD84F063
:1003100000484046019901F00BFE074600F0B0FD91
:10032000019800F095FD00BFAAE70000340000200E
:100330009A9999999999B9BFCDCCCCBD9999B93F62
:10034000CDCCCC3D70472DE9F0410246002500267A
:10035000002000230024002791F803C00CF00F05B3
:1003600091F803C00CF0100CBCF1000F03D091F811
:1003700002C04CEA050591F800C0BCF1000F31D075
:10038000146800202BE04FF0010C0CFA00F3B1F8D8
:1003900000C00CEA03069E4220D183004FF00F0CF0
:1003A0000CFA03F7BC4305FA03FC4CEA040491F889
:1003B00003C0BCF1280F06D14FF0010C0CFA00FC71
:1003C000C2F814C00AE091F803C0BCF1480F05D18F
:1003D0004FF0010C0CFA00FCC2F810C0401C0828B9
:1003E000D1D31460B1F800C0BCF1FF0F34DD546804
:1003F00000202EE000F1080C4FF0010808FA0CF381
:10040000B1F800C00CEA03069E4221D183004FF0F0
:100410000F0C0CFA03F7BC4305FA03FC4CEA040486
:1004200091F803C0BCF1280F05D100F1080C08FABF
:100430000CF8C2F8148091F803C0BCF1480F07D142
:1004400000F1080C4FF0010808FA0CF8C2F810800F
:10045000401C0828CED35460BDE8F081024600203D
:1004600093680B400BB1012000E000207047416110
:100470007047016170470AB1016100E04161704756
:1004800008B50121042000F035FB0121082000F00F
:1004900031FB10208DF803008020ADF80000032010
:1004A0008DF8020069460A48FFF74DFF10208DF8CD
:1004B00003000120ADF8000003208DF8020069461A
:1004C0000448FFF740FF01210248FFF7D2FF08BDB3
:1004D00000080140000C014008B50121082000F08F
:1004E00009FB10208DF80300C002ADF800000320C6
:1004F0008DF8020069460B48FFF725FF10208DF8A4
:1005000003008002ADF8000003208DF80200694668
:100510000448FFF718FF4FF480410248FFF7A9FF96
:1005200008BD0000000C014000BFFEE708B5012136
:10053000042000F0DFFA28208DF803001820ADF821
:10054000000003208DF8020069460248FFF7FBFE19
:1005500008BD00000008014010B50024082114481F
:10056000FFF77CFF01280DD1142000F013FF00BF1E
:1005700008210F48FFF772FF0128F9D0142000F07E
:1005800009FF012410210A48FFF768FF01280DD157
:10059000142000F0FFFE00BF10210548FFF75EFFAA
:1005A0000128F9D0142000F0F5FE0224204610BDE9
:1005B0000008014000BFFEE77047000070B5002151
:1005C00000230F22C47804B3154C246804F4E064BB
:1005D000C4F5E064210AC1F10403CA40447804FA76
:1005E00003F184781440214309010E4C0678A1558B
:1005F000047804F01F050124AC4005786D11AD00AE
:1006000005F1E025C5F8004109E0047804F01F0574
:100610000124AC40044D0678761145F8264070BDA3
:100620000CED00E000E400E080E100E0024901435D
:10063000024A1160704700000000FA050CED00E06E
:1006400070B500240EE00021204600F0F0F80025EF
:1006500004E0002000F07EF9681CC5B2802DF8DBB4
:10066000601CC4B2082CEEDB70BD000008B501218F
:10067000082000F03FFA14208DF8030003208DF8C5
:1006800002004FF48070ADF8000069460A48FFF799
:100690005AFE4FF40070ADF8000069460648FFF7B7
:1006A00052FE012211020448FFF7E5FE0122510229
:1006B0000148FFF7E0FE08BD000C014070B505469B
:1006C000002415E08020204100EA05024FF400716B
:1006D0000E48FFF7D0FE012211020C48FFF7CBFEB7
:1006E00000224FF480710948FFF7C5FE601CC4B2B8
:1006F000082CE7DB012211020448FFF7BCFE0022B0
:100700004FF480710148FFF7B6FE70BD000C014048
:1007100010B5012251020A48FFF7ADFE0122110275
:100720000748FFF7A8FE00224FF400710448FFF7C6
:10073000A2FE00224FF480710148FFF79CFE10BD1D
:10074000000C014010B500224FF400710648FFF77D
:1007500092FE012211020448FFF78DFE0122510290
:100760000148FFF788FE10BD000C014070B5002461
:1007700006E0002500E06D1CB5F57A7FFBD3641C14
:10078000B4F57A7FF5D3FFF771FFAE2000F0D2F811
:10079000D52000F0CFF8802000F0CCF8A82000F0A1
:1007A000C9F83F2000F0C6F8D32000F0C3F80020BD
:1007B00000F0C0F8402000F0BDF8A12000F0BAF829
:1007C000C82000F0B7F8DA2000F0B4F8122000F0EA
:1007D000B1F8812000F0AEF8CF2000F0ABF8D920BE
:1007E00000F0A8F8F12000F0A5F8DB2000F0A2F856
:1007F000302000F09FF8A42000F09CF8A62000F024
:1008000099F88D2000F096F8142000F093F8AF20AE
:1008100000F090F8FFF714FF70BD10B502460120FC
:1008200000E050430B1EA1F10101FAD110BD70B5DB
:1008300005460C4645F0B00000F07CF8102141EA76
:10084000141000F077F804F00F0141F0020000F0FE
:1008500071F870BD2DE9F04105460E461746721E2F
:10086000D206110E6A1E5206100EFFF7E0FF00249A
:1008700009E0A7F12001134A02EB0111085D00F025
:1008800069F8601CC4B2082CF3DB721ED206110E8C
:100890006A1E012303EB4202D0B2FFF7C8FF002417
:1008A0000BE0A7F12001074A02EB011204F1080155
:1008B000505C00F04FF8601CC4B2082CF1DBBDE8BE
:1008C000F0810000162200082DE9F04780460E4610
:1008D00017461D46002415E0281B411E0A20FFF77D
:1008E0009CFFB7FBF0F00A21B0FBF1F201FB120014
:1008F00000F130093019C1B24A464046FFF7AAFF5D
:10090000601CC4B2AC42E7DBBDE8F0872DE9F041E2
:1009100007460E461546002407E02A5D3019C1B28D
:100920003846FFF797FF601CC4B2285D0028F4D159
:10093000BDE8F08110B50446FFF7EAFE7820FFF726
:10094000BDFE0020FFF7BAFE2046FFF7B7FEFFF717
:10095000F9FE10BD10B50446FFF7DAFE7820FFF768
:10096000ADFE4020FFF7AAFE2046FFF7A7FEFFF7E7
:10097000E9FE10BD00B589B00121022000F0AAF8FF
:100980000121042000F0B6F818208DF82300402043
:10099000ADF8200003208DF8220008A91E48FFF7BB
:1009A000D2FC4FF0804000F0F0FA0020ADF81A00C1
:1009B000ADF816006320ADF818004720ADF814001C
:1009C00000208DF81C0005A9144800F049FB01A87F
:1009D00000F037FB6020ADF804000020ADF80C00FB
:1009E0000120ADF806003220ADF80A0001A90B483D
:1009F00000F0D2FA0121094800F0B8FA08210748AE
:100A000000F016FB0121054800F098FA0121034887
:100A100000F0A0FA09B000BD000801400004004049
:100A200000B589B00121C80200F064F8012104205A
:100A300000F060F818208DF823004FF48070ADF8B6
:100A4000200003208DF8220008A91F48FFF77BFC37
:100A50004FF0804000F099FA0020ADF81A00ADF890
:100A600016006320ADF818004720ADF814000020F0
:100A70008DF81C0005A9154800F0F2FA01A800F055
:100A8000E0FA6020ADF804000020ADF80C00012071
:100A9000ADF806003220ADF80A0001A90B4800F0BD
:100AA0007BFA0121094800F061FA0821074800F0AB
:100AB000BFFA0121054800F041FA0121034800F086
:100AC00049FA09B000BD000000080140002C0140B7
:100AD0007047000029B1064AD2690243044BDA612B
:100AE00004E0034AD2698243014BDA617047000097
:100AF0000010024029B1064A92690243044B9A61F0
:100B000004E0034A92698243014B9A6170470000F6
:100B10000010024030B500210022002400232D4D9A
:100B20006D6805F00C0121B1042905D0082923D1F5
:100B300005E0294D056022E0274D05601FE0254DA9
:100B40006D6805F47012234D6D6805F4803402253C
:100B500005EB92421CB9214D554305600BE01D4D3C
:100B60006D6805F400351DB11C4D5543056002E06C
:100B7000194D5543056002E0174D056000BF00BFE9
:100B8000144D6D6805F0F0010909154D6B5C0568A1
:100B9000DD4045600F4D6D6805F4E061090A104DB8
:100BA0006B5C4568DD4085600A4D6D6805F46051F9
:100BB000C90A0B4D6B5C4568DD40C560054D6D682D
:100BC00005F44041890B074D6B5CC568B5FBF3F537
:100BD000056130BD0010024000127A0000093D009E
:100BE000620000207200002010B504464FF48041DE
:100BF0000E48FFF73EFCB4F1FF3F0FD014B1012CBB
:100C000012D105E04FF480410848FFF730FC0BE0BB
:100C10004FF400410548FFF72CFC05E04FF400417C
:100C20000248FFF724FC00BF00BF10BD000C0140CC
:100C300010B5044601210D48FFF71BFCB4F1FF3F3E
:100C400008D014B1012C0FD109E001210748FFF7AA
:100C50000EFC09E080210648FFF70BFC04E0802130
:100C60000348FFF704FC00BF00BF10BD000C0140AB
:100C7000000801402DE9F04781460021484601F077
:100C8000D7F804D10021124800F0E7F91EE011491D
:100C9000484601F04DF9824600F06EFF07463A469D
:100CA0000B4600200C4900F019FD054600F06EFED1
:100CB0000446A1B2064800F0CEF9254604EBD570F3
:100CC000C0F34F01024800F0C8F900BFBDE8F0874B
:100CD000002C01400000B44740773B412DE9F0472C
:100CE00081460021484601F0A3F804D100211248B2
:100CF00000F0B3F91EE01149484601F019F98246A7
:100D000000F03AFF07463A460B4600200C4900F037
:100D1000E5FC054600F03AFE0446A1B2064800F0A4
:100D20009AF9254604EBD570C0F34F01024800F054
:100D300094F900BFBDE8F087000400400000B4470C
:100D400040773B417047000010B5044600BF40218A
:100D5000044800F027FA0028F9D0A1B2014800F0B9
:100D6000EEFA10BD0038014010B500F001F810BDDA
:100D70000CB50020019000903348006840F48030AA
:100D80003149086000BF3048006800F4003000902E
:100D90000198401C0190009818B90198B0F5A06F17
:100DA000F1D12948006800F4003010B10120009012
:100DB00001E0002000900098012843D123480068FA
:100DC00040F01000214908600846006820F0030048
:100DD00008600846006840F0020008601A48406851
:100DE000194948600846406848600846406840F431
:100DF000806048600846406820F47C1048600846DF
:100E0000406840F4E81048600846006840F0807090
:100E1000086000BF0C48006800F000700028F9D09E
:100E20000948406820F003000749486008464068C8
:100E300040F00200486000BF0348406800F00C002A
:100E40000828F9D10CBD000000100240002002402B
:100E500070B504460021204601F036F906D801207D
:100E6000FFF7C2FE2046FFF705FF08E04FF0FF3016
:100E7000FFF7BAFE84F000452846FFF7FBFE70BD81
:100E800070B504460021204601F01EF906D8012065
:100E9000FFF7CEFE2046FFF721FF08E04FF0FF30BE
:100EA000FFF7C6FE84F000452846FFF717FF70BD28
:100EB000042808D14FF0E021096941F004014FF006
:100EC000E022116107E04FF0E021096921F00401FF
:100ED0004FF0E022116170477047000010B51348D1
:100EE000006840F001001149086008464068104958
:100EF00008400E494860084600680E4908400B4902
:100F000008600846006820F48020086008464068B1
:100F100020F4FE0048604FF41F008860FFF724FFB4
:100F20004FF000600449086010BD0000001002404E
:100F30000000FFF8FFFFF6FE08ED00E021B1028897
:100F400042F08002028004E002884FF67F731A406C
:100F50000280704721B1028842F00102028004E061
:100F600002884FF6FE731A400280704731B1B0F824
:100F7000442042F40042A0F8442005E0B0F84420A8
:100F8000C2F30E02A0F84420704701894FF6F872B0
:100F9000114001817047000070B500240022002339
:100FA000058C4FF6FE7635400584028C8388048BD1
:100FB0004FF68F752C40B51E2C400D882C43751EA6
:100FC0002A400D892A434D882A43144DA8420BD04C
:100FD000134DA84208D0134DA84205D0124DA84287
:100FE00002D0124DA84213D14FF6F7752A404D8911
:100FF0002A434FF6FB752A408D882A434FF6FF653A
:101000002B404FF6FF552B408D892B43CD892B4329
:1010100083800483CD888586028470BD002C0140C6
:1010200000340140004001400044014000480140BC
:101030000A460021018B4FF6F773194011430183D3
:1010400070470021018041808180C1800181418100
:101050008181C1817047818570478186704700001A
:10106000002202881D4B98420ED01D4B98420BD097
:10107000B0F1804F08D01B4B984205D01A4B9842D4
:1010800002D01A4B984204D14FF68F731A404B8806
:101090001A43174B984207D0164B984204D04FF68C
:1010A000FF431A40CB881A4302808B8883850B88C4
:1010B00003850A4B98420BD0094B984208D00E4B3F
:1010C000984205D00D4B984202D00D4B984201D169
:1010D0000B7A03860123838270470000002C0140B5
:1010E000003401400004004000080040000C0040B3
:1010F0000010004000140040004001400044014046
:101100000048014010B540F225511D4800F057F845
:1011100010B31B4800F00EF9C4B21A48008800F45E
:101120000040C8B91748008800F4804060B1A32C83
:1011300003D000201349088020E01248008840F4C2
:1011400000401049088019E0A22C06D10D48008803
:1011500040F480400B49088010E00A480088C0F342
:101160000D0009490C5407480088401C05490880B7
:1011700008460088C72801DD0020088010BD000057
:1011800000380140600000207800002021B18289F1
:1011900042F40052828104E082894DF6FF731A40C6
:1011A0008281704702460020B1F5007F00D100BF68
:1011B00013880B400BB1012000E00020704770B590
:1011C0000246002400230025002040F66A16B142A2
:1011D00000D100BFC1F3421501F01F03012606FA3A
:1011E00003F3012D02D19689334006E0022D02D18E
:1011F000168A334001E0968A33400C12012606FA23
:1012000004F41688344013B10CB1012000E0002032
:1012100070BDF0B50346002400260025002040F6EE
:101220006A17B94200D100BF1846C1F3421401F059
:101230001F06012707FA06F5012C01D10C3004E046
:10124000022C01D1103000E014301AB107682F438E
:10125000076002E00768AF430760F0BD2DE9F04783
:1012600086B005460E460024A24600BFA1460027D0
:10127000B08900B100BF2F462C8A4CF6FF700440A5
:10128000F08804432C82AC894EF6F3100440B088F9
:1012900031890843718908430443AC81AC8A4FF615
:1012A000FF400440B0890443AC8201A8FFF732FC40
:1012B0001F48874202D1DDF810A001E0DDF80CA044
:1012C000A88900F4004040B10AEBCA0000EB0A1004
:1012D00031684900B0FBF1F807E00AEBCA0000EB07
:1012E0000A1031688900B0FBF1F86420B8FBF0F017
:1012F00004012009642101FB1089A88900F4004041
:1013000040B1322000EBC900B0FBF1F000F0070063
:10131000044308E0322000EB09106421B0FBF1F037
:1013200000F00F0004432C8106B0BDE8F0870000F8
:101330000038014001468888C0F308007047C1F3B7
:1013400008028280704700BFFEE700BF70470000C0
:1013500010B56FF00400FFF7ABFD0A4800680A49BA
:10136000B0FBF1F0094908700846007800EB400135
:10137000C1EBC0104FF6FF7101EAC00004490880BC
:1013800010BD00002000002000127A00580000204C
:101390005A0000200146114A12884A434FF0E023C8
:1013A0005A6100229A611A46126942F001021A61DA
:1013B00000BF4FF0E022106900F001021AB100F402
:1013C0008032002AF5D04FF0E022126922F00102AB
:1013D0004FF0E0231A6100229A6170475A00002002
:1013E0001E4800880121B1EBD03F35D11C48007860
:1013F000A0282ED11A4880781949497801EBC102FA
:1014000002EB011100EB81001649086014480079D5
:101410001349C97801EBC10202EB011100EB810015
:10142000114908600E4880790D49497901EBC102E4
:1014300002EB011100EB81000C4908600848017AB9
:10144000C07900EBC00202EB001001EB80000849FC
:1014500008600020014908807047000060000020FB
:101460007800002000000020040000200800002078
:101470000C0000204FF4A060FFF7D8F84FF416508E
:1014800000F0D0F8FFF772F9FFF750F8FFF772FAA3
:10149000FFF7C6FAFEF7F4FFFFF71EF8FFF758FF55
:1014A0000020FFF7D5FC0020FFF7EAFC3BA2052156
:1014B0000120FFF72BFA00BF1AE0FFF74DF80446B2
:1014C000012C05D137480068401C3649086007E008
:1014D000022C05D134A201210420FFF717FA08E0FD
:1014E00001233048194602680220FFF7EDF900BFDA
:1014F000E3E700BF2B480068FFF726FC2948006897
:10150000B8BB35E001232A48194602680320FFF7DB
:10151000DBF908212748FEF7A1FF012810D114208C
:10152000FFF738FF00BF08212248FEF797FF012888
:10153000F9D01420FFF72EFF1D480068FFF704FCC8
:1015400010211C48FEF78AFF012811D11420FFF753
:1015500021FF00BF10211748FEF780FF0128F9D0B6
:101560001420FFF717FF12480068401C104908605C
:10157000C8E7FFE711E0FFF733FF0F48006860B1ED
:101580000E48006848B10E4803680E4802680B48D0
:10159000016809480068FEF751FEECE74E694861B2
:1015A0006F21000018000020676F676F00000000C7
:1015B0001C00002000080140000000200400002062
:1015C0000C000020080000202DE9F047044600250B
:1015D00000260027A846E168206800F0A9FC06461E
:1015E0003946304600F0F4FA8146414600F0F0FA00
:1015F00005462846216A00F067FD00D2256A206A68
:1016000080F000492946484600F05EFD04D20448B7
:10161000216A00F08DFC05462846BDE8F0870000F1
:10162000000080BF10B586B00446012144F20400DA
:10163000FFF760FA4FF40070ADF8140003208DF846
:10164000160018208DF8170005A91C48FEF77BFE30
:101650004FF48060ADF8140004208DF8170005A940
:101660001648FEF770FE25208DF8000003208DF847
:1016700001008DF8020001208DF803006846FEF796
:101680009DFF01940020ADF80800ADF80A00ADF808
:101690000C00ADF810000C20ADF80E0001A90848B0
:1016A000FFF7DCFD012240F225510548FFF7B1FDAF
:1016B00001210348FFF76AFD06B010BD0008014094
:1016C00000380140491058BFC1F140415B1058BF7C
:1016D000C3F140438B42EFF3008070472DE9C041D6
:1016E00030B4DFF8A0C23CEA111418BF3CEA13146E
:1016F00000F0EC8081EA03051CEA111444EAD57479
:1017000018BF1CEA131500F0C780A4EB05044FF0C6
:10171000004545EAC12145EAC32341EA505143EA65
:10172000525304F17F74994204F500344FEAC0200B
:101730004FEAC22208BF904200F09C804FEA136536
:101740000FF24016765D4FEA134506FB05F7C7F129
:10175000807706FB07F74FEAD737A7FB0368764287
:10176000C8F58038A7FB06CE38BFA8F1010807FBF3
:1017700008E64FF0000EA6FB028CE6FB03CEDCF180
:10178000000CCEF1004E38BFAEF1010EA6FB0C5896
:101790004FF000074FF00005E6FB0E87A1FB08C6DF
:1017A000A0FB07CE16EB0E0645F10005E1FB076531
:1017B00015F1E04E7EBFA4F580345FEA46066D4128
:1017C00016F1800745F100054FEA17274FEA066634
:1017D00047EA0567A6F1DE46B6F1805F4FEA1525B8
:1017E0001FD9384624F0010C05EBC471BCF1FE6F23
:1017F00001EB0C1102D8F0BCBDE8008124425CBFB3
:1018000001F5801E9EEAC47F02D4F0BCBDE80081D1
:10181000244238D4F0BCA1F1C041BDE8004100F041
:101820006FB94FEAD22242EA43524FEAD323A7FBD1
:1018300002864FEAD02040EA415007FB03661EEAC9
:101840000E0F4FEAD12105FB026658BFA6EB0056EA
:10185000B6EB00564FEA520E4EEAC37E18EB0E0E60
:1018600056EB530EBDD518EB02085E417F1C55F1B7
:101870000005B6E74FF480154FF000074FF0000663
:101880004FF00008ADE7F0BC4FF0000001F1C0419F
:1018900001F00041BDE8008111EA0C1F0CEA1315AC
:1018A00000D00CE013EA0C1F00F025804FF0000080
:1018B000F0BC81EA030101F00041BDE80081F0BC09
:1018C000BDE8004181EA030100F01AB9F0BCBDE8AF
:1018D000004170B500F0C6F8097EFC3E00F007B884
:1018E00081EA03014FF0000001F00041704781EAF6
:1018F000030100F005B9F0BCBDE800414FF0000065
:1019000021497047FFFDFBF9F7F5F4F2F0EEEDEB3E
:10191000E9E8E6E4E3E1E0DEDDDBDAD8D7D5D4D3ED
:10192000D1D0CFCDCCCBCAC8C7C6C5C4C2C1C0BF39
:10193000BEBDBCBBBAB9B8B7B6B5B4B3B2B1B0AF3F
:10194000AEADACABAAA9A8A8A7A6A5A4A3A3A2A123
:10195000A09F9F9E9D9C9C9B9A99999897979695DE
:1019600095949393929191908F8F8E8E8D8C8C8B7A
:101970008B8A898988888787868585848483838202
:10198000828181800000FF070000F87F4FEA410359
:101990004FEA5353A3F58063D3F11E03C8BFD3F1BD
:1019A000210C0CDD4FF0004242EAC12242EA5052C3
:1019B00032FA03FC8CEAE17CACEBE1707047102B4F
:1019C000C4BF0020704703F5787CBCF1FF3F04D012
:1019D0006FF0004282EA2100704770B500F042F8D3
:1019E0004992248000207047F2E7000051EA030C7E
:1019F00017D41CF5801F58BFBCF5801F00F106806E
:101A0000994218BF704708BF9042704707D711F539
:101A1000801F58BF13F5801F19D49942704789421F
:101A200070471CF5801F08D5BCF5801FF7D58B4289
:101A300018BF704708BF824270474FF4001C1CEB70
:101A4000410F38BF1CEB430F01D28B42704770B57A
:101A500000F008F8922449004FF000514FF08053F5
:101A6000FFF730BE0EF1020E2EF0030E5EF8046B8F
:101A7000364205D4012A43EB030515F5001F12D8A1
:101A8000012841EB010C1CF5001F0CD80ED14FEAC8
:101A9000D17C15F5001F0CEB4C0C0CF1020C08BFAF
:101AA0004CEBD37C04E04FF0080C01E04FEAD37C10
:101AB0000CEB4C0526FA05F606F00706B6F1040C09
:101AC00006D20EEB860CBDE870404CF0010C60476E
:101AD000DFE80CF0090B02024FF000414FF000006C
:101AE000A1F5002170BD19461046012851EB0104F3
:101AF00018BFD4F5001484BF002001F0004170BD70
:101B00000808A0F500114FEA3101704753EA010CB3
:101B100017D41CF5801F58BFBCF5801F00F106804C
:101B20008B4218BF704708BF8242704707D713F532
:101B3000801F58BF11F5801F19D48B4270479B42FC
:101B400070471CF5801F08D5BCF5801FF7D599425A
:101B500018BF704708BF904270474FF4001C1CEB41
:101B6000430F38BF1CEB410F01D2994270470FB4AD
:101B70000CBC03BCFFF76BBF43004FEAD30C4FEA2A
:101B80003C0C43401FBF40070CF1605113F0FE4F67
:101B900070471CF0006F03D100200CF0004170472B
:101BA0000CF0004343EA507010B540EACC0000F05E
:101BB00040FA00BF000000924FEA0001FFF7A0BF0B
:101BC0004FF000414FF00000A1F5002170470000E8
:101BD00090EA010F48BF81F0004100F1AE82421A45
:101BE0003CBF801A89184FEAD0524FF07F4C1CEA54
:101BF000410FA2EBD15318BF9CEA026F00F03B806B
:101C00004FF0004C4CEA00204CEA012121FA03FC81
:101C100010EB0C0C1ED202F1FF325FEA1C2040EBED
:101C2000C25038BF70471CF07F0F4FEA400C18BFFE
:101C3000BCF17F4F38BF7047C3F12003994008BF04
:101C400020F00100BCF17F4F38BF7047A0F1C040C9
:101C500000F035BA4FEA3C00000A40EBC25028BF02
:101C60001CF0FF0F4FEA400CE6D018BFBCF17F4FCD
:101C700038BF7047EAE79CEA026F05D010EA5C0FB4
:101C800008BF00F00040704710B500F0D2F900BF67
:101C900064FBBE3E401058BFC0F14040491058BFE1
:101CA000C1F140418142EFF3008070474FF47F0C57
:101CB0001CEAD0121EBF1CEAD11392EA0C0F93EA61
:101CC0000C0F00F0858090EA010F48BF42F480724B
:101CD00040F4000C41F400002CF07F4120F07F40E4
:101CE00000B58142A2EB03020FF2081CACEB504E90
:101CF000C0F100009EF800E04FEA4E0E00FB0EFC23
:101D000038BF49004FEA2C1C02F5FA020CFB0EF317
:101D10004FEACE1E4FEA112C4FEAC1210EEB635E53
:101D200042EB22420EFB0CFC4FEA1C5300FB03115A
:101D30004FEA112C4FEA01310EFB0CFC4FEADC4C50
:101D400000FB0C11C14228BF09184CEB03335DF8AE
:101D500004EB10EB410143EBC250B2F57C0F38BFEE
:101D6000704729D512F0F00F1CBF00F1C04000F001
:101D700000407047008182838485868788898B8CA8
:101D80008D8E8F919293959697999A9C9D9FA0A2E4
:101D9000A3A5A7A8AAACAEB0B2B3B5B7B9BCBEC034
:101DA000C2C5C7C9CCCED1D4D7D9DCDFE2E6E9ECD5
:101DB000F0F3F7FAFE0000004FEA400C0CF1807CD3
:101DC000BCF17E4F28BF7047B0F1C04000F077B93A
:101DD00090EA010F0CEAD11348BF42F480726245C9
:101DE00038BF634507D213F47F0F16D080EA010095
:101DF00000F00040704710B500F01BF9097EFC3E72
:101E000000F005B880EA010000F00040704780EA69
:101E1000010000F0004000F052B912F47F0F04BF3F
:101E20000248704780EA010000F049B90000C07F15
:101E300050EA010C00F113801CF5000F58BFBCF5EF
:101E4000000F01D48842704707D710F5000F58BF24
:101E500011F5000F15D488427047894270471CF570
:101E6000000F04D5BCF5000FF7D5814270474FF045
:101E7000807C1CEB400F38BF1CEB410F01D281422C
:101E8000704710B500F0D5F8922449004FF000508B
:101E90004FF08051FFF7FEBE10F0004148BF4042B6
:101EA000B0FA80F310FA03F2C3F19D030BD051EAAC
:101EB000C35101EB1220530638BF704700F10100F7
:101EC00008BF20F00100704750EA010C00F11380B8
:101ED0001CF5000F58BFBCF5000F01D488427047B5
:101EE00007D710F5000F58BF11F5000F15D4884221
:101EF0007047894270471CF5000F04D5BCF5000FF0
:101F0000F7D5814270474FF0807C1CEB400F38BF03
:101F10001CEB410F01D28142704710B500F089F8E7
:101F2000922449004FF000504FF08051FFF7B2BEAD
:101F30004FF47F0C1CEAD0121EBF1CEAD11392EAA8
:101F40000C0F93EA0C0F00F0478090EA010F48BF96
:101F500042F480724FF0004C4CEA00204CEA012120
:101F600002EB0302A0FB0113A2F50002002918BF37
:101F700043F001035B0028BF4FEA330342EB2242E8
:101F80005FEA132C4CEBC2502EBFBCEB436FB2F593
:101F90007C0F70474FEA036CBCF1004F08BF20F084
:101FA0000100B2F57C0F38BF70470BD582F0FF02FD
:101FB00012F5803FC8BF704700F1C040D8BF00F0A5
:101FC0000040704700F5000C5FEA4C0C48BF7047BA
:101FD000B0F1C04000F073B890EA010F0CEAD113E1
:101FE00048BF42F48072624538BF634504D280EA3C
:101FF000010000F00040704710B500F01AF800BF73
:102000008900013E00F007B800F009B85FEA410C12
:102010005FEA1C6C08D080EA010000F050B85FEA6B
:10202000400C5FEA1C6CF6D14FF00040A0F5800038
:1020300070470EF1020E2EF0030E5EF8044B2442A0
:1020400004D44FEA4102B2F17F4F11D84FEA400366
:10205000B3F17F4F0CD80ED14FEAD07CB2F17F4F55
:102060000CEB4C0C0CF1020C08BF4CEBD17C04E0E7
:102070004FF0080C01E04FEAD17C0CEB4C0324FA42
:1020800003F404F00704B4F1040C06D20EEB840C44
:10209000BDE810404CF0010C6047DFE80CF0070889
:1020A00002024FF00040A0F5800010BD084642003B
:1020B00018BFD2F1807288BF00F0004010BDFF2130
:1020C00041EAD050C005704751EA000C00F113807E
:1020D0001CF5000F58BFBCF5000F01D481427047BA
:1020E00007D711F5000F58BF10F5000F15D4814226
:1020F0007047894270471CF5000F04D5BCF5000FEE
:10210000F7D5884270474FF0807C1CEB410F38BFF9
:102110001CEB400F01D28842704780EA010081EA3F
:10212000000180EA0100FFF7F8BE000090EA010F0D
:1021300048BF81F000413FF552AD421A04D882F009
:102140000042A0EB020011444FEAD0524FF07F4C06
:102150001CEA410FA2EBD15318BF9CEA026F4AD090
:102160004FF0004C4CEA00204CEA012121FA03FC1C
:10217000B0EB0C0C0FD412F0FE0F36D05FEA4C001F
:102180001DD5001240EBC25038BF70471CF03F0F06
:1021900018BF70470BE0A2F101025FEA1C2040EB80
:1021A000C25038BF70471CF07F0F18BF7047C3F193
:1021B0002003994014BF401E20F0010070478008A2
:1021C0004FEA122308BF7047B0FA80FCA2EB0C0262
:1021D000CCF1280C60FA0CF093EA122F04BF00EB4C
:1021E000C25070474FEAC3707047130A5FEADC10B1
:1021F00008BF7047F6E79CEA026F04D010EA5C0F54
:1022000008BF0020704710B5FFF713FF40DFF63E10
:1022100081F0004070470000000000000000000056
:10222000000000000000000000F8000000000000B6
:1022300000333000000000100C06100C06000000F7
:1022400000000000000040C07840C0784000043F1B
:1022500004043F040400007088FC083000000018EB
:1022600020FF211E0000F008F000E018000000210F
:102270001C031E211E0000F00888700000001E21B3
:1022800023241927211010160E0000000000000062
:10229000000000000000000000E018040200000040
:1022A00000071820400000020418E0000000004071
:1022B000201807000000404080F0804040000202EB
:1022C000010F01020200000000F000000000010107
:1022D000011F01010100000000000000000080B0AB
:1022E000700000000000000000000000000000017D
:1022F00001010101010100000000000000000030A8
:102300003000000000000000000080601804006041
:1023100018060100000000E010080810E000000F9F
:10232000102020100F00001010F800000000002006
:10233000203F20200000007008080888700000304E
:1023400028242221300000300888884830000018F6
:10235000202020110E000000C02010F8000000070F
:102360000424243F240000F8088888080800001985
:10237000212020110E0000E0108888180000000FB6
:10238000112020110E0000380808C838080000008D
:10239000003F000000000070880808887000001CE2
:1023A000222121221C0000E010080810E00000009B
:1023B000312222110F00000000C0C0000000000008
:1023C000003030000000000000800000000000002D
:1023D0008060000000000000804020100800000124
:1023E00002040810200040404040404040000404E7
:1023F00004040404040000081020408000000020B1
:10240000100804020100007048080808F0000000ED
:10241000003036010000C030C828E810E00007187E
:10242000272423140B000000C038E0000000203CEB
:1024300023020227382008F8888888700000203F8F
:10244000202020110E00C0300808080838000718A6
:1024500020202010080008F808080810E000203F9D
:10246000202020100F0008F88888E8081000203F7E
:1024700020202320180008F88888E8081000203F52
:10248000200003000000C0300808083800000718CA
:102490002020221E020008F808000008F808203F4B
:1024A000210101213F20000808F808080000002051
:1024B000203F2020000000000808F8080800C08025
:1024C00080807F00000008F888C028180800203F9E
:1024D00020012638200008F8080000000000203FF6
:1024E00020202020300008F8F800F8F80800203FED
:1024F000003F003F200008F830C00008F808203FE7
:10250000200007183F00E01008080810E0000F1036
:10251000202020100F0008F808080808F000203FCD
:10252000210101010000E01008080810E0000F1868
:10253000242438504F0008F8888888887000203F8D
:102540002000030C3020007088080808380000388C
:10255000202121221C00180808F808081800000093
:10256000203F2000000008F808000008F808001FBD
:10257000202020201F000878880000C838080000AC
:1025800007380E010000F80800F80008F800033CC6
:102590000700073C0300081868808068180820308E
:1025A0002C03032C30200838C800C838080000006D
:1025B000203F2000000010080808C8380800203814
:1025C000262120201800000000FE02020200000068
:1025D000007F40404000000C30C0000000000000C0
:1025E00000010638C00000020202FE0000000040A8
:1025F00040407F00000000000402020204000000CE
:1026000000000000000000000000000000008080CA
:1026100080808080808000020204000000000000B2
:102620000000000000000000808080800000001991
:10263000242222223F2008F8008080000000003F72
:10264000112020110E000000008080800000000E8C
:10265000112020201100000000808088F800000E6A
:10266000112020103F200000808080800000001F8B
:10267000222222221300008080F0888888180020FF
:10268000203F202000000000808080808000006BC0
:1026900094949493600008F8008080800000203FAC
:1026A000210000203F2000809898000000000020BA
:1026B000203F20200000000000809898000000C00B
:1026C0008080807F000008F8000080808000203F2C
:1026D00024022D302000000808F80000000000202F
:1026E000203F202000008080808080808000203F6C
:1026F00020003F20003F8080008080800000203F3D
:10270000210000203F200000808080800000001F0A
:10271000202020201F00808000808000000080FF9B
:10272000A12020110E000000008080808000000E9B
:10273000112020A0FF8080808000808080002020E9
:102740003F21200001000000808080808000003355
:10275000242424241900008080E0808000000000F0
:10276000001F202000008080000000808000001FEB
:10277000202020103F208080800000808080000189
:102780000E300806010080800080008080800F30BD
:102790000C030C300F00008080008080800000203F
:1027A000312E0E312000808080000080808080816A
:1027B0008E701806010000808080808080000021DB
:1027C000302C2221300000000000807C020200003A
:1027D0000000003F404000000000FF00000000003B
:1027E0000000FF0000000002027C800000000040AA
:1027F000403F000000000006010102020404000046
:102800000000000000000000282800080000002050
:102810007800000028010008A028000878000020A7
:10282000280700004401000800000000000000002C
:10283000000000000000000000000000A00F0000E9
:10284000000000000100000000A24A040000000097
:102850000000000001020304060708090742323A9B
:102860000000000000000000000000000000000068
:10287000000000000AD7A33C00000000CDCCCC3DF6
:102880000000000000000000000000000000010245
:1028900003040102030406070809020406080000F5
:040000050800018965
:00000001FF
