:020000040800F2
:10000000B0070020D501000805100008E909000824
:1000100001100008C1060008071C000800000000CD
:1000200000000000000000000000000001120008B5
:10003000C50600080000000079100008151300082C
:10004000EF010008EF010008EF010008EF010008D0
:10005000EF010008EF010008EF010008EF010008C0
:10006000EF010008EF010008EF010008EF010008B0
:10007000EF010008EF010008EF010008EF010008A0
:10008000EF010008EF010008EF010008EF01000890
:10009000EF010008EF010008EF010008EF01000880
:1000A000EF010008B9150008EF010008EF01000892
:1000B000EF010008EF010008EF010008EF01000860
:1000C000EF010008EF010008EF010008EF01000850
:1000D000EF010008E5190008EF010008EF01000832
:1000E000EF010008EF010008EF010008EF01000830
:1000F000EF010008EF010008EF010008EF01000820
:10010000EF010008EF010008EF010008EF0100080F
:10011000EF010008EF010008EF010008EF010008FF
:10012000EF010008EF010008EF010008EF010008EF
:1001300000F002F800F03FF80AA090E8000C8244BA
:100140008344AAF10107DA4501D100F034F8AFF297
:10015000090EBAE80F0013F0010F18BFFB1A43F0A5
:1001600001031847943F0000B43F0000103A24BF39
:1001700078C878C1FAD8520724BF30C830C144BF0C
:1001800004680C607047000000230024002500264E
:10019000103A28BF78C1FBD8520728BF30C148BFEA
:1001A0000B607047642900F04380002070471FB542
:1001B0001FBD10B510BD00F08DF91146FFF7F7FF18
:1001C00001F0D6FD00F0ABF903B4FFF7F2FF03BC7A
:1001D00001F022FD0948804709480047FEE7FEE795
:1001E000FEE7FEE7FEE7FEE7FEE7FEE7FEE7FEE7E7
:1001F00004480549054A064B7047000019130008DA
:1002000031010008B0010020B0070020B003002039
:10021000B0030020704700000FB4044910B503AAD2
:10022000029800F025F910BC5DF814FB680000206E
:100230002DE9F0410646002410687529314616A5BF
:1002400010D0AFF30080002802DA404213A507E087
:1002500031688A0701D512A502E0490704D511A526
:10026000012401E0AFF3008000210A2206F12407F7
:1002700009E0B0FBF2FCB0FBF2F302FB1C003030F3
:1002800078541846491C0028F3D123462A463046A4
:10029000BDE8F04100F093B8000000002D00000020
:1002A0002B000000200000002DE9F0474FF0000A6D
:1002B00089460446C0F820A02046E1688847002807
:1002C00076D0252806D0D4E901219047206A401C29
:1002D0002062F1E7E168204600258847C4F81CA0A9
:1002E00006460027C4F818A02A2E09D0304601F08F
:1002F0008CFC38B304EB8708303EC8F8186019E06E
:1003000059F8041B204604EB87029161E168884795
:10031000012F064618D1E069002820DA25F02005D3
:100320001DE0D8F8180000EB800006EB40003038E4
:10033000C8F818002046E1688847064601F065FCC9
:100340000028EED1012F0AD02E2E08D12046E168D8
:1003500088477F1C0646022F45F02005C4DBA069B4
:10036000002803DA404245F00105A061E80701D00A
:1003700025F01005B6B1A6F14100192802D82036A3
:1003800045F400654A463146204625604D46FFF754
:1003900009FF58B1012806D0ED1D25F0070000F136
:1003A000080989E704E005F1040985E730468AE792
:1003B000206ABDE8F08770477047704770472DE9A5
:1003C000F0470D4699469246044600F1240801681C
:1003D000880604D5E06921F01001216000E00120C9
:1003E000A84201DD471B00E00027A1697A1902EB52
:1003F0000900081AA0612078C00602D42046AFF395
:100400000080002608E0D4E901211AF80600904790
:10041000206A401C761C20624E45F4DB2078C00622
:100420000AD52046AFF3008006E0D4E90121302050
:100430009047206A401C2062381EA7F10107F4DCB7
:1004400007E0D4E9012118F805009047206A401C14
:100450002062281EA5F10105F3DC2046AFF30080E1
:100460002078000602D50220BDE8F0870120FBE7D6
:10047000074B70B50D467B4400F011F80446284642
:1004800000F020F810B14FF0FF3070BD204670BD75
:100490003718000001694A1C02610878704700B5EE
:1004A0008FB0CDE901310021059105497944CDE9AD
:1004B000031011466846FFF7F7FE0FB000BD0000BD
:1004C000E5FFFFFF007B00F08000704700487047A9
:1004D000500100207546FFF7F9FFAE46050069465A
:1004E000534620F00700854618B020B5FFF780FE80
:1004F000BDE820404FF000064FF000074FF0000825
:100500004FF0000B21F00701AC46ACE8C009ACE8A5
:10051000C009ACE8C009ACE8C0098D46704710B509
:100520000446AFF300802046BDE81040FFF74CBE04
:1005300021B1826842F00102826003E0826822F009
:10054000010282607047000010B5044612488442E0
:1005500008D10121401500F0BDFD0021601500F01B
:10056000B9FD17E00D48844208D10121001500F0C3
:10057000B1FD0021201500F0ADFD0BE008488442DC
:1005800008D10121C80300F0A5FD00214FF400406F
:1005900000F0A0FD10BD0000002401400028014033
:1005A000003C0140014600208A6802F004020AB1C2
:1005B000012000E000207047014600208A6802F018
:1005C00008020AB1012000E00020704730B5024661
:1005D0000020002350680F4C20400D790C6844EA3D
:1005E00005242043506090680B4C2040D1E9025410
:1005F0002C434D7944EA450420439060D06A20F4AE
:1006000070000C7C641EE4B2234340EA0350D062C5
:1006100030BD0000FFFEF0FFFDF7F1FF816841F003
:10062000080181607047816841F004018160704772
:1006300000B587B001214FF4047000F03BFD4FF48A
:10064000404000F01BFD28208DF81B000F20ADF866
:10065000180006A9184800F0EFF81848FFF774FFD3
:1006600001208DF80900002004904FF460200390D1
:100670000020019001208DF8140000208DF8080062
:1006800001A90E48FFF7A2FF01210C48FFF750FF18
:100690000A48FFF7C3FF00BF0848FFF78DFF002897
:1006A000FAD10648FFF7BFFF00BF0448FFF77AFF03
:1006B0000028FAD107B000BD00100140002401401D
:1006C00000BFFEE7704710B500F004F800F060F8D6
:1006D00010BD000000B587B00121022000F0DAFC57
:1006E0000121042000F0E6FCC020ADF80000482005
:1006F0008DF8030003208DF802006946224800F0BF
:100700009BF804A801F064F90020ADF810004FF642
:10071000FF70ADF814000020ADF81600ADF812001F
:100720008DF8180004A9194801F000F901A801F09A
:1007300017F80F20ADF80C000020ADF8040001A957
:10074000124800F0B7FF0420ADF8040001A90F48DB
:1007500000F0B0FF01210D4800F068FF01221146B2
:100760000A4801F006F800231A460321074800F062
:100770006FFF0021054801F0AAF80121034800F0AD
:100780005BFF07B000BD000000080140000400400E
:1007900000B587B00121480300F08CFC0121102036
:1007A00000F088FCC020ADF8000003208DF80200A6
:1007B00048208DF8030069461D4800F03DF804A864
:1007C00001F006F90020ADF810004FF6FF70ADF80B
:1007D00014000020ADF81600ADF812008DF81800D6
:1007E00004A9144801F0A2F801A800F0B9FF0F20F5
:1007F000ADF80C000020ADF8040001A90D4800F090
:1008000059FF0420ADF8040001A90A4800F052FF86
:1008100000231A460321074800F01AFF002105486B
:1008200001F055F80121034800F006FF07B000BDB4
:1008300000100140003401402DE9F041024600253E
:100840000026002000230024002791F803C00CF0AC
:100850000F0591F803C00CF0100CBCF1000F03D091
:1008600091F802C04CEA050591F800C0BCF1000FF8
:1008700031D0146800202BE04FF0010C0CFA00F38B
:10088000B1F800C00CEA03069E4220D183004FF06D
:100890000F0C0CFA03F7BC4305FA03FC4CEA040402
:1008A00091F803C0BCF1280F06D14FF0010C0CFAEF
:1008B00000FCC2F814C00AE091F803C0BCF1480F74
:1008C00005D14FF0010C0CFA00FCC2F810C0401C1E
:1008D0000828D1D31460B1F800C0BCF1FF0F34DD9B
:1008E000546800202EE000F1080C4FF0010808FACF
:1008F0000CF3B1F800C00CEA03069E4221D183003C
:100900004FF00F0C0CFA03F7BC4305FA03FC4CEA5A
:10091000040491F803C0BCF1280F05D100F1080CC4
:1009200008FA0CF8C2F8148091F803C0BCF1480F23
:1009300007D100F1080C4FF0010808FA0CF8C2F8D2
:100940001080401C0828CED35460BDE8F081000020
:10095000F0B50A46002300240021002500F00046DF
:10096000B6F1004F02D11D4EF16901E01B4E7168D6
:10097000C0F3034583B200F44016B6F5401F08D11A
:1009800021F07061154E766826F07066134F7E6018
:1009900012E000F48016B6F5801F06D1032606FA91
:1009A00005F4A14341F0706106E0460D360103FAFB
:1009B00006F6B14341F0706122B1460D360103FAEB
:1009C00006F6314300F00046B6F1004F02D1034E67
:1009D000F16101E0014E7160F0BD000000000140D6
:1009E000416170470161704700BFFEE72DE9F041AA
:1009F00004460D4616461F462A2000F039FAA11C6F
:100A000088B200F026FAB11C88B200F022FA2B203E
:100A100000F02EFAE91C88B200F01BFAF91C88B22B
:100A200000F017FA2C2000F023FABDE8F08170B531
:100A300004460D4616462B46224629462046FFF719
:100A4000D5FF304600F005FA70BD2DE9F0470646A7
:100A50000F4614461D46DDF820A0681E83B2601EB6
:100A600082B239463046FFF7C1FFB8460EE0B146C4
:100A700006E0504600F0EDF909F101001FFA80F997
:100A8000A145F6DB08F101001FFA80F8A845EEDB6E
:100A9000BDE8F08708B50121082000F00BFB4FF4FA
:100AA0007C70ADF8000010208DF8030003208DF855
:100AB000020069460448FFF7BFFE4FF47C7102480C
:100AC000FFF790FF08BD0000000C014010B5FFF7D4
:100AD000E1FF40217B48FFF783FF642001F0C2F86B
:100AE00040217848FFF77EFF642001F0BBF84FF407
:100AF00000717448FFF776FF642001F0B3F811200D
:100B000000F0B6F9782001F0ADF8B12000F0B0F9AE
:100B1000022000F0A7F9352000F0A4F9362000F0FB
:100B2000A1F9B22000F0A4F9022000F09BF93520D1
:100B300000F098F9362000F095F9B32000F098F90C
:100B4000022000F08FF9352000F08CF9362000F0FB
:100B500089F9022000F086F9352000F083F936206B
:100B600000F080F9B42000F083F9032000F07AF956
:100B7000C02000F07DF9A22000F074F9022000F0FE
:100B800071F9842000F06EF9C12000F071F9C520E0
:100B900000F068F9C22000F06BF90D2000F062F956
:100BA000002000F05FF9C32000F062F98D2000F012
:100BB00059F92A2000F056F9C42000F059F98D2087
:100BC00000F050F9EE2000F04DF9C52000F050F98A
:100BD0000A2000F047F9362000F04AF9C82000F05A
:100BE00041F9E02000F044F9122000F03BF91C200C
:100BF00000F038F9102000F035F9182000F032F933
:100C0000332000F02FF92C2000F02CF9252000F0E3
:100C100029F9282000F026F9282000F023F92720C0
:100C200000F020F92F2000F01DF93C2000F01AF907
:100C3000002000F017F9032000F014F9032000F061
:100C400011F9102000F00EF9E12000F011F9122046
:100C500000F008F91C2000F005F9102000F002F95E
:100C6000182000F0FFF82D2000F0FCF8282000F0FC
:100C7000F9F8232000F0F6F8282000F0F3F82820F7
:100C800000F0F0F8262000F0EDF82F2000F0EAF850
:100C90003B2000F0E7F8002000F0E4F8032000F02B
:100CA000E1F8032000F0DEF8102000F0DBF83A2035
:100CB00000F0DEF8052000F0D5F8292000F0D8F883
:100CC00010BD0000000C01402DE9FF4F83B0054628
:100CD0008A461746119CAB46204604EBD071C1F3FF
:100CE00047063046F11706EB5171C910614389B2CE
:100CF0000191A7F12000C7B20AEB0400401E83B2A5
:100D0000A819401E82B251462846FFF76FFE4FF0E9
:100D100000094AE0102C06D1264800EB071010F815
:100D2000090002900BE0202C06D1234800EB87102D
:100D300010F80900029002E007B0BDE8F08F4FF014
:100D400000082AE0129868B9012000FA08F0029918
:100D5000084018B1069800F07CF81AE0109800F0EE
:100D600078F816E0012000FA08F00299084020B156
:100D700051462846069AFFF75AFE681C85B2A5EB35
:100D80000B00B04205D15D460AF101001FFA80FA5E
:100D900006E008F1010000F0FF08B8F1080FD1DB10
:100DA00000BF09F101001FFA80F901988145B1DB0C
:100DB00000BFC1E7A01E0008902400082DE9FF4FE6
:100DC00085B0074691461D46DDE913A60020049034
:100DD000304606EBD071C1F3470B002434E0281BEA
:100DE000401EC1B20A2000F0FFFFB9FBF0F00A215B
:100DF000B0FBF1F201FB12080498A0B9681EA042F2
:100E000011DDB8F1000F0CD1002004FB0B71CDE90E
:100E100000A6029088B22022129B0699FFF754FF89
:100E200010E001200490002008F13001CAB204FB58
:100E30000B71CDE900A6029088B2129B0699FFF7CC
:100E400043FF00BF601CC4B2AC42C8DB09B0BDE8C0
:100E5000F08F10B50446201200F01AF8E0B200F04E
:100E600017F810BD10B50446204600F011F810BD6B
:100E700010B5044680210548FFF7B2FD204600F07A
:100E800007F880210148FFF7ADFD10BD000C0140BF
:100E900070B504464FF480711248FFF7A1FD00259C
:100EA00017E010210F48FFF79BFD04F0800020B1F0
:100EB00020210C48FFF796FD03E020210948FFF7A9
:100EC0008FFD10210748FFF78DFD6006040E681C9A
:100ED000C5B2082DE5DB4FF480710248FFF782FDB3
:100EE00070BD0000000C014008B50121052000F094
:100EF000E1F801210B48FFF72BFD4FF48070ADF8AE
:100F0000000010208DF8030003208DF802006946D0
:100F10000548FFF791FC4FF480710348FFF762FD2D
:100F200008BD0000000230000008014008B50121A2
:100F3000182000F0BFF80320ADF8000010208DF855
:100F4000030003208DF8020069460548FFF774FC92
:100F50003020ADF8000069460248FFF76DFC08BD7F
:100F6000000C01400010014000B589B00121084685
:100F700000F090F80121042000F09CF80C20ADF85E
:100F8000200018208DF8230003208DF8220008A9E6
:100F90001A48FFF751FC40F2CF70ADF81800472017
:100FA000ADF814000020ADF81A00ADF8160005A940
:100FB0004FF0804000F0BAFC6020ADF80400012042
:100FC000ADF806000020ADF80C0001A94FF08040FC
:100FD00000F0D8FB01A94FF0804000F02DFC082163
:100FE000C80600F01FFC0821C80600F063FC0121C0
:100FF000880700F021FB09B000BD00000008014097
:1010000000BFFEE77047000070B5002100230F22EB
:10101000C47804B3154C246804F4E064C4F5E064B7
:10102000210AC1F10403CA40447804FA03F1847828
:101030001440214309010E4C0678A155047804F0B0
:101040001F050124AC4005786D11AD0005F1E025C8
:10105000C5F8004109E0047804F01F050124AC4004
:10106000044D0678761145F8264070BD0CED00E081
:1010700000E400E080E100E070470000014600204D
:10108000034A506820F44040084350607047000015
:101090000010024029B1064AD2690243044BDA61CA
:1010A00004E0034AD2698243014BDA6170470000D1
:1010B0000010024029B1064A92690243044B9A612A
:1010C00004E0034A92698243014B9A617047000031
:1010D0000010024029B1064AD2680243044BDA608C
:1010E00004E0034AD2688243014BDA607047000093
:1010F0000010024030B500210022002400232D4DB5
:101100006D6805F00C0121B1042905D0082923D10F
:1011100005E0294D056022E0274D05601FE0254DC3
:101120006D6805F47012234D6D6805F48034022556
:1011300005EB92421CB9214D554305600BE01D4D56
:101140006D6805F400351DB11C4D5543056002E086
:10115000194D5543056002E0174D056000BF00BF03
:10116000144D6D6805F0F0010909154D6B5C0568BB
:10117000DD4045600F4D6D6805F4E061090A104DD2
:101180006B5C4568DD4085600A4D6D6805F4605113
:10119000C90A0B4D6B5C4568DD40C560054D6D6847
:1011A00005F44041890B074D6B5CC568B5FBF3F551
:1011B000056130BD0010024000127A0000093D00B8
:1011C000500000206000002001460020032902D0CA
:1011D00008290CD105E0084A10880022064B1A8025
:1011E00007E0064A10880022044B1A8001E0002024
:1011F00000BF00BF704700002404004024340140B9
:10120000704710B500F002F810BD00000CB50020CA
:10121000019000903348006840F480303149086004
:1012200000BF3048006800F4003000900198401C76
:101230000190009818B90198B0F5A06FF1D1294834
:10124000006800F4003010B10120009001E000209F
:1012500000900098012843D12348006840F0100016
:10126000214908600846006820F00300086008462D
:10127000006840F0020008601A4840681949486058
:101280000846406848600846406840F4806048600E
:101290000846406820F47C1048600846406840F4E6
:1012A000E81048600846006840F08070086000BFA1
:1012B0000C48006800F000700028F9D00948406828
:1012C00020F00300074948600846406840F00200EB
:1012D000486000BF0348406800F00C000828F9D1BE
:1012E0000CBD00000010024000200240042808D17C
:1012F0004FF0E021096941F004014FF0E022116153
:1013000007E04FF0E021096921F004014FF0E022ED
:10131000116170477047000010B51348006840F035
:1013200001001149086008464068104908400E490C
:101330004860084600680E4908400B4908600846A6
:10134000006820F4802008600846406820F4FE0011
:1013500048604FF41F008860FFF753FF4FF00060B4
:101360000449086010BD0000001002400000FFF8B2
:10137000FFFFF6FE08ED00E0F0B50C461546002232
:101380000021068C4FF6FE773E400684028B018CCE
:101390004FF60C7632407E1C06EA03162E4332438B
:1013A000104EB0420ED0104EB0420BD0B0F1804F74
:1013B00008D00E4EB04205D00D4EB04202D00D4EB8
:1013C000B04206D14FF6FD76314044F0010631437C
:1013D00005E04FF6F576314044F0010631430283D3
:1013E0000184F0BD002C01400034014000040040A5
:1013F00000080040000C0040F0B50C4615460022E5
:1014000000210026078C4FF6EF7C07EA0C070784C3
:10141000028B018C4FF6FF7707EA041640F6FF4770
:101420003A404FF6FF7707EA03373A434FF6FF7724
:1014300007EA05273A43114FB8420ED0104FB84281
:101440000BD0B0F1804F08D00E4FB84205D00E4FF0
:10145000B84202D00D4FB84206D14FF6DF7739407F
:1014600046F01007394305E04FF65F77394044F006
:101470001007394302830184F0BD0000002C0140B5
:10148000003401400004004000080040000C00400F
:10149000F0B50C461546002200210026078C4FF6B9
:1014A000FF6C07EA0C070784828B018C4FF6FF77ED
:1014B00007EA04264FF60C773A404FF6FF7707EA23
:1014C00003172F433A43114FB8420ED0104FB84282
:1014D0000BD0B0F1804F08D00E4FB84205D00E4F60
:1014E000B84202D00D4FB84206D14FF6FF573940EF
:1014F00046F48077394305E04FF2FF57394044F412
:101500008077394382830184F0BD0000002C0140C4
:10151000003401400004004000080040000C00407E
:10152000F0B50C461546002200210026078C4EF629
:10153000FF7C07EA0C070784828B018C4FF6FF774C
:1015400007EA043640F6FF473A404FF6FF7707EACE
:1015500005273A434FF6FF7707EA03373A43114F1F
:10156000B8420ED0104FB8420BD0B0F1804F08D027
:101570000E4FB84205D00E4FB84202D00D4FB842C0
:1015800006D14DF6FF77394046F48057394305E0E0
:1015900047F6FF57394044F480573943828301842A
:1015A000F0BD0000002C0140003401400004004068
:1015B00000080040000C004010B50121144800F064
:1015C00068F818B30820FFF7FFFD124908600320F0
:1015D000FFF7FAFD10490860104800680D490968D6
:1015E00008440E4908600E4800680B490968084421
:1015F0000B4908600121064800F01BF8002109484A
:1016000000F065F90021084800F061F910BD000004
:10161000002C0140700000207400002078000020A1
:101620007C0000200004004000340140CA430282D4
:101630007047CA430282704721B1028842F001021A
:10164000028004E002884FF6FE731A400280704761
:10165000F0B50C4615461E460021002200230189E4
:10166000028B038C4FF6F877394021434FF6FC4745
:101670003A4040F201173A434FF6DD773B404FF6D0
:10168000FF7707EA06172F433B4301810283038458
:10169000F0BD30B50246002000230024158A05EA7B
:1016A0000103958905EA010413B10CB1012000E0A2
:1016B000002030BD70B505460C46244885420ED04A
:1016C000234885420BD0B5F1804F08D02148854290
:1016D00005D02148854202D02048854200D100E053
:1016E00000BF208850B92389A28861882846FFF767
:1016F00043FEE188284600F0ECF825E02088042825
:101700000AD12389A28861882846FFF775FEE188FF
:10171000284600F0E7F817E0208808280AD1238936
:10172000A28861882846FFF7B3FEE188284600F0CA
:10173000E6F809E02389A28861882846FFF7F0FED1
:10174000E188284600F0E4F870BD0000002C01405C
:10175000003401400004004000080040000C00403C
:10176000002101804180012181800021C18001810F
:1017700070471AB183890B43838102E083898B43CD
:101780008381704770B5002400220023058C4FF63A
:10179000FF6635400584028C8388848B4FF68F75F5
:1017A0002C404FF6FC752C400D882C434FF6FF550E
:1017B0002A400D894FF6FF7606EA05252A434D8813
:1017C00006EA05252A43154DA84202D0144DA84229
:1017D0001DD14FF2FF752A404D894FF6FF7606EA7C
:1017E00005252A434FF6FF352A408D8806EA052550
:1017F0002A434EF6FF752B404DF6FF752B408D8921
:1018000006EA05152B43CD8906EA05152B4383808F
:101810008483CD888587028470BD0000002C014040
:10182000003401400A460021818B4FF6F7731940BE
:10183000114381837047000070B50022002300240B
:10184000058C4EF6FF7635400584038C8488828BA8
:1018500048F6FF752A404FF6FF452A400D884FF69F
:10186000FF7606EA05252A434DF6FF752B400D89C4
:1018700006EA05352B434D8806EA05352B430B4D0B
:10188000A84202D00A4DA84208D14BF6FF752C4061
:101890008D894FF6FF7606EA85152C438480828376
:1018A000CD88A0F84050038470BD0000002C01409A
:1018B000003401400A460021818B4FF2FF7319402A
:1018C0004FF6FF7303EA0223194381837047818433
:1018D0007047028B4FF6F3731A400283028B0A4360
:1018E00002837047028B4FF2FF331A400283028B50
:1018F0004FF6FF7303EA01231A4302837047828B7A
:101900004FF6F3731A408283828B0A4382837047B7
:10191000828B4FF2FF331A408283828B4FF6FF7324
:1019200003EA01231A4382837047000000220288E1
:101930001D4B98420ED01D4B98420BD0B0F1804FFA
:1019400008D01B4B984205D01A4B984202D01A4B34
:10195000984204D14FF68F731A404B881A43174BA5
:10196000984207D0164B984204D04FF6FF431A40D6
:10197000CB881A4302808B8883850B8803850A4BAA
:1019800098420BD0094B984208D00E4B984205D094
:101990000D4B984202D00D4B984201D10B7A038631
:1019A0000123838270470000002C01400034014075
:1019B0000004004000080040000C004000100040FF
:1019C0000014004000400140004401400048014034
:1019D0004FF6FF71818000210180C180418001723A
:1019E0007047000010B540F225511D4800F04AF83C
:1019F00010B31B4800F002F9C4B21A48008800F482
:101A00000040C8B91748008800F4804060B10A2C33
:101A100003D000201349088020E01248008840F4D9
:101A200000401049088019E00D2C06D10D480088AF
:101A300040F480400B49088010E00A480088C0F359
:101A40000D0009490C5407480088401C05490880CE
:101A500008460088C72801DD0020088010BD00006E
:101A6000003801406C0000208800002021B18289EC
:101A700042F40052828104E082894DF6FF731A40DD
:101A80008281704770B502460024002300250020A3
:101A900040F66A16B14200D100BFC1F3421501F011
:101AA0001F03012606FA03F3012D02D19689334064
:101AB00006E0022D02D1168A334001E0968A3340B7
:101AC0000C12012606FA04F41688344013B10CB146
:101AD000012000E0002070BDF0B503460024002680
:101AE0000025002040F66A17B94200D100BF184611
:101AF000C1F3421401F01F06012707FA06F5012C75
:101B000001D10C3004E0022C01D1103000E014307F
:101B10001AB107682F43076002E00768AF43076008
:101B2000F0BD00002DE9F04786B005460E460024C2
:101B3000A24600BFA1460027B08900B100BF2F46D2
:101B40002C8A4CF6FF700440F08804432C82AC8948
:101B50004EF6F3100440B088318908437189084378
:101B60000443AC81AC8A4FF6FF400440B089044383
:101B7000AC8201A8FFF7BEFA1F48874202D1DDF808
:101B800010A001E0DDF80CA0A88900F4004040B1ED
:101B90000AEBCA0000EB0A1031684900B0FBF1F80B
:101BA00007E00AEBCA0000EB0A1031688900B0FBBD
:101BB000F1F86420B8FBF0F004012009642101FB76
:101BC0001089A88900F4004040B1322000EBC90020
:101BD000B0FBF1F000F00700044308E0322000EB16
:101BE00009106421B0FBF1F000F00F0004432C81D8
:101BF00006B0BDE8F0870000003801400146888843
:101C0000C0F30800704700BFFEE730380A2801D251
:101C10000120704700207047014600BF7047000058
:101C200010B56FF00400FFF761FB0A4800680A492D
:101C3000B0FBF1F0094908700846007800EB40015C
:101C4000C1EBC0104FF6FF7101EAC00004490880E3
:101C500010BD00003C00002000127A00640000204B
:101C6000660000200146114A12884A434FF0E023E3
:101C70005A6100229A611A46126942F001021A6101
:101C800000BF4FF0E022106900F001021AB100F429
:101C90008032002AF5D04FF0E022126922F00102D2
:101CA0004FF0E0231A6100229A617047660000201D
:101CB00000BF054A128802F04002002AF9D0C2B2E1
:101CC000014B1B1D1A8070470038014010B51B489E
:101CD00000880121B1EBD03F2FD119480078A0280E
:101CE0001FD1174840781749086015488078164971
:101CF0000860144800687F2806DD12480068C0F5B7
:101D0000807040420F4908600E48006800EBC00137
:101D100001EB00100C49096801EB8000A0300B4971
:101D200008600A480368084802680648016808A075
:101D3000FEF772FA00200149088010BD6C000020F7
:101D40008800002020000020240000201C0000202B
:101D50007831203D20256420207832203D202564E4
:101D600020207475726E203D2025640D0A0000004D
:101D70000EB5FEF7A8FC4FF4165000F041F8FFF73F
:101D8000D5F8FFF7F1F8FEF753FCFFF749FFFFF72F
:101D9000ABF8FEF79BFE4FF6FF7080231A4600213A
:101DA00000900846FEF751FE17E0FFF78FFF102066
:101DB0004FF6FF714FF47842CDE9002102900748B9
:101DC000008882B2032312210120FEF7F7FF0448A6
:101DD0000068C0430349C1F8A001E6E71C000020E9
:101DE000A00121420000214210B50246012000E07E
:101DF00050430B1EA1F10104E1B2F9D110BD000066
:101E000010B586B00446012144F20400FFF752F9F0
:101E10004FF40070ADF8140003208DF81600182060
:101E20008DF8170005A91C48FEF706FD4FF48060E9
:101E3000ADF8140004208DF8170005A91648FEF728
:101E4000FBFC25208DF8000003208DF801008DF8A3
:101E5000020001208DF803006846FFF7D5F80194D1
:101E60000020ADF80800ADF80A00ADF80C00ADF8A0
:101E700010000C20ADF80E0001A90848FFF752FE33
:101E8000012240F225510548FFF726FE01210348B3
:101E9000FFF7ECFD06B010BD00080140003801401E
:101EA0000000000000000000000000000000000032
:101EB00000000008080808080808000018180000BA
:101EC00000486C2412000000000000000000000028
:101ED0000000002424247F1212127F12121200002C
:101EE0000000081C2A2A0A0C1828282A2A1C08087C
:101EF00000000022251515152A58545454220000BC
:101F00000000000C1212120A76252911916E0000B1
:101F100000060604030000000000000000000000AE
:101F20000040201010080808080808101020400081
:101F30000002040808101010101010080804020015
:101F40000000000008086B1C1C6B08080000000063
:101F500000000000080808087F08080808000000C2
:101F6000000000000000000000000000060604035E
:101F70000000000000000000FE0000000000000063
:101F80000000000000000000000000000606000045
:101F900000008040402020101008080404020200C5
:101FA00000000018244242424242424224180000EB
:101FB000000000080E08080808080808083E00008D
:101FC0000000003C4242422020100804427E0000F3
:101FD0000000003C4242201820404042221C0000E9
:101FE000000000203028242422227E2020780000B7
:101FF0000000007E0202021A26404042221C00001D
:10200000000000382402021A26424242241800002E
:102010000000007E222210100808080808080000AE
:102020000000003C4242422418244242423C00004C
:10203000000000182442424264584040241C000022
:102040000000000000001818000000001818000030
:102050000000000000000008000000000008080464
:102060000000004020100804020408102040000076
:102070000000000000007F0000007F000000000062
:102080000000000204081020402010080402000094
:102090000000003C4242464020101000181800008A
:1020A0000000001C225A555555552D42221C000097
:1020B0000000000808181414243C224242E70000E3
:1020C0000000001F2222221E22424242221F000044
:1020D0000000007C4242010101010142221C00007B
:1020E0000000001F2242424242424242221F0000A0
:1020F0000000003F4212121E12120242423F000034
:102100000000003F4212121E1212020202070000DB
:102110000000003C2222010101712122221C00004A
:10212000000000E7424242427E42424242E7000053
:102130000000003E0808080808080808083E0000DB
:102140000000007C10101010101010101010110F53
:102150000000007722120A0E0A12122222770000D3
:10216000000000070202020202020202427F000097
:1021700000000077363636362A2A2A2A2A6B0000D3
:10218000000000E346464A4A52525262624700004B
:102190000000001C2241414141414141221C0000FC
:1021A0000000003F424242423E020202020700009B
:1021B0000000001C2241414141414D53321C60004E
:1021C0000000003F4242423E1212222242C700005B
:1021D0000000007C4242020418204042423E0000BF
:1021E0000000007F4908080808080808081C0000CB
:1021F000000000E74242424242424242423C00006A
:10220000000000E7424222242414141808080000A9
:102210000000006B494949495555362222220000E9
:10222000000000E7422424181818242442E7000084
:10223000000000772222141408080808081C000077
:102240000000007E2120101008040442423F0000DC
:10225000007808080808080808080808080878002E
:10226000000002020404080808101020202040404A
:10227000001E1010101010101010101010101E0062
:1022800000384400000000000000000000000000D2
:10229000000000000000000000000000000000FF3F
:1022A0000006080000000000000000000000000020
:1022B000000000000000003C4278444242FC000064
:1022C000000000030202021A26424242261A0000BF
:1022D0000000000000000038440202024438000000
:1022E00000000060404040784442424264D8000010
:1022F000000000000000003C427E0202423C000060
:10230000000000F08808087E08080808083E000061
:10231000000000000000007C22221C023C42423CE3
:10232000000000030202023A4642424242E7000035
:102330000000000C0C00000E08080808083E000011
:102340000000003030000038202020202020221EF5
:102350000000000302020272120A16122277000025
:102360000000000E0808080808080808083E0000D9
:10237000000000000000007F9292929292B700004D
:10238000000000000000003B4642424242E70000DD
:10239000000000000000003C42424242423C00007B
:1023A000000000000000001B26424242221E0207DD
:1023B000000000000000007844424242447840E0BF
:1023C00000000000000000774C040404041F00001B
:1023D000000000000000007C42023C40423E000041
:1023E000000000000008083E080808080830000047
:1023F00000000000000000634242424262DC000034
:1024000000000000000000E7422424140808000037
:1024100000000000000000EB494955552222000051
:10242000000000000000007624181818246E000038
:1024300000000000000000E74224241418080807E8
:10244000000000000000007E22100808447E00000A
:1024500000C0202020202010202020202020C0008C
:10246000101010101010101010101010101010106C
:1024700000060808080808100808080808080600E8
:102480000C32C2000000000000000000000000004C
:10249000000000000000000000000000000000003C
:1024A000000000000000000000000000000000002C
:1024B000000000000000000000000000000000001C
:1024C000000000000000000000000000000000000C
:1024D00000000000000000000000C001C001C001B9
:1024E000C001C001C001C0018000800080008000E8
:1024F00080008000800000000000000000008001DB
:10250000C003C003800100000000000000000000C4
:10251000000000000000E01CE01CF01E700E3807F8
:102520001803080184000000000000000000000003
:10253000000000000000000000000000000000009B
:10254000000000000000000000000000000000008B
:10255000000000000000000000000000201020101B
:10256000201020102010FE7FFE7F10081008100899
:102570001008100810081008FE7FFE7F08040804E9
:102580000804080408040000000000000000000027
:10259000000000000000000000010001C0076019F9
:1025A000103118311839183938017001E001C003B1
:1025B0008007000F001D003900311C311C310C3127
:1025C0000C11180DE00700010001000100000000DF
:1025D0000000000000000000000000001C10361881
:1025E0006308630C63046304630263026301361DC2
:1025F0009C378022806340634063206320633063A4
:1026000010221836081C0000000000000000000026
:10261000000000000000000000000000F000980131
:102620008C018C018C018C018C00CC007800183E50
:102630001C083608320863046304C304C3038343DD
:1026400006438E26781C00000000000000000000F9
:102650000000000000001C003C003C003000300086
:1026600010000C0006000000000000000000000048
:10267000000000000000000000000000000000005A
:10268000000000000000000000000000000000004A
:102690000000000000000040002000100008000CB6
:1026A0000004000600030003000380018001800194
:1026B000800180018001800180010003000300038C
:1026C00000060006000C000800100020004000007A
:1026D00000000000000002000400080010003000AC
:1026E00020006000C000C000C000800180018001A7
:1026F00080018001800180018001C000C000C00015
:1027000060006000300010000800040002000000BB
:1027100000000000000000000000000000000000B9
:1027200000018003800300011C713C79783DC007E3
:102730000001C007783D3C791C71000180038003D3
:102740008001000000000000000000000000000008
:102750000000000000000000000000000000000079
:102760000000000100010001000100010001000162
:10277000FC7F0001000100010001000100010001D7
:102780000000000000000000000000000000000049
:102790000000000000000000000000000000000039
:1027A0000000000000000000000000000000000029
:1027B0000000000000000000000000000000000019
:1027C0001C003C003C003000300010000C000600F3
:1027D00000000000000000000000000000000000F9
:1027E00000000000000000000000000000000000E9
:1027F000FE7F00000000000000000000000000005C
:1028000000000000000000000000000000000000C8
:1028100000000000000000000000000000000000B8
:1028200000000000000000000000000000000000A8
:102830000000000000000000000000000000180080
:102840003C003C00180000000000000000000000F8
:102850000000000000000040006000200030001078
:1028600000180008000C000400060002000300012C
:1028700080018000C0004000600020003000100097
:10288000180008000C000400060002000000000010
:10289000000000000000000000000000C007600C05
:1028A00030181830183018200C600C600C600C6068
:1028B0000C600C600C600C600C6018201830183034
:1028C0003018600CC007000000000000000000008D
:1028D0000000000000000000000000000001800176
:1028E000F801800180018001800180018001800168
:1028F00080018001800180018001800180018001D0
:102900008001C003F81F000000000000000000006C
:10291000000000000000000000000000E007101CA4
:102920000818043004300C300C3000300018000857
:102930000004000200018000400020201020082038
:102940000430FC1FFC1F000000000000000000001D
:10295000000000000000000000000000E003180E6E
:102960000C0C0C180C180C180018000C0006C003F6
:10297000000E00180010003000300C300C300C102D
:102980000C18180CE003000000000000000000001C
:10299000000000000000000000000000000C000E1D
:1029A000000E000F800E800E400E600E200E100EE6
:1029B000100E080E040E040EFE7F000E000E000E18
:1029C000000E000E000EC07F00000000000000009E
:1029D000000000000000000000000000F03FF03F99
:1029E00010001000100008000800C807280C181874
:1029F000081000300030003000300C300C3004186B
:102A00000418080CF00300000000000000000000A3
:102A1000000000000000000000000000800FC01057
:102A2000203010301800180008000C008C0F6C18B3
:102A30003C301C600C600C600C600C60186018204E
:102A400030306018C00700000000000000000000E7
:102A5000000000000000000000000000F83FF83F08
:102A60001C100C0804080404000400020002000109
:102A700000010001800080008000C000C000C00094
:102A8000C000C000C0000000000000000000000006
:102A9000000000000000000000000000E007300C13
:102AA00018180C300C300C301C3038187008E00747
:102AB000B007180E0C1C06380630063006300630FB
:102AC0000C18180CE00300000000000000000000DB
:102AD000000000000000000000000000E0031804F7
:102AE0000C080C1806100630063006300630063882
:102AF0000C3C1836F03100300018001800180C0C8F
:102B00000C060C03F00100000000000000000000B3
:102B100000000000000000000000000000000000B5
:102B2000000000000000000000008001C003C0039E
:102B30008001000000000000000000000000800193
:102B4000C003C0038001000000000000000000007E
:102B50000000000000000000000000000000000075
:102B600000000000000000000000C000C0000000E5
:102B70000000000000000000000000000000000055
:102B80000000C000C0008000800040004000000045
:102B900000000000000000000000002000100008FD
:102BA0000004000600038001C0006000300018002F
:102BB0000C00180030006000C00080010003000617
:102BC00000040008001000200000000000000000C9
:102BD00000000000000000000000000000000000F5
:102BE00000000000000000000000FE7F0000000068
:102BF000000000000000FE7F000000000000000058
:102C000000000000000000000000000000000000C4
:102C10000000000000000000000004000800100098
:102C200020006000C000800100030006000C0018B6
:102C300000300018000C000600038001C000600096
:102C40002000100008000400000000000000000048
:102C500000000000000000000000C007301808302D
:102C600008600C601C601C601C600030001C0006CA
:102C700000018000800080008000000000008001D2
:102C8000C003C0038001000000000000000000003D
:102C9000000000000000000000000000C0076018F5
:102CA000103018200C2F8C4D864CC64CC64C664CF0
:102CB00066446644662666266615CC1C0C400820D1
:102CC00018303018C00700000000000000000000AD
:102CD000000000000000000000000001C001C00171
:102CE000C0014001600320032003200330061006CA
:102CF00010061006F80F080C080C080C0C0C041831
:102D0000041806181F7C00000000000000000000EE
:102D1000000000000000000000000000FE07181C7A
:102D2000183818301830183018301818180CF807E0
:102D3000181818301820186018601860186018608B
:102D400018301818FE0F00000000000000000000FE
:102D5000000000000000000000000000C0276038F4
:102D6000103018200C400C4004000600060006003D
:102D7000060006000600060006000C400C400C2071
:102D800018303018C00700000000000000000000EC
:102D9000000000000000000000000000FE03180E0C
:102DA000181818301830183018601860186018603B
:102DB0001860186018601860186018301830181003
:102DC0001818180EFE0300000000000000000000AC
:102DD000000000000000000000000000FE3F18306E
:102DE000182018601840180018081808180CF80F58
:102DF000180C180818081800180018001840184077
:102E000018201830FE3F0000000000000000000005
:102E1000000000000000000000000000FE7F1870AD
:102E2000184018C018801800181018101818F81F2B
:102E3000181818101810180018001800180018009A
:102E4000180018007E0000000000000000000000D4
:102E5000000000000000000000000000C013701C13
:102E6000101018100C200C200400060006000600AC
:102E70000600060006FC063006300C300C30183018
:102E800018303008C00700000000000000000000FB
:102E90000000000000000000000000003F7E0C1851
:102EA0000C180C180C180C180C180C180C180C1802
:102EB000FC1F0C180C180C180C180C180C180C18FB
:102EC0000C180C183F7E00000000000000000000FD
:102ED000000000000000000000000000F81F80015A
:102EE00080018001800180018001800180018001DA
:102EF00080018001800180018001800180018001CA
:102F000080018001F81F00000000000000000000A8
:102F1000000000000000000000000000E07F00064C
:102F20000006000600060006000600060006000671
:102F30000006000600060006000600060006000661
:102F400000060006000600060E060E038E01FC00B9
:102F50000000000000000000000000007E7C181847
:102F60001808180418061802180198019801D801C9
:102F7000B803380318071806180E180C181C181870
:102F8000183018307EFC0000000000000000000037
:102F90000000000000000000000000007E0018009B
:102FA0001800180018001800180018001800180061
:102FB00018001800180018001800180018401840D1
:102FC00018201830FE3F0000000000000000000044
:102FD0000000000000000000000000001FF81C3886
:102FE0001C381C381C3C3434343434343436743299
:102FF0006432643264326431C431C431C431C430A7
:10300000C43084309FFC000000000000000000007D
:103010000000000000000000000000001F7C1C10E9
:103020003C103410341074106410E410C410C41137
:1030300084118413041304170416041E041C041CB6
:10304000041C04181F18000000000000000000000D
:10305000000000000000000000000000C003300C71
:10306000181808100C300C30066006600660066008
:10307000066006600660066006600C200C300810D2
:103080001818300CC0030000000000000000000011
:10309000000000000000000000000000FE0F1818F3
:1030A0001830186018601860186018601830181808
:1030B000F80F180018001800180018001800180061
:1030C000180018007E000000000000000000000052
:1030D000000000000000000000000000C003300CF1
:1030E00018180C100C300C20066006600660066094
:1030F00006600660066006600660E4612C331C32E0
:103100001816300EC007004C007C0038000000008C
:10311000000000000000000000000000FE07181C76
:10312000183818301830183018301818180CF807DC
:1031300098031803180718061806180E180C180C10
:10314000181C18187E780000000000000000000025
:10315000000000000000000000000000E027303800
:1031600018300C200C200C000C0018007800E00334
:10317000800F001E0038007000600460046008606A
:1031800018303818C80F00000000000000000000D0
:10319000000000000000000000000000FC3F8C2147
:1031A000846182418241800180018001800180012F
:1031B0008001800180018001800180018001800107
:1031C00080018001E0070000000000000000000016
:1031D0000000000000000000000000003F7C0C1018
:1031E0000C100C100C100C100C100C100C100C10FF
:1031F0000C100C100C100C100C100C100C100C10EF
:1032000008083804E003000000000000000000008F
:103210000000000000000000000000003EF8182040
:10322000182018203010301030103010600860085E
:103230006008E00CC004C004C00480038003800365
:1032400080030001000100000000000000000000F9
:10325000000000000000000000000000DFF38661B5
:10326000862186218C210C218C238C138C138C13AA
:103270004C1358125816580E380E380E380E300CA3
:103280001004100410040000000000000000000002
:103290000000000000000000000000007E3E180852
:1032A00038083004300470026002E001C001C0013F
:1032B000800180034003400720062006100C100CFC
:1032C000081808183E7C0000000000000000000004
:1032D0000000000000000000000000007E7C1C10C8
:1032E000181018083008300C700460046002C00226
:1032F000C002C00180018001800180018001800145
:1033000080018001E00700000000000000000000D4
:10331000000000000000000000000000F83F181846
:103320000818040C040E0006000700038003800147
:10333000C001C000E000600070003000382018209C
:103340001C100C18FE1F0000000000000000000010
:10335000000000000000C03F40004000400040006E
:10336000400040004000400040004000400040005D
:10337000400040004000400040004000400040004D
:1033800040004000400040004000C03F00000000FE
:1033900000000000000000000000080018001800F5
:1033A000100030002000600060004000C00080007D
:1033B00080018001000100030002000600060004F5
:1033C000000C000800180018001000300020000059
:1033D000000000000000FC030002000200020002E6
:1033E00000020002000200020002000200020002CD
:1033F00000020002000200020002000200020002BD
:1034000000020002000200020002FC0300000000B3
:103410000000000000008007C00620081010000017
:10342000000000000000000000000000000000009C
:10343000000000000000000000000000000000008C
:10344000000000000000000000000000000000007C
:10345000000000000000000000000000000000006C
:10346000000000000000000000000000000000005C
:10347000000000000000000000000000000000004C
:103480000000000000000000000000000000FFFF3E
:103490000000000000007800C000000100000000F3
:1034A000000000000000000000000000000000001C
:1034B000000000000000000000000000000000000C
:1034C00000000000000000000000000000000000FC
:1034D00000000000000000000000000000000000EC
:1034E00000000000000000000000F00318060C0CB3
:1034F0000C0C000C800F700C1C0C0C0C060C060C39
:10350000064C0C4FF83800000000000000000000DE
:103510000000000000000000000010001E00180065
:1035200018001800180018001800180FD8183830A4
:1035300038601860186018601860186018601820EB
:1035400038307818C80700000000000000000000B4
:10355000000000000000000000000000000000006B
:1035600000000000000000000000C007700C1818E8
:1035700018180C180C000C000C000C000C20182063
:1035800018103008C0070000000000000000000014
:10359000000000000000000000000010001E0018E5
:1035A00000180018001800180018E01B301C18182C
:1035B00018180C180C180C180C180C180C180818E3
:1035C000181C307AE0090000000000000000000034
:1035D00000000000000000000000000000000000EB
:1035E00000000000000000000000C007300C1818A8
:1035F00008100C300C30FC3F0C000C000C001820A4
:1036000018107018C0070000000000000000000043
:10361000000000000000000000000000003E80C329
:1036200080C0C0C0C000C000C000FC1FC000C000FF
:10363000C000C000C000C000C000C000C000C0008A
:10364000C000C000F80F00000000000000000000F3
:10365000000000000000000000000000000000006A
:1036600000000000000000000000C077306C10185F
:103670001818181818181018300CF007180018002F
:10368000F00FF03F08700C600C600C603838E00FF1
:103690000000000000000000000010001E001800E4
:1036A00018001800180018001800980FD8183830A3
:1036B00018301830183018301830183018301830CA
:1036C000183018307EFC00000000000000000000F0
:1036D00000000000000000000000000080038003E4
:1036E00080030000000000000001F801800180015B
:1036F00080018001800180018001800180018001C2
:1037000080018001F81F00000000000000000000A0
:103710000000000000000000000000000038003839
:1037200000380000000000000010801F0018001882
:1037300000180018001800180018001800180018C9
:1037400000180018001800180018180C1806F003CC
:103750000000000000000000000010001E00180023
:1037600018001800180018001800183E180C180649
:10377000180318019801D801380318071806180C07
:10378000181C18187E7C00000000000000000000DB
:10379000000000000000000000000001F8018001AE
:1037A0008001800180018001800180018001800111
:1037B0008001800180018001800180018001800101
:1037C00080018001F81F00000000000000000000E0
:1037D00000000000000000000000000000000000E9
:1037E00000000000000000000800EE1C9C338C313B
:1037F0008C318C318C318C318C318C318C318C31E1
:103800008C318C31DE7B00000000000000000000E5
:1038100000000000000000000000000000000000A8
:10382000000000000000000010001E0FD818383003
:103830001830183018301830183018301830183048
:10384000183018307EFC000000000000000000006E
:103850000000000000000000000000000000000068
:1038600000000000000000000000C007701C1030C5
:1038700018300C600C600C600C600C600C60183030
:1038800018303018C00700000000000000000000E1
:103890000000000000000000000000000000000028
:1038A000000000000000000010009E0F5818383083
:1038B00018201860186018601860186018601830B8
:1038C00038307818980718001800180018007E0083
:1038D00000000000000000000000000000000000E8
:1038E00000000000000000000000C023303C183839
:1038F00018300C300C300C300C300C300C300830E0
:103900001838303CE033003000300030003000FC2C
:1039100000000000000000000000000000000000A7
:10392000000000000000000060007E3C60666061F6
:10393000E000E00060006000600060006000600087
:1039400060006000FE0700000000000000000000B2
:103950000000000000000000000000000000000067
:1039600000000000000000000000E02730381830A0
:10397000182018007000E003800F001C0430043091
:103980000C301C18EC0F00000000000000000000CC
:103990000000000000000000000000000000000027
:1039A000800080008000C000E000FC1FC000C0005C
:1039B000C000C000C000C000C000C000C000C020E7
:1039C000C0208011000F0000000000000000000077
:1039D00000000000000000000000000000000000E7
:1039E000000000000000000010201E3C18301830BD
:1039F0001830183018301830183018301830183087
:103A0000183830F4E013000000000000000000004F
:103A100000000000000000000000000000000000A6
:103A2000000000000000000000007E3C181818088C
:103A3000380830043004700260026002E001C00106
:103A4000C001C00080000000000000000000000075
:103A50000000000000000000000000000000000066
:103A600000000000000000000000DFF78E630C2360
:103A70008C238C239813981358165816700E700EBA
:103A8000700E200420040000000000000000000070
:103A90000000000000000000000000000000000026
:103AA00000000000000000000000FC3E70087004F0
:103AB000E004C002C0018003800340076006200CC0
:103AC000100C18183E7E00000000000000000000EE
:103AD00000000000000000000000000000000000E6
:103AE000000000000000000000007E7C181818088C
:103AF00030083008300460046004C002C002C00214
:103B00008001800180018000800080004C003C002A
:103B100000000000000000000000000000000000A5
:103B200000000000000000000000FC1F0C0C040E50
:103B30000406000380038001C000E00070203020F4
:103B400038301C18FC1F00000000000000000000BE
:103B50000000000000000030000800040004000421
:103B60000004000400040004000400040004000237
:103B700080010002000400040004000400040004AA
:103B800000040004000400040004000800300000E9
:103B9000000100010001000100010001000100011D
:103BA000000100010001000100010001000100010D
:103BB00000010001000100010001000100010001FD
:103BC00000010001000100010001000100010001ED
:103BD0000000000000000C00100020002000200069
:103BE00020002000200020002000200020004000B5
:103BF0008001400020002000200020002000200044
:103C00002000200020002000200010000C000000F8
:103C100000003800C400864002610022001C000041
:103C20000000000000000000000000000000000094
:103C30000000000000000000000000000000000084
:103C40000000000000000000000000000000000074
:103C5000D6D08000800080008000FC1F841084107B
:103C6000841084108410FC1F841080008000800069
:103C70008000BEB0F80F0808F80F0808F80F8000A1
:103C8000FF7F0000F80F08080808F80F8000841074
:103C9000A2204000D4B00000FE3F0220F227022004
:103CA0000220FA2F222122212221122912290A2E52
:103CB0000220FE3F0220B5E7800080008000FC1F4C
:103CC000841084108410FC1F841084108410FC1F46
:103CD000845080408040007FD7D30000FE1F000842
:103CE0000004000280018000FF7F800080008000CF
:103CF000800080008000A0004000D6D000000000BE
:103D00000000001800000800000800000800080873
:103D100018F8FF1F18081818081818081818081895
:103D2000180818180818F8FF1F08080800080000ED
:103D30000800000800000800001800001800001823
:103D400000000000BEB0000000000000400006C0FF
:103D5000FF07400006C0FF07400006C0FF074008FD
:103D600002003000FEFF3F000000C0FF07C000025D
:103D7000C00002C00002C0FF03801000801101607B
:103D8000100E3010180C1E30001C00000000D4B0C3
:103D9000000000000000080030F8FF1F08001008B5
:103DA000C010083F10080010080010080013C8FFDA
:103DB00010082210082210082210082210082112D0
:103DC00008211488601648C013280010080010F855
:103DD000FF1F080010000000B5E700000000000011
:103DE000001800000800000800000800F0FF0F1095
:103DF0000804100804100804100804F0FF07100855
:103E000004100804100804100804F0FF071008004C
:103E100000081000081000082000183000F01F00F3
:103E20000000D7D3000000000000000004F0FF0FE6
:103E300000000600000100C000002800001800007B
:103E40001800001830FEFF7F00180000180000184E
:103E500000001800001800001800001800001800EA
:103E6000001800001F00000C00000000D6D0000069
:103E700000000000000000800000008001000080C1
:103E8000010000800100008001000080010010801E
:103E9000010CF0FFFF0F30800104308001043080FE
:103EA000010430800104308001043080010430803E
:103EB000010430800104F0FFFF07308001043080EE
:103EC00001040080010000800100008001000080EA
:103ED00001000080010000800100008001000080DE
:103EE0000100008001000080000000000000BEB062
:103EF0000000000000000000000000000001800140
:103F000000FFFF01000380010003800100FFFF01AB
:103F1000000380010003800100FFFF010081810098
:103F2000000003000000031CFCFFFF3F00004000F6
:103F30000003C00100FFFF010003C0000003C00038
:103F40000003C00000FFFF00000141000004010069
:103F5000000E710000078101800101076000010E61
:103F60001898011C04E0011800C0000000000000C7
:103F7000D4B0000000000000000000000008F0FFC6
:103F8000FF1F3000000C3000000C3000100C30FE21
:103F90003F0C3004000C3000000C3000000C3000EE
:103FA000000C3000C00CF0FFFF0D3030060E30303A
:103FB000060C3010060C3010060C3010060C3018B1
:103FC000860C3018860C3008060D300C860D300635
:103FD000EE0F3002FC0D3001000CF000000C300040
:103FE000000CF0FFFF0F3000000C10000004000078
:103FF0000000B5E7000000000000000000C0000065
:1040000000C0010000C0000000C0000000C00000AF
:1040100000C00000E0FFFF0360C0000360C00003B9
:1040200060C0000360C0000360C0000360C0000304
:10403000E0FFFF0360C0000360C0000360C0000336
:1040400060C0000360C00003E0FFFF0360C0000128
:1040500060C0000000C0000800C0001000C00010D8
:1040600000C0001800C001380080FF1F00000000E1
:1040700000000000D7D30000000000000000000096
:10408000000000000003C0FFFF07000080070000E1
:10409000C000000060000000180000000C0000805C
:1040A0000300008003000080010000800108008000
:1040B000011CFCFFFF3F0080010000800100008028
:1040C00001000080010000800100008001000080EC
:1040D00001000080010000800100008001000080DC
:1040E00001000080010000FC010000E00000004031
:1040F000000000000000000018410008000000203F
:10410000880000006C010008A04100088800002021
:1041100028070000880100080000000000000000DF
:10412000000000000000000000000000000000008F
:10413000000000000000000000000000000000007F
:10414000000000000000000000000000000000006F
:10415000FFFFFFFF00A24A04000000000000000073
:10416000010203040607080900000000010203041D
:104170000102030406070809020406080000000003
:10418000000000000000000000000000000000002F
:10419000000000000000000000000000000000001F
:0400000508000131BD
:00000001FF
